{"_format":"hh-sol-artifact-1","contractName":"RainfallOption","sourceName":"contracts/RainfallDerivativeFactory.sol","abi":[{"inputs":[],"stateMutability":"nonpayable","type":"constructor"},{"anonymous":false,"inputs":[{"indexed":true,"internalType":"bytes32","name":"id","type":"bytes32"}],"name":"ChainlinkCancelled","type":"event"},{"anonymous":false,"inputs":[{"indexed":true,"internalType":"bytes32","name":"id","type":"bytes32"}],"name":"ChainlinkFulfilled","type":"event"},{"anonymous":false,"inputs":[{"indexed":true,"internalType":"bytes32","name":"id","type":"bytes32"}],"name":"ChainlinkRequested","type":"event"},{"anonymous":false,"inputs":[{"indexed":true,"internalType":"address","name":"from","type":"address"},{"indexed":true,"internalType":"address","name":"to","type":"address"}],"name":"OwnershipTransferRequested","type":"event"},{"anonymous":false,"inputs":[{"indexed":true,"internalType":"address","name":"from","type":"address"},{"indexed":true,"internalType":"address","name":"to","type":"address"}],"name":"OwnershipTransferred","type":"event"},{"inputs":[],"name":"ARBOL_ORACLE","outputs":[{"internalType":"address","name":"","type":"address"}],"stateMutability":"view","type":"function"},{"inputs":[],"name":"EVALUATION_JOB","outputs":[{"internalType":"bytes32","name":"","type":"bytes32"}],"stateMutability":"view","type":"function"},{"inputs":[],"name":"acceptOwnership","outputs":[],"stateMutability":"nonpayable","type":"function"},{"inputs":[{"internalType":"address","name":"_oracle","type":"address"},{"internalType":"bytes32","name":"_job","type":"bytes32"}],"name":"addOracleJob","outputs":[],"stateMutability":"nonpayable","type":"function"},{"inputs":[],"name":"contractEvaluated","outputs":[{"internalType":"bool","name":"","type":"bool"}],"stateMutability":"view","type":"function"},{"inputs":[{"internalType":"bytes32","name":"_requestId","type":"bytes32"},{"internalType":"uint256","name":"_result","type":"uint256"}],"name":"fulfillPayoutEvaluation","outputs":[],"stateMutability":"nonpayable","type":"function"},{"inputs":[],"name":"getOraclePayment","outputs":[{"internalType":"uint256","name":"","type":"uint256"}],"stateMutability":"view","type":"function"},{"inputs":[],"name":"getParameters","outputs":[{"internalType":"string[]","name":"","type":"string[]"}],"stateMutability":"view","type":"function"},{"inputs":[{"internalType":"uint256","name":"_oraclePayment","type":"uint256"},{"internalType":"address","name":"_link","type":"address"},{"internalType":"string[]","name":"_parameters","type":"string[]"},{"internalType":"uint256","name":"_end","type":"uint256"}],"name":"initialize","outputs":[],"stateMutability":"nonpayable","type":"function"},{"inputs":[{"internalType":"uint256","name":"","type":"uint256"}],"name":"jobs","outputs":[{"internalType":"bytes32","name":"","type":"bytes32"}],"stateMutability":"view","type":"function"},{"inputs":[{"internalType":"bytes32","name":"","type":"bytes32"}],"name":"oracleMap","outputs":[{"internalType":"uint256","name":"","type":"uint256"}],"stateMutability":"view","type":"function"},{"inputs":[{"internalType":"uint256","name":"","type":"uint256"}],"name":"oracles","outputs":[{"internalType":"address","name":"","type":"address"}],"stateMutability":"view","type":"function"},{"inputs":[],"name":"owner","outputs":[{"internalType":"address","name":"","type":"address"}],"stateMutability":"view","type":"function"},{"inputs":[],"name":"payout","outputs":[{"internalType":"uint256","name":"","type":"uint256"}],"stateMutability":"view","type":"function"},{"inputs":[{"internalType":"bytes32","name":"_job","type":"bytes32"}],"name":"removeOracleJob","outputs":[],"stateMutability":"nonpayable","type":"function"},{"inputs":[],"name":"requestPayoutEvaluation","outputs":[],"stateMutability":"nonpayable","type":"function"},{"inputs":[{"internalType":"address","name":"to","type":"address"}],"name":"transferOwnership","outputs":[],"stateMutability":"nonpayable","type":"function"}],"bytecode":"0x608060405260016004553480156200001657600080fd5b5033806000816200006e5760405162461bcd60e51b815260206004820152601860248201527f43616e6e6f7420736574206f776e657220746f207a65726f000000000000000060448201526064015b60405180910390fd5b600680546001600160a01b0319166001600160a01b0384811691909117909155811615620000a157620000a1816200015f565b505060006010819055600c805460ff19169055600a805460018181019092557fc65a7bb8d6351c1cf70c95a316cc6a92839c986682d98bc35f958f4883f9d2a80180546001600160a01b0319167376dfa9a36db355f101b241b66e2fa97f7ca09c24179055600b805491820181559091527f63636166316266653937643834363963616666333935613061616136316532377f0175b7a638427703f0dbe7bb9bbf987a2551717b34e79f33b5b1008d1fa01db990910155506200020c565b6001600160a01b038116331415620001ba5760405162461bcd60e51b815260206004820152601760248201527f43616e6e6f74207472616e7366657220746f2073656c66000000000000000000604482015260640162000065565b600780546001600160a01b0319166001600160a01b03838116918217909255600654604051919216907fed8889f560326eb138920d842192f0eb3dd22b4f139c87a2c57538e05bae127890600090a350565b611d14806200021c6000396000f3fe608060405234801561001057600080fd5b50600436106100db5760003560e01c8063180aedf3146100e0578063186395cf1461010657806321da473d146101105780633612820d146101375780633c54689f1461014a5780634e8bd2861461015d5780635b69a7d814610170578063602f144b1461019057806363bd1d4a146101ad57806364f1cb74146101b65780636986f2e9146101d657806379ba5097146101de5780638da5cb5b146101e6578063a180d1f7146101ee578063a5ea11da14610209578063ddc972271461021e578063f2fde38b14610231575b600080fd5b6100f36100ee3660046117f8565b610244565b6040519081526020015b60405180910390f35b61010e610265565b005b6100f37f636361663162666539376438343639636166663339356130616161363165323781565b61010e6101453660046117f8565b61053b565b61010e610158366004611810565b6107d9565b61010e61016b366004611849565b610a7f565b61018361017e3660046117f8565b610ac3565b6040516100fd9190611977565b600c5461019d9060ff1681565b60405190151581526020016100fd565b6100f360105481565b6100f36101c43660046117f8565b60096020526000908152604090205481565b6100f3610aed565b61010e610b04565b610183610bb2565b6101837376dfa9a36db355f101b241b66e2fa97f7ca09c2481565b610211610bc1565b6040516100fd9190611a1a565b61010e61022c3660046117af565b610ca6565b61010e61023f366004611795565b610dd2565b600b818154811061025457600080fd5b600091825260209091200154905081565b61026d610de6565b42600f54106102da5760405162461bcd60e51b815260206004820152602e60248201527f756e61626c6520746f2063616c6c20756e74696c20636f76657261676520706560448201526d1c9a5bd9081a185cc8195b99195960921b60648201526084015b60405180910390fd5b600854600a8054604080516020808402820181019092528281526000939092909183018282801561033457602002820191906000526020600020905b81546001600160a01b03168152600190910190602001808311610316575b505050505090506000600b80548060200260200160405190810160405280929190818152602001828054801561038957602002820191906000526020600020905b815481526020019060010190808311610375575b505050505090506000600e805480602002602001604051908101604052809291908181526020016000905b828210156104605783829060005260206000200180546103d390611bf8565b80601f01602080910402602001604051908101604052809291908181526020018280546103ff90611bf8565b801561044c5780601f106104215761010080835404028352916020019161044c565b820191906000526020600020905b81548152906001019060200180831161042f57829003601f168201915b5050505050815260200190600101906103b4565b5050505090506000805b845181146105315760006104ad85838151811061049757634e487b7160e01b600052603260045260246000fd5b602002602001015130633c54689f60e01b610e3b565b60408051808201909152600a815269706172616d657465727360b01b60208201529091506104dd90829086610e60565b61050f86838151811061050057634e487b7160e01b600052603260045260246000fd5b60200260200101518289610ee6565b5061051b600184611aab565b925061052a9050600182611aab565b905061046a565b50600d5550505050565b610543610de6565b6000818152600960205260409020548015801561058b575081600b828154811061057d57634e487b7160e01b600052603260045260246000fd5b906000526020600020015414155b6107d557600b5461059e90600190611be1565b81141561061f57600a8054806105c457634e487b7160e01b600052603160045260246000fd5b600082815260209020810160001990810180546001600160a01b0319169055019055600b80548061060557634e487b7160e01b600052603160045260246000fd5b600190038181906000526020600020016000905590555050565b600a805461062f90600190611be1565b8154811061064d57634e487b7160e01b600052603260045260246000fd5b600091825260209091200154600a80546001600160a01b03909216918390811061068757634e487b7160e01b600052603260045260246000fd5b9060005260206000200160006101000a8154816001600160a01b0302191690836001600160a01b03160217905550600a8054806106d457634e487b7160e01b600052603160045260246000fd5b600082815260209020810160001990810180546001600160a01b0319169055019055600b805461070690600190611be1565b8154811061072457634e487b7160e01b600052603260045260246000fd5b9060005260206000200154600b828154811061075057634e487b7160e01b600052603260045260246000fd5b600091825260209091200155600b80548061077b57634e487b7160e01b600052603160045260246000fd5b600190038181906000526020600020016000905590558060096000600b84815481106107b757634e487b7160e01b600052603260045260246000fd5b90600052602060002001548152602001908152602001600020819055505b5050565b60008281526005602052604090205482906001600160a01b031633146108525760405162461bcd60e51b815260206004820152602860248201527f536f75726365206d75737420626520746865206f7261636c65206f6620746865604482015267081c995c5d595cdd60c21b60648201526084016102d1565b60008181526005602052604080822080546001600160a01b03191690555182917f7cc135e0cebb02c3480ae5d74d377283180a2601f8f644edf7987b009316c63a91a281601060008282546108a79190611aab565b925050819055506001600d60008282546108c19190611be1565b9091555050600d54610a7a57600a54601080546000906108e2908490611ac3565b9091555050600c805460ff1916600117905560006109086002546001600160a01b031690565b9050806001600160a01b031663a9059cbb610921610bb2565b6040516370a0823160e01b81526001600160a01b038516906370a082319061094d903090600401611977565b60206040518083038186803b15801561096557600080fd5b505afa158015610979573d6000803e3d6000fd5b505050506040513d601f19601f8201168201806040525081019061099d9190611831565b6040516001600160e01b031960e085901b1681526001600160a01b0390921660048301526024820152604401602060405180830381600087803b1580156109e357600080fd5b505af11580156109f7573d6000803e3d6000fd5b505050506040513d601f19601f82011682018060405250810190610a1b91906117d8565b610a785760405162461bcd60e51b815260206004820152602860248201527f556e61626c6520746f207472616e736665722072656d61696e696e67204c494e6044820152674b20746f6b656e7360c01b60648201526084016102d1565b505b505050565b610a87610de6565b6008849055600280546001600160a01b0319166001600160a01b0385161790558151610aba90600e906020850190611577565b50600f55505050565b600a8181548110610ad357600080fd5b6000918252602090912001546001600160a01b0316905081565b600b54600854600091610aff91611bc2565b905090565b6007546001600160a01b03163314610b575760405162461bcd60e51b815260206004820152601660248201527526bab9ba10313290383937b837b9b2b21037bbb732b960511b60448201526064016102d1565b600680546001600160a01b0319808216339081179093556007805490911690556040516001600160a01b03909116919082907f8be0079c531659141344cd1fd0a4f28419497f9722a3daafe3b4186f6b6457e090600090a350565b6006546001600160a01b031690565b6060610bcb610de6565b6000600e805480602002602001604051908101604052809291908181526020016000905b82821015610c9b578382906000526020600020018054610c0e90611bf8565b80601f0160208091040260200160405190810160405280929190818152602001828054610c3a90611bf8565b8015610c875780601f10610c5c57610100808354040283529160200191610c87565b820191906000526020600020905b815481529060010190602001808311610c6a57829003601f168201915b505050505081526020019060010190610bef565b509294505050505090565b610cae610de6565b600081815260096020526040902054600b54610d3c57600a805460018082018355600080516020611c9f83398151915290910180546001600160a01b0319166001600160a01b038716179055600b80548083018255600091909152600080516020611cbf833981519152018490559054610d289190611be1565b600083815260096020526040902055505050565b81600b8281548110610d5e57634e487b7160e01b600052603260045260246000fd5b906000526020600020015414610a7a57600a805460018082018355600080516020611c9f83398151915290910180546001600160a01b0319166001600160a01b038716179055600b80548083018255600091909152600080516020611cbf833981519152018490559054610d289190611be1565b610dda610de6565b610de381610f05565b50565b6006546001600160a01b03163314610e395760405162461bcd60e51b815260206004820152601660248201527527b7363c9031b0b63630b1363290313c9037bbb732b960511b60448201526064016102d1565b565b610e436115d4565b610e4b6115d4565b610e5781868686610faa565b95945050505050565b6080830151610e6f9083610fe7565b610e7c8360800151610ffe565b60005b8151811015610ed857610ec6828281518110610eab57634e487b7160e01b600052603260045260246000fd5b60200260200101518560800151610fe790919063ffffffff16565b80610ed081611c2d565b915050610e7f565b50610a7a8360800151611009565b6000610efd84848460016320214ca360e11b611014565b949350505050565b6001600160a01b038116331415610f585760405162461bcd60e51b815260206004820152601760248201527621b0b73737ba103a3930b739b332b9103a379039b2b63360491b60448201526064016102d1565b600780546001600160a01b0319166001600160a01b03838116918217909255600654604051919216907fed8889f560326eb138920d842192f0eb3dd22b4f139c87a2c57538e05bae127890600090a350565b610fb26115d4565b610fc2856080015161010061121b565b50509183526001600160a01b031660208301526001600160e01b031916604082015290565b610ff48260038351611279565b610a7a8282611346565b610de3816004611367565b610de3816007611367565b6004546040516001600160601b03193060601b166020820152603481019190915260009060540160408051808303601f19018152918152815160209283012060045460608901526000818152600590935281832080546001600160a01b0319166001600160a01b038b16179055905190925082917fb5e6e01e79f91267dc17b4e6314d5d4d03593d2ceee0fbb452b750bd70ea5af991a2600082600080886000015189602001518a604001518b606001518a8d60800151600001516040516024016110e698979695949392919061198b565b60408051601f198184030181529181526020820180516001600160e01b03166001600160e01b0319909416939093179092526002549151630200057560e51b81529092506001600160a01b0390911690634000aea09061114e908a90899086906004016119f3565b602060405180830381600087803b15801561116857600080fd5b505af115801561117c573d6000803e3d6000fd5b505050506040513d601f19601f820116820180604052508101906111a091906117d8565b6111f85760405162461bcd60e51b815260206004820152602360248201527f756e61626c6520746f207472616e73666572416e6443616c6c20746f206f7261604482015262636c6560e81b60648201526084016102d1565b60016004600082825461120b9190611aab565b9091555091979650505050505050565b611223611609565b61122e602083611c48565b156112565761123e602083611c48565b611249906020611be1565b6112539083611aab565b91505b506020808301829052604080518085526000815283019091019052815b92915050565b6017811161129457610a788360e0600585901b168317611378565b60ff81116112be576112b1836018611fe0600586901b1617611378565b50610a7883826001611390565b61ffff81116112e9576112dc836019611fe0600586901b1617611378565b50610a7883826002611390565b63ffffffff81116113165761130983601a611fe0600586901b1617611378565b50610a7883826004611390565b6001600160401b038111610a7a5761133983601b611fe0600586901b1617611378565b50610a7883826008611390565b61134e611609565b611360838460000151518485516113a9565b9392505050565b610a7a82601f611fe0600585901b16175b611380611609565b6113608384600001515184611486565b611398611609565b610efd8485600001515185856114d5565b6113b1611609565b82518211156113bf57600080fd5b60208501516113ce8386611aab565b111561140157611401856113f1876020015187866113ec9190611aab565b611549565b6113fc906002611bc2565b611560565b6000808651805187602083010193508088870111156114205787860182525b505050602084015b60208410611460578051825261143f602083611aab565b915061144c602082611aab565b9050611459602085611be1565b9350611428565b51815160001960208690036101000a019081169019919091161790525083949350505050565b61148e611609565b836020015183106114ae576114ae84856020015160026113fc9190611bc2565b8351805160208583010184815350808514156114cb576001810182525b5093949350505050565b6114dd611609565b60208501516114ec8584611aab565b111561150057611500856113f18685611aab565b6000600161151084610100611b1a565b61151a9190611be1565b905085518386820101858319825116178152508051848701111561153e5783860181525b509495945050505050565b60008183111561155a575081611273565b50919050565b815161156c838361121b565b50610a788382611346565b8280548282559060005260206000209081019282156115c4579160200282015b828111156115c457825180516115b4918491602090910190611623565b5091602001919060010190611597565b506115d09291506116a3565b5090565b6040805160a081018252600080825260208201819052918101829052606081019190915260808101611604611609565b905290565b604051806040016040528060608152602001600081525090565b82805461162f90611bf8565b90600052602060002090601f0160209004810192826116515760008555611697565b82601f1061166a57805160ff1916838001178555611697565b82800160010185558215611697579182015b8281111561169757825182559160200191906001019061167c565b506115d09291506116c0565b808211156115d05760006116b782826116d5565b506001016116a3565b5b808211156115d057600081556001016116c1565b5080546116e190611bf8565b6000825580601f106116f1575050565b601f016020900490600052602060002090810190610de391906116c0565b80356001600160a01b038116811461172657600080fd5b919050565b600082601f83011261173b578081fd5b81356001600160401b0381111561175457611754611c88565b611767601f8201601f1916602001611a7b565b81815284602083860101111561177b578283fd5b816020850160208301379081016020019190915292915050565b6000602082840312156117a6578081fd5b6113608261170f565b600080604083850312156117c1578081fd5b6117ca8361170f565b946020939093013593505050565b6000602082840312156117e9578081fd5b81518015158114611360578182fd5b600060208284031215611809578081fd5b5035919050565b60008060408385031215611822578182fd5b50508035926020909101359150565b600060208284031215611842578081fd5b5051919050565b6000806000806080858703121561185e578182fd5b84359350602061186f81870161170f565b935060408601356001600160401b038082111561188a578485fd5b818801915088601f83011261189d578485fd5b8135818111156118af576118af611c88565b8060051b6118be858201611a7b565b8281528581019085870183870188018e10156118d857898afd5b8993505b84841015611915578035868111156118f2578a8bfd5b6119008f8a838b010161172b565b845250600193909301929187019187016118dc565b50999c989b50989960600135985050505050505050565b60008151808452815b8181101561195157602081850181015186830182015201611935565b818111156119625782602083870101525b50601f01601f19169290920160200192915050565b6001600160a01b0391909116815260200190565b6001600160a01b0389811682526020820189905260408201889052861660608201526001600160e01b03198516608082015260a0810184905260c0810183905261010060e082018190526000906119e48382018561192c565b9b9a5050505050505050505050565b60018060a01b0384168152826020820152606060408201526000610e57606083018461192c565b6000602080830181845280855180835260408601915060408160051b8701019250838701855b82811015611a6e57603f19888603018452611a5c85835161192c565b94509285019290850190600101611a40565b5092979650505050505050565b604051601f8201601f191681016001600160401b0381118282101715611aa357611aa3611c88565b604052919050565b60008219821115611abe57611abe611c5c565b500190565b600082611ad257611ad2611c72565b500490565b600181815b80851115611b12578160001904821115611af857611af8611c5c565b80851615611b0557918102915b93841c9390800290611adc565b509250929050565b60006113608383600082611b3057506001611273565b81611b3d57506000611273565b8160018114611b535760028114611b5d57611b79565b6001915050611273565b60ff841115611b6e57611b6e611c5c565b50506001821b611273565b5060208310610133831016604e8410600b8410161715611b9c575081810a611273565b611ba68383611ad7565b8060001904821115611bba57611bba611c5c565b029392505050565b6000816000190483118215151615611bdc57611bdc611c5c565b500290565b600082821015611bf357611bf3611c5c565b500390565b600181811c90821680611c0c57607f821691505b6020821081141561155a57634e487b7160e01b600052602260045260246000fd5b6000600019821415611c4157611c41611c5c565b5060010190565b600082611c5757611c57611c72565b500690565b634e487b7160e01b600052601160045260246000fd5b634e487b7160e01b600052601260045260246000fd5b634e487b7160e01b600052604160045260246000fdfec65a7bb8d6351c1cf70c95a316cc6a92839c986682d98bc35f958f4883f9d2a80175b7a638427703f0dbe7bb9bbf987a2551717b34e79f33b5b1008d1fa01db9a26469706673582212208bdbc7e4321646fa69d9dbdd04d0fb06b5490f8bc2c73165b23810aeff2a93d764736f6c63430008040033","linkReferences":{},"deployedLinkReferences":{}}