{
  "_format": "hh-sol-artifact-1",
  "contractName": "CubanBlizzardOption",
  "sourceName": "contracts/CubanBlizzardDerivativeFactory.sol",
  "abi": [
    {
      "inputs": [],
      "stateMutability": "nonpayable",
      "type": "constructor"
    },
    {
      "anonymous": false,
      "inputs": [
        {
          "indexed": true,
          "internalType": "bytes32",
          "name": "id",
          "type": "bytes32"
        }
      ],
      "name": "ChainlinkCancelled",
      "type": "event"
    },
    {
      "anonymous": false,
      "inputs": [
        {
          "indexed": true,
          "internalType": "bytes32",
          "name": "id",
          "type": "bytes32"
        }
      ],
      "name": "ChainlinkFulfilled",
      "type": "event"
    },
    {
      "anonymous": false,
      "inputs": [
        {
          "indexed": true,
          "internalType": "bytes32",
          "name": "id",
          "type": "bytes32"
        }
      ],
      "name": "ChainlinkRequested",
      "type": "event"
    },
    {
      "anonymous": false,
      "inputs": [
        {
          "indexed": true,
          "internalType": "address",
          "name": "from",
          "type": "address"
        },
        {
          "indexed": true,
          "internalType": "address",
          "name": "to",
          "type": "address"
        }
      ],
      "name": "OwnershipTransferRequested",
      "type": "event"
    },
    {
      "anonymous": false,
      "inputs": [
        {
          "indexed": true,
          "internalType": "address",
          "name": "from",
          "type": "address"
        },
        {
          "indexed": true,
          "internalType": "address",
          "name": "to",
          "type": "address"
        }
      ],
      "name": "OwnershipTransferred",
      "type": "event"
    },
    {
      "anonymous": false,
      "inputs": [
        {
          "indexed": false,
          "internalType": "address",
          "name": "_contract",
          "type": "address"
        },
        {
          "indexed": false,
          "internalType": "uint256",
          "name": "_time",
          "type": "uint256"
        }
      ],
      "name": "contractEnded",
      "type": "event"
    },
    {
      "anonymous": false,
      "inputs": [
        {
          "indexed": false,
          "internalType": "address",
          "name": "_contract",
          "type": "address"
        },
        {
          "indexed": false,
          "internalType": "uint256",
          "name": "_payout",
          "type": "uint256"
        },
        {
          "indexed": false,
          "internalType": "uint256",
          "name": "_time",
          "type": "uint256"
        }
      ],
      "name": "evaluationRequestFulfilled",
      "type": "event"
    },
    {
      "anonymous": false,
      "inputs": [
        {
          "indexed": false,
          "internalType": "address",
          "name": "_contract",
          "type": "address"
        },
        {
          "indexed": false,
          "internalType": "address",
          "name": "_oracle",
          "type": "address"
        },
        {
          "indexed": false,
          "internalType": "bytes32",
          "name": "_request",
          "type": "bytes32"
        },
        {
          "indexed": false,
          "internalType": "uint256",
          "name": "_time",
          "type": "uint256"
        }
      ],
      "name": "evaluationRequestSent",
      "type": "event"
    },
    {
      "inputs": [],
      "name": "acceptOwnership",
      "outputs": [],
      "stateMutability": "nonpayable",
      "type": "function"
    },
    {
      "inputs": [
        {
          "internalType": "address",
          "name": "_oracle",
          "type": "address"
        },
        {
          "internalType": "bytes32",
          "name": "_job",
          "type": "bytes32"
        }
      ],
      "name": "addOracleJob",
      "outputs": [],
      "stateMutability": "nonpayable",
      "type": "function"
    },
    {
      "inputs": [],
      "name": "contractEvaluated",
      "outputs": [
        {
          "internalType": "bool",
          "name": "",
          "type": "bool"
        }
      ],
      "stateMutability": "view",
      "type": "function"
    },
    {
      "inputs": [
        {
          "internalType": "uint256",
          "name": "",
          "type": "uint256"
        }
      ],
      "name": "dates",
      "outputs": [
        {
          "internalType": "string",
          "name": "",
          "type": "string"
        }
      ],
      "stateMutability": "view",
      "type": "function"
    },
    {
      "inputs": [],
      "name": "endContractInstance",
      "outputs": [],
      "stateMutability": "nonpayable",
      "type": "function"
    },
    {
      "inputs": [
        {
          "internalType": "bytes32",
          "name": "_requestId",
          "type": "bytes32"
        },
        {
          "internalType": "uint256",
          "name": "_result",
          "type": "uint256"
        }
      ],
      "name": "fulfillPayoutEvaluation",
      "outputs": [],
      "stateMutability": "nonpayable",
      "type": "function"
    },
    {
      "inputs": [],
      "name": "getNumJobs",
      "outputs": [
        {
          "internalType": "uint256",
          "name": "",
          "type": "uint256"
        }
      ],
      "stateMutability": "view",
      "type": "function"
    },
    {
      "inputs": [],
      "name": "getPayout",
      "outputs": [
        {
          "internalType": "uint256",
          "name": "",
          "type": "uint256"
        }
      ],
      "stateMutability": "view",
      "type": "function"
    },
    {
      "inputs": [],
      "name": "getStatus",
      "outputs": [
        {
          "internalType": "bool",
          "name": "",
          "type": "bool"
        }
      ],
      "stateMutability": "view",
      "type": "function"
    },
    {
      "inputs": [
        {
          "internalType": "uint256",
          "name": "_oraclePayment",
          "type": "uint256"
        },
        {
          "internalType": "address",
          "name": "_link",
          "type": "address"
        }
      ],
      "name": "initialize",
      "outputs": [],
      "stateMutability": "nonpayable",
      "type": "function"
    },
    {
      "inputs": [
        {
          "internalType": "uint256",
          "name": "",
          "type": "uint256"
        }
      ],
      "name": "jobs",
      "outputs": [
        {
          "internalType": "bytes32",
          "name": "",
          "type": "bytes32"
        }
      ],
      "stateMutability": "view",
      "type": "function"
    },
    {
      "inputs": [
        {
          "internalType": "bytes32",
          "name": "",
          "type": "bytes32"
        }
      ],
      "name": "oracleMap",
      "outputs": [
        {
          "internalType": "uint256",
          "name": "",
          "type": "uint256"
        }
      ],
      "stateMutability": "view",
      "type": "function"
    },
    {
      "inputs": [
        {
          "internalType": "uint256",
          "name": "",
          "type": "uint256"
        }
      ],
      "name": "oracles",
      "outputs": [
        {
          "internalType": "address",
          "name": "",
          "type": "address"
        }
      ],
      "stateMutability": "view",
      "type": "function"
    },
    {
      "inputs": [],
      "name": "owner",
      "outputs": [
        {
          "internalType": "address",
          "name": "",
          "type": "address"
        }
      ],
      "stateMutability": "view",
      "type": "function"
    },
    {
      "inputs": [],
      "name": "payout",
      "outputs": [
        {
          "internalType": "uint256",
          "name": "",
          "type": "uint256"
        }
      ],
      "stateMutability": "view",
      "type": "function"
    },
    {
      "inputs": [
        {
          "internalType": "bytes32",
          "name": "_job",
          "type": "bytes32"
        }
      ],
      "name": "removeOracleJob",
      "outputs": [],
      "stateMutability": "nonpayable",
      "type": "function"
    },
    {
      "inputs": [],
      "name": "requestPayoutEvaluation",
      "outputs": [],
      "stateMutability": "nonpayable",
      "type": "function"
    },
    {
      "inputs": [
        {
          "internalType": "address",
          "name": "to",
          "type": "address"
        }
      ],
      "name": "transferOwnership",
      "outputs": [],
      "stateMutability": "nonpayable",
      "type": "function"
    }
  ],
  "bytecode": "0x608060405260016004553480156200001657600080fd5b503380600081620000445760405162461bcd60e51b81526004016200003b906200084c565b60405180910390fd5b600680546001600160a01b0319166001600160a01b03848116919091179091558116156200007757620000778162000662565b50506000600f5550600c805460ff19169055604080516105a081018252600a6105608201818152691918191896989816981b60b11b610580840152825282518084018452818152690646064625a62605a60760b31b6020828101919091528084019190915283518085018552828152691918191896989816991b60b11b818301528385015283518085018552828152690646064625a62605a64760b31b8183015260608401528351808501855282815269323032312d31302d333160b01b81830152608084015283518085018552828152691918191896989896981960b11b8183015260a084015283518085018552828152691918191896989896981b60b11b8183015260c084015283518085018552828152690646064625a62625a60760b31b8183015260e08401528351808501855282815269323032312d31312d313560b01b818301526101008401528351808501855282815269323032312d31312d323760b01b818301526101208401528351808501855282815269323032312d31312d323960b01b818301526101408401528351808501855282815269323032312d31322d303360b01b8183015261016084015283518085018552828152690c8c0c8c4b4c4c8b4c0d60b21b818301526101808401528351808501855282815269323032312d31322d303760b01b818301526101a08401528351808501855282815269323032312d31322d313360b01b818301526101c08401528351808501855282815269323032312d31322d313560b01b818301526101e08401528351808501855282815269323032312d31322d323160b01b818301526102008401528351808501855282815269323032312d31322d323360b01b818301526102208401528351808501855282815269323032322d30312d303360b01b818301526102408401528351808501855282815269323032322d30312d303560b01b818301526102608401528351808501855282815269323032322d30312d303960b01b818301526102808401528351808501855282815269323032322d30312d313560b01b818301526102a08401528351808501855282815269323032322d30312d313760b01b818301526102c08401528351808501855282815269323032322d30312d313960b01b818301526102e084015283518085018552828152690323032322d30312d32360b41b818301526103008401528351808501855282815269323032322d30312d323360b01b818301526103208401528351808501855282815269323032322d30312d323960b01b8183015261034084015283518085018552828152691918191916981916981960b11b8183015261036084015283518085018552828152690c8c0c8c8b4c0c8b4c0d60b21b8183015261038084015283518085018552828152691918191916981916981b60b11b818301526103a084015283518085018552828152690646064645a60645a60760b31b818301526103c084015283518085018552828152690323032322d30322d31360b41b818301526103e084015283518085018552828152691918191916981916989960b11b818301526104008401528351808501855282815269323032322d30332d303360b01b818301526104208401528351808501855282815269323032322d30332d303560b01b818301526104408401528351808501855282815269323032322d30332d303760b01b818301526104608401528351808501855282815269323032322d30332d303960b01b818301526104808401528351808501855282815269323032322d30332d323160b01b818301526104a08401528351808501855282815269323032322d30332d323360b01b818301526104c08401528351808501855282815269323032322d30332d323760b01b818301526104e08401528351808501855282815269323032322d30332d323960b01b8183015261050084015283518085018552828152690646064645a60685a60760b31b818301526105208401528351808501909452908352690323032322d30342d31360b41b908301526105408101919091526200065b90600e90602b620006e0565b50620008f7565b6001600160a01b0381163314156200068e5760405162461bcd60e51b81526004016200003b9062000883565b600780546001600160a01b0319166001600160a01b03838116918217909255600654604051919216907fed8889f560326eb138920d842192f0eb3dd22b4f139c87a2c57538e05bae127890600090a350565b82805482825590600052602060002090810192821562000732579160200282015b828111156200073257825180516200072191849160209091019062000744565b509160200191906001019062000701565b5062000740929150620007cf565b5090565b8280546200075290620008ba565b90600052602060002090601f016020900481019282620007765760008555620007c1565b82601f106200079157805160ff1916838001178555620007c1565b82800160010185558215620007c1579182015b82811115620007c1578251825591602001919060010190620007a4565b5062000740929150620007f0565b8082111562000740576000620007e6828262000807565b50600101620007cf565b5b80821115620007405760008155600101620007f1565b5080546200081590620008ba565b6000825580601f1062000829575062000849565b601f016020900490600052602060002090810190620008499190620007f0565b50565b60208082526018908201527f43616e6e6f7420736574206f776e657220746f207a65726f0000000000000000604082015260600190565b60208082526017908201527f43616e6e6f74207472616e7366657220746f2073656c66000000000000000000604082015260600190565b600281046001821680620008cf57607f821691505b60208210811415620008f157634e487b7160e01b600052602260045260246000fd5b50919050565b611dc680620009076000396000f3fe608060405234801561001057600080fd5b50600436106100f65760003560e01c806363bd1d4a1161009257806363bd1d4a146101b957806364f1cb74146101c157806379ba5097146101d45780637d065c93146101dc5780637e0c00ed146101e45780638da5cb5b146101ec578063da35a26f146101f4578063ddc9722714610207578063f2fde38b1461021a576100f6565b8063180aedf3146100fb578063186395cf146101245780633612820d1461012e5780633c54689f14610141578063461cf76f146101545780634e69d5601461015c5780635133ae24146101715780635b69a7d814610191578063602f144b146101b1575b600080fd5b61010e610109366004611792565b61022d565b60405161011b9190611990565b60405180910390f35b61012c61024e565b005b61012c61013c366004611792565b610780565b61012c61014f3660046117aa565b610950565b61012c610b96565b610164610cdb565b60405161011b9190611985565b61018461017f366004611792565b610ce4565b60405161011b9190611999565b6101a461019f366004611792565b610d90565b60405161011b9190611876565b610164610dba565b61010e610dc3565b61010e6101cf366004611792565b610dc9565b61012c610ddb565b61010e610e60565b61010e610e66565b6101a4610e6c565b61012c6102023660046117e3565b610e7b565b61012c610215366004611749565b610e95565b61012c61022836600461172f565b610f38565b600b818154811061023d57600080fd5b600091825260209091200154905081565b610256610f4c565b42636253a7c0106102825760405162461bcd60e51b815260040161027990611a97565b60405180910390fd5b7ff1c35e3933051ea28efca558462a55cac66003050f2c6f4e96833a696fa444e230426040516102b39291906118b3565b60405180910390a1600854600a8054604080516020808402820181019092528281526000939092909183018282801561031557602002820191906000526020600020905b81546001600160a01b031681526001909101906020018083116102f7575b505050505090506000600b80548060200260200160405190810160405280929190818152602001828054801561036a57602002820191906000526020600020905b815481526020019060010190808311610356575b505050505090506000600e805480602002602001604051908101604052809291908181526020016000905b828210156104415783829060005260206000200180546103b490611d00565b80601f01602080910402602001604051908101604052809291908181526020018280546103e090611d00565b801561042d5780601f106104025761010080835404028352916020019161042d565b820191906000526020600020905b81548152906001019060200180831161041057829003601f168201915b505050505081526020019060010190610395565b5050505090506000805b8451811461077657600061048e85838151811061047857634e487b7160e01b600052603260045260246000fd5b602002602001015130633c54689f60e01b610f78565b604080518082019091526005815264646174657360d81b60208201529091506104b990829086610f9f565b6105136040518060400160405280600a8152602001691cdd185d1a5bdb97da5960b21b8152506040518060400160405280600b81526020016a555357303030303339323760a81b8152508361102a9092919063ffffffff16565b61056c6040518060400160405280601081526020016f776561746865725f7661726961626c6560801b81525060405180604001604052806004815260200163534e4f5760e01b8152508361102a9092919063ffffffff16565b6105bd6040518060400160405280600781526020016619185d185cd95d60ca1b8152506040518060400160405280600581526020016419da18db9960da1b8152508361102a9092919063ffffffff16565b61060e604051806040016040528060088152602001676f70745f7479706560c01b8152506040518060400160405280600481526020016310d0531360e21b8152508361102a9092919063ffffffff16565b604080518082019091526006815265737472696b6560d01b60208201526106389082906000611048565b6040805180820190915260058152641b1a5b5a5d60da1b60208201526106639082906203d090611048565b6040805180820190915260048152637469636b60e01b602082015261068d9082906203d090611048565b6040805180820190915260098152681d1a1c995cda1bdb1960ba1b60208201526106ba9082906006611048565b60006106ee8784815181106106df57634e487b7160e01b600052603260045260246000fd5b6020026020010151838a611066565b90506106fb600185611b8a565b93507f8a9d8e27cea77dd32eb51cfaf81bfc3fded7c7eeec5de203c4a8ad17c930fda73088858151811061073f57634e487b7160e01b600052603260045260246000fd5b60200260200101518342604051610759949392919061188a565b60405180910390a15061076f9050600182611b8a565b905061044b565b50600d5550505050565b610788610f4c565b600081815260096020526040902054600a80546107a790600190611ce9565b815481106107c557634e487b7160e01b600052603260045260246000fd5b600091825260209091200154600a80546001600160a01b0390921691839081106107ff57634e487b7160e01b600052603260045260246000fd5b9060005260206000200160006101000a8154816001600160a01b0302191690836001600160a01b03160217905550600a80548061084c57634e487b7160e01b600052603160045260246000fd5b600082815260209020810160001990810180546001600160a01b0319169055019055600b805461087e90600190611ce9565b8154811061089c57634e487b7160e01b600052603260045260246000fd5b9060005260206000200154600b82815481106108c857634e487b7160e01b600052603260045260246000fd5b600091825260209091200155600b8054806108f357634e487b7160e01b600052603160045260246000fd5b600190038181906000526020600020016000905590558060096000600b848154811061092f57634e487b7160e01b600052603260045260246000fd5b90600052602060002001548152602001908152602001600020819055505050565b60008281526005602052604090205482906001600160a01b031633146109885760405162461bcd60e51b815260040161027990611b42565b60008181526005602052604080822080546001600160a01b03191690555182917f7cc135e0cebb02c3480ae5d74d377283180a2601f8f644edf7987b009316c63a91a281600f60008282546109dd9190611b8a565b925050819055506001600d60008282546109f79190611ce9565b9091555050600d54610b5657600a54600f8054600090610a18908490611ba2565b9091555050600c805460ff191660011790556000610a34611085565b9050806001600160a01b031663a9059cbb610a4d610e6c565b6040516370a0823160e01b81526001600160a01b038516906370a0823190610a79903090600401611876565b60206040518083038186803b158015610a9157600080fd5b505afa158015610aa5573d6000803e3d6000fd5b505050506040513d601f19601f82011682018060405250810190610ac991906117cb565b6040518363ffffffff1660e01b8152600401610ae69291906118b3565b602060405180830381600087803b158015610b0057600080fd5b505af1158015610b14573d6000803e3d6000fd5b505050506040513d601f19601f82011682018060405250810190610b389190611772565b610b545760405162461bcd60e51b8152600401610279906119ac565b505b7f8b08e29b6d8230eac33ee2a434b338e6589507f4f1082daa4042159a06333345308342604051610b8993929190611964565b60405180910390a1505050565b610b9e610f4c565b6000610ba8611085565b9050806001600160a01b031663a9059cbb610bc1610e6c565b6040516370a0823160e01b81526001600160a01b038516906370a0823190610bed903090600401611876565b60206040518083038186803b158015610c0557600080fd5b505afa158015610c19573d6000803e3d6000fd5b505050506040513d601f19601f82011682018060405250810190610c3d91906117cb565b6040518363ffffffff1660e01b8152600401610c5a9291906118b3565b602060405180830381600087803b158015610c7457600080fd5b505af1158015610c88573d6000803e3d6000fd5b505050506040513d601f19601f82011682018060405250810190610cac9190611772565b610cc85760405162461bcd60e51b815260040161027990611ae5565b610cd0610e6c565b6001600160a01b0316ff5b600c5460ff1690565b600e8181548110610cf457600080fd5b906000526020600020016000915090508054610d0f90611d00565b80601f0160208091040260200160405190810160405280929190818152602001828054610d3b90611d00565b8015610d885780601f10610d5d57610100808354040283529160200191610d88565b820191906000526020600020905b815481529060010190602001808311610d6b57829003601f168201915b505050505081565b600a8181548110610da057600080fd5b6000918252602090912001546001600160a01b0316905081565b600c5460ff1681565b600f5481565b60096020526000908152604090205481565b6007546001600160a01b03163314610e055760405162461bcd60e51b8152600401610279906119f4565b600680546001600160a01b0319808216339081179093556007805490911690556040516001600160a01b03909116919082907f8be0079c531659141344cd1fd0a4f28419497f9722a3daafe3b4186f6b6457e090600090a350565b600f5490565b600b5490565b6006546001600160a01b031690565b610e83610f4c565b6008829055610e9181611094565b5050565b610e9d610f4c565b600a8054600180820183557fc65a7bb8d6351c1cf70c95a316cc6a92839c986682d98bc35f958f4883f9d2a890910180546001600160a01b0319166001600160a01b038616179055600b805480830182556000919091527f0175b7a638427703f0dbe7bb9bbf987a2551717b34e79f33b5b1008d1fa01db9018390559054610f259190611ce9565b6000918252600960205260409091205550565b610f40610f4c565b610f49816110b6565b50565b6006546001600160a01b03163314610f765760405162461bcd60e51b815260040161027990611a67565b565b610f806116c4565b610f886116c4565b610f9481868686611131565b9150505b9392505050565b6080830151610fae908361116e565b610fbb8360800151611185565b60005b815181101561101757611005828281518110610fea57634e487b7160e01b600052603260045260246000fd5b6020026020010151856080015161116e90919063ffffffff16565b8061100f81611d35565b915050610fbe565b506110258360800151611190565b505050565b6080830151611039908361116e565b6080830151611025908261116e565b6080830151611057908361116e565b6080830151611025908261119b565b600061107d84848460016320214ca360e11b6111a7565b949350505050565b6002546001600160a01b031690565b600280546001600160a01b0319166001600160a01b0392909216919091179055565b6001600160a01b0381163314156110df5760405162461bcd60e51b815260040161027990611b11565b600780546001600160a01b0319166001600160a01b03838116918217909255600654604051919216907fed8889f560326eb138920d842192f0eb3dd22b4f139c87a2c57538e05bae127890600090a350565b6111396116c4565b6111498560800151610100611362565b50509183526001600160a01b031660208301526001600160e01b031916604082015290565b61117b82600383516113c0565b611025828261149a565b610f498160046114b4565b610f498160076114b4565b610e91826000836113c0565b6000306004546040516020016111be929190611859565b60408051808303601f19018152918152815160209283012060045460608901526000818152600590935281832080546001600160a01b0319166001600160a01b038b16179055905190925082917fb5e6e01e79f91267dc17b4e6314d5d4d03593d2ceee0fbb452b750bd70ea5af991a2600082600080886000015189602001518a604001518b606001518a8d60800151600001516040516024016112699897969594939291906118cc565b60408051601f198184030181529181526020820180516001600160e01b03166001600160e01b0319909416939093179092526002549151630200057560e51b81529092506001600160a01b0390911690634000aea0906112d1908a9089908690600401611934565b602060405180830381600087803b1580156112eb57600080fd5b505af11580156112ff573d6000803e3d6000fd5b505050506040513d601f19601f820116820180604052508101906113239190611772565b61133f5760405162461bcd60e51b815260040161027990611a24565b6001600460008282546113529190611b8a565b9091555091979650505050505050565b61136a6116f9565b611375602083611d50565b1561139d57611385602083611d50565b611390906020611ce9565b61139a9083611b8a565b91505b506020808301829052604080518085526000815283019091019052815b92915050565b601781116113e1576113db8360e0600585901b1683176114c5565b50611025565b60ff811161140b576113fe836018611fe0600586901b16176114c5565b506113db838260016114dd565b61ffff811161143657611429836019611fe0600586901b16176114c5565b506113db838260026114dd565b63ffffffff81116114635761145683601a611fe0600586901b16176114c5565b506113db838260046114dd565b67ffffffffffffffff81116110255761148783601b611fe0600586901b16176114c5565b50611494838260086114dd565b50505050565b6114a26116f9565b610f98838460000151518485516114f6565b61102582601f611fe0600585901b16175b6114cd6116f9565b610f9883846000015151846115d3565b6114e56116f9565b61107d848560000151518585611622565b6114fe6116f9565b825182111561150c57600080fd5b602085015161151b8386611b8a565b111561154e5761154e8561153e876020015187866115399190611b8a565b611696565b611549906002611cca565b6116ad565b60008086518051876020830101935080888701111561156d5787860182525b505050602084015b602084106115ad578051825261158c602083611b8a565b9150611599602082611b8a565b90506115a6602085611ce9565b9350611575565b51815160001960208690036101000a019081169019919091161790525083949350505050565b6115db6116f9565b836020015183106115fb576115fb84856020015160026115499190611cca565b835180516020858301018481535080851415611618576001810182525b5093949350505050565b61162a6116f9565b60208501516116398584611b8a565b111561164d5761164d8561153e8685611b8a565b6000600161165d84610100611bfc565b6116679190611ce9565b905085518386820101858319825116178152508051848701111561168b5783860181525b509495945050505050565b6000818311156116a75750816113ba565b50919050565b81516116b98383611362565b50611494838261149a565b6040805160a0810182526000808252602082018190529181018290526060810191909152608081016116f46116f9565b905290565b604051806040016040528060608152602001600081525090565b80356001600160a01b038116811461172a57600080fd5b919050565b600060208284031215611740578081fd5b610f9882611713565b6000806040838503121561175b578081fd5b61176483611713565b946020939093013593505050565b600060208284031215611783578081fd5b81518015158114610f98578182fd5b6000602082840312156117a3578081fd5b5035919050565b600080604083850312156117bc578182fd5b50508035926020909101359150565b6000602082840312156117dc578081fd5b5051919050565b600080604083850312156117f5578182fd5b8235915061180560208401611713565b90509250929050565b60008151808452815b8181101561183357602081850181015186830182015201611817565b818111156118445782602083870101525b50601f01601f19169290920160200192915050565b60609290921b6001600160601b0319168252601482015260340190565b6001600160a01b0391909116815260200190565b6001600160a01b0394851681529290931660208301526040820152606081019190915260800190565b6001600160a01b03929092168252602082015260400190565b6001600160a01b0389811682526020820189905260408201889052861660608201526001600160e01b03198516608082015260a0810184905260c0810183905261010060e082018190526000906119258382018561180e565b9b9a5050505050505050505050565b600060018060a01b03851682528360208301526060604083015261195b606083018461180e565b95945050505050565b6001600160a01b039390931683526020830191909152604082015260600190565b901515815260200190565b90815260200190565b600060208252610f98602083018461180e565b60208082526028908201527f556e61626c6520746f207472616e736665722072656d61696e696e67204c494e6040820152674b20746f6b656e7360c01b606082015260800190565b60208082526016908201527526bab9ba10313290383937b837b9b2b21037bbb732b960511b604082015260600190565b60208082526023908201527f756e61626c6520746f207472616e73666572416e6443616c6c20746f206f7261604082015262636c6560e81b606082015260800190565b60208082526016908201527527b7363c9031b0b63630b1363290313c9037bbb732b960511b604082015260600190565b6020808252602e908201527f756e61626c6520746f2063616c6c20756e74696c20636f76657261676520706560408201526d1c9a5bd9081a185cc8195b99195960921b606082015260800190565b6020808252601290820152712ab730b13632903a37903a3930b739b332b960711b604082015260600190565b60208082526017908201527621b0b73737ba103a3930b739b332b9103a379039b2b63360491b604082015260600190565b60208082526028908201527f536f75726365206d75737420626520746865206f7261636c65206f6620746865604082015267081c995c5d595cdd60c21b606082015260800190565b60008219821115611b9d57611b9d611d64565b500190565b600082611bb157611bb1611d7a565b500490565b80825b6001808611611bc85750611bf3565b818704821115611bda57611bda611d64565b80861615611be757918102915b9490941c938002611bb9565b94509492505050565b6000610f986000198484600082611c1557506001610f98565b81611c2257506000610f98565b8160018114611c385760028114611c4257611c6f565b6001915050610f98565b60ff841115611c5357611c53611d64565b6001841b915084821115611c6957611c69611d64565b50610f98565b5060208310610133831016604e8410600b8410161715611ca2575081810a83811115611c9d57611c9d611d64565b610f98565b611caf8484846001611bb6565b808604821115611cc157611cc1611d64565b02949350505050565b6000816000190483118215151615611ce457611ce4611d64565b500290565b600082821015611cfb57611cfb611d64565b500390565b600281046001821680611d1457607f821691505b602082108114156116a757634e487b7160e01b600052602260045260246000fd5b6000600019821415611d4957611d49611d64565b5060010190565b600082611d5f57611d5f611d7a565b500690565b634e487b7160e01b600052601160045260246000fd5b634e487b7160e01b600052601260045260246000fdfea264697066735822122080f877df3a9b6d0151ee1183092118c50f9306be4bbd2d4d6473900a407d003b64736f6c63430008000033",
  "linkReferences": {},
  "deployedLinkReferences": {}
}