{
  "_format": "hh-sol-artifact-1",
  "contractName": "CubanBlizzardOption",
  "sourceName": "contracts/CubanBlizzardDerivativeFactory.sol",
  "abi": [
    {
      "inputs": [],
      "stateMutability": "nonpayable",
      "type": "constructor"
    },
    {
      "anonymous": false,
      "inputs": [
        {
          "indexed": true,
          "internalType": "bytes32",
          "name": "id",
          "type": "bytes32"
        }
      ],
      "name": "ChainlinkCancelled",
      "type": "event"
    },
    {
      "anonymous": false,
      "inputs": [
        {
          "indexed": true,
          "internalType": "bytes32",
          "name": "id",
          "type": "bytes32"
        }
      ],
      "name": "ChainlinkFulfilled",
      "type": "event"
    },
    {
      "anonymous": false,
      "inputs": [
        {
          "indexed": true,
          "internalType": "bytes32",
          "name": "id",
          "type": "bytes32"
        }
      ],
      "name": "ChainlinkRequested",
      "type": "event"
    },
    {
      "anonymous": false,
      "inputs": [
        {
          "indexed": true,
          "internalType": "address",
          "name": "from",
          "type": "address"
        },
        {
          "indexed": true,
          "internalType": "address",
          "name": "to",
          "type": "address"
        }
      ],
      "name": "OwnershipTransferRequested",
      "type": "event"
    },
    {
      "anonymous": false,
      "inputs": [
        {
          "indexed": true,
          "internalType": "address",
          "name": "from",
          "type": "address"
        },
        {
          "indexed": true,
          "internalType": "address",
          "name": "to",
          "type": "address"
        }
      ],
      "name": "OwnershipTransferred",
      "type": "event"
    },
    {
      "anonymous": false,
      "inputs": [
        {
          "indexed": false,
          "internalType": "address",
          "name": "_contract",
          "type": "address"
        },
        {
          "indexed": false,
          "internalType": "uint256",
          "name": "_time",
          "type": "uint256"
        }
      ],
      "name": "contractEnded",
      "type": "event"
    },
    {
      "anonymous": false,
      "inputs": [
        {
          "indexed": false,
          "internalType": "address",
          "name": "_contract",
          "type": "address"
        },
        {
          "indexed": false,
          "internalType": "uint256",
          "name": "_payout",
          "type": "uint256"
        },
        {
          "indexed": false,
          "internalType": "uint256",
          "name": "_time",
          "type": "uint256"
        }
      ],
      "name": "evaluationRequestFulfilled",
      "type": "event"
    },
    {
      "anonymous": false,
      "inputs": [
        {
          "indexed": false,
          "internalType": "address",
          "name": "_contract",
          "type": "address"
        },
        {
          "indexed": false,
          "internalType": "address",
          "name": "_oracle",
          "type": "address"
        },
        {
          "indexed": false,
          "internalType": "bytes32",
          "name": "_request",
          "type": "bytes32"
        },
        {
          "indexed": false,
          "internalType": "uint256",
          "name": "_time",
          "type": "uint256"
        }
      ],
      "name": "evaluationRequestSent",
      "type": "event"
    },
    {
      "inputs": [],
      "name": "acceptOwnership",
      "outputs": [],
      "stateMutability": "nonpayable",
      "type": "function"
    },
    {
      "inputs": [
        {
          "internalType": "address",
          "name": "_oracle",
          "type": "address"
        },
        {
          "internalType": "bytes32",
          "name": "_job",
          "type": "bytes32"
        }
      ],
      "name": "addOracleJob",
      "outputs": [],
      "stateMutability": "nonpayable",
      "type": "function"
    },
    {
      "inputs": [],
      "name": "contractEvaluated",
      "outputs": [
        {
          "internalType": "bool",
          "name": "",
          "type": "bool"
        }
      ],
      "stateMutability": "view",
      "type": "function"
    },
    {
      "inputs": [
        {
          "internalType": "uint256",
          "name": "",
          "type": "uint256"
        }
      ],
      "name": "dates",
      "outputs": [
        {
          "internalType": "string",
          "name": "",
          "type": "string"
        }
      ],
      "stateMutability": "view",
      "type": "function"
    },
    {
      "inputs": [],
      "name": "endContractInstance",
      "outputs": [],
      "stateMutability": "nonpayable",
      "type": "function"
    },
    {
      "inputs": [
        {
          "internalType": "bytes32",
          "name": "_requestId",
          "type": "bytes32"
        },
        {
          "internalType": "uint256",
          "name": "_result",
          "type": "uint256"
        }
      ],
      "name": "fulfillPayoutEvaluation",
      "outputs": [],
      "stateMutability": "nonpayable",
      "type": "function"
    },
    {
      "inputs": [],
      "name": "getNumJobs",
      "outputs": [
        {
          "internalType": "uint256",
          "name": "",
          "type": "uint256"
        }
      ],
      "stateMutability": "view",
      "type": "function"
    },
    {
      "inputs": [
        {
          "internalType": "uint256",
          "name": "_oraclePayment",
          "type": "uint256"
        },
        {
          "internalType": "address",
          "name": "_link",
          "type": "address"
        }
      ],
      "name": "initialize",
      "outputs": [],
      "stateMutability": "nonpayable",
      "type": "function"
    },
    {
      "inputs": [
        {
          "internalType": "uint256",
          "name": "",
          "type": "uint256"
        }
      ],
      "name": "jobs",
      "outputs": [
        {
          "internalType": "bytes32",
          "name": "",
          "type": "bytes32"
        }
      ],
      "stateMutability": "view",
      "type": "function"
    },
    {
      "inputs": [
        {
          "internalType": "bytes32",
          "name": "",
          "type": "bytes32"
        }
      ],
      "name": "oracleMap",
      "outputs": [
        {
          "internalType": "uint256",
          "name": "",
          "type": "uint256"
        }
      ],
      "stateMutability": "view",
      "type": "function"
    },
    {
      "inputs": [
        {
          "internalType": "uint256",
          "name": "",
          "type": "uint256"
        }
      ],
      "name": "oracles",
      "outputs": [
        {
          "internalType": "address",
          "name": "",
          "type": "address"
        }
      ],
      "stateMutability": "view",
      "type": "function"
    },
    {
      "inputs": [],
      "name": "owner",
      "outputs": [
        {
          "internalType": "address",
          "name": "",
          "type": "address"
        }
      ],
      "stateMutability": "view",
      "type": "function"
    },
    {
      "inputs": [],
      "name": "payout",
      "outputs": [
        {
          "internalType": "uint256",
          "name": "",
          "type": "uint256"
        }
      ],
      "stateMutability": "view",
      "type": "function"
    },
    {
      "inputs": [
        {
          "internalType": "bytes32",
          "name": "_job",
          "type": "bytes32"
        }
      ],
      "name": "removeOracleJob",
      "outputs": [],
      "stateMutability": "nonpayable",
      "type": "function"
    },
    {
      "inputs": [],
      "name": "requestPayoutEvaluation",
      "outputs": [],
      "stateMutability": "nonpayable",
      "type": "function"
    },
    {
      "inputs": [
        {
          "internalType": "address",
          "name": "to",
          "type": "address"
        }
      ],
      "name": "transferOwnership",
      "outputs": [],
      "stateMutability": "nonpayable",
      "type": "function"
    }
  ],
  "bytecode": "0x608060405260016004553480156200001657600080fd5b503380600081620000445760405162461bcd60e51b81526004016200003b906200084c565b60405180910390fd5b600680546001600160a01b0319166001600160a01b03848116919091179091558116156200007757620000778162000662565b50506000600f5550600c805460ff19169055604080516105a081018252600a6105608201818152691918191896989816981b60b11b610580840152825282518084018452818152690646064625a62605a60760b31b6020828101919091528084019190915283518085018552828152691918191896989816991b60b11b818301528385015283518085018552828152690646064625a62605a64760b31b8183015260608401528351808501855282815269323032312d31302d333160b01b81830152608084015283518085018552828152691918191896989896981960b11b8183015260a084015283518085018552828152691918191896989896981b60b11b8183015260c084015283518085018552828152690646064625a62625a60760b31b8183015260e08401528351808501855282815269323032312d31312d313560b01b818301526101008401528351808501855282815269323032312d31312d323760b01b818301526101208401528351808501855282815269323032312d31312d323960b01b818301526101408401528351808501855282815269323032312d31322d303360b01b8183015261016084015283518085018552828152690c8c0c8c4b4c4c8b4c0d60b21b818301526101808401528351808501855282815269323032312d31322d303760b01b818301526101a08401528351808501855282815269323032312d31322d313360b01b818301526101c08401528351808501855282815269323032312d31322d313560b01b818301526101e08401528351808501855282815269323032312d31322d323160b01b818301526102008401528351808501855282815269323032312d31322d323360b01b818301526102208401528351808501855282815269323032322d30312d303360b01b818301526102408401528351808501855282815269323032322d30312d303560b01b818301526102608401528351808501855282815269323032322d30312d303960b01b818301526102808401528351808501855282815269323032322d30312d313560b01b818301526102a08401528351808501855282815269323032322d30312d313760b01b818301526102c08401528351808501855282815269323032322d30312d313960b01b818301526102e084015283518085018552828152690323032322d30312d32360b41b818301526103008401528351808501855282815269323032322d30312d323360b01b818301526103208401528351808501855282815269323032322d30312d323960b01b8183015261034084015283518085018552828152691918191916981916981960b11b8183015261036084015283518085018552828152690c8c0c8c8b4c0c8b4c0d60b21b8183015261038084015283518085018552828152691918191916981916981b60b11b818301526103a084015283518085018552828152690646064645a60645a60760b31b818301526103c084015283518085018552828152690323032322d30322d31360b41b818301526103e084015283518085018552828152691918191916981916989960b11b818301526104008401528351808501855282815269323032322d30332d303360b01b818301526104208401528351808501855282815269323032322d30332d303560b01b818301526104408401528351808501855282815269323032322d30332d303760b01b818301526104608401528351808501855282815269323032322d30332d303960b01b818301526104808401528351808501855282815269323032322d30332d323160b01b818301526104a08401528351808501855282815269323032322d30332d323360b01b818301526104c08401528351808501855282815269323032322d30332d323760b01b818301526104e08401528351808501855282815269323032322d30332d323960b01b8183015261050084015283518085018552828152690646064645a60685a60760b31b818301526105208401528351808501909452908352690323032322d30342d31360b41b908301526105408101919091526200065b90600e90602b620006e0565b50620008f7565b6001600160a01b0381163314156200068e5760405162461bcd60e51b81526004016200003b9062000883565b600780546001600160a01b0319166001600160a01b03838116918217909255600654604051919216907fed8889f560326eb138920d842192f0eb3dd22b4f139c87a2c57538e05bae127890600090a350565b82805482825590600052602060002090810192821562000732579160200282015b828111156200073257825180516200072191849160209091019062000744565b509160200191906001019062000701565b5062000740929150620007cf565b5090565b8280546200075290620008ba565b90600052602060002090601f016020900481019282620007765760008555620007c1565b82601f106200079157805160ff1916838001178555620007c1565b82800160010185558215620007c1579182015b82811115620007c1578251825591602001919060010190620007a4565b5062000740929150620007f0565b8082111562000740576000620007e6828262000807565b50600101620007cf565b5b80821115620007405760008155600101620007f1565b5080546200081590620008ba565b6000825580601f1062000829575062000849565b601f016020900490600052602060002090810190620008499190620007f0565b50565b60208082526018908201527f43616e6e6f7420736574206f776e657220746f207a65726f0000000000000000604082015260600190565b60208082526017908201527f43616e6e6f74207472616e7366657220746f2073656c66000000000000000000604082015260600190565b600281046001821680620008cf57607f821691505b60208210811415620008f157634e487b7160e01b600052602260045260246000fd5b50919050565b611e1f80620009076000396000f3fe608060405234801561001057600080fd5b50600436106100e05760003560e01c806363bd1d4a1161008757806363bd1d4a1461019b57806364f1cb74146101a357806379ba5097146101b65780637e0c00ed146101be5780638da5cb5b146101c6578063da35a26f146101ce578063ddc97227146101e1578063f2fde38b146101f4576100e0565b8063180aedf3146100e5578063186395cf1461010e5780633612820d146101185780633c54689f1461012b578063461cf76f1461013e5780635133ae24146101465780635b69a7d814610166578063602f144b14610186575b600080fd5b6100f86100f33660046117eb565b610207565b60405161010591906119e9565b60405180910390f35b610116610228565b005b6101166101263660046117eb565b61075a565b610116610139366004611803565b6109bc565b610116610c02565b6101596101543660046117eb565b610d47565b60405161010591906119f2565b6101796101743660046117eb565b610df3565b60405161010591906118cf565b61018e610e1d565b60405161010591906119de565b6100f8610e26565b6100f86101b13660046117eb565b610e2c565b610116610e3e565b6100f8610ec3565b610179610ec9565b6101166101dc36600461183c565b610ed8565b6101166101ef3660046117a2565b610eee565b610116610202366004611788565b610f91565b600b818154811061021757600080fd5b600091825260209091200154905081565b610230610fa5565b42636253a7c01061025c5760405162461bcd60e51b815260040161025390611af0565b60405180910390fd5b7ff1c35e3933051ea28efca558462a55cac66003050f2c6f4e96833a696fa444e2304260405161028d92919061190c565b60405180910390a1600854600a805460408051602080840282018101909252828152600093909290918301828280156102ef57602002820191906000526020600020905b81546001600160a01b031681526001909101906020018083116102d1575b505050505090506000600b80548060200260200160405190810160405280929190818152602001828054801561034457602002820191906000526020600020905b815481526020019060010190808311610330575b505050505090506000600e805480602002602001604051908101604052809291908181526020016000905b8282101561041b57838290600052602060002001805461038e90611d59565b80601f01602080910402602001604051908101604052809291908181526020018280546103ba90611d59565b80156104075780601f106103dc57610100808354040283529160200191610407565b820191906000526020600020905b8154815290600101906020018083116103ea57829003601f168201915b50505050508152602001906001019061036f565b5050505090506000805b8451811461075057600061046885838151811061045257634e487b7160e01b600052603260045260246000fd5b602002602001015130633c54689f60e01b610fd1565b604080518082019091526005815264646174657360d81b602082015290915061049390829086610ff8565b6104ed6040518060400160405280600a8152602001691cdd185d1a5bdb97da5960b21b8152506040518060400160405280600b81526020016a555357303030303339323760a81b815250836110839092919063ffffffff16565b6105466040518060400160405280601081526020016f776561746865725f7661726961626c6560801b81525060405180604001604052806004815260200163534e4f5760e01b815250836110839092919063ffffffff16565b6105976040518060400160405280600781526020016619185d185cd95d60ca1b8152506040518060400160405280600581526020016419da18db9960da1b815250836110839092919063ffffffff16565b6105e8604051806040016040528060088152602001676f70745f7479706560c01b8152506040518060400160405280600481526020016310d0531360e21b815250836110839092919063ffffffff16565b604080518082019091526006815265737472696b6560d01b602082015261061290829060006110a1565b6040805180820190915260058152641b1a5b5a5d60da1b602082015261063d9082906203d0906110a1565b6040805180820190915260048152637469636b60e01b60208201526106679082906203d0906110a1565b6040805180820190915260098152681d1a1c995cda1bdb1960ba1b602082015261069490829060066110a1565b60006106c88784815181106106b957634e487b7160e01b600052603260045260246000fd5b6020026020010151838a6110bf565b90506106d5600185611be3565b93507f8a9d8e27cea77dd32eb51cfaf81bfc3fded7c7eeec5de203c4a8ad17c930fda73088858151811061071957634e487b7160e01b600052603260045260246000fd5b6020026020010151834260405161073394939291906118e3565b60405180910390a1506107499050600182611be3565b9050610425565b50600d5550505050565b610762610fa5565b600081815260096020526040902054600b5461078090600190611d42565b81141561080257600a8054806107a657634e487b7160e01b600052603160045260246000fd5b600082815260209020810160001990810180546001600160a01b0319169055019055600b8054806107e757634e487b7160e01b600052603160045260246000fd5b600190038181906000526020600020016000905590556109b8565b600a805461081290600190611d42565b8154811061083057634e487b7160e01b600052603260045260246000fd5b600091825260209091200154600a80546001600160a01b03909216918390811061086a57634e487b7160e01b600052603260045260246000fd5b9060005260206000200160006101000a8154816001600160a01b0302191690836001600160a01b03160217905550600a8054806108b757634e487b7160e01b600052603160045260246000fd5b600082815260209020810160001990810180546001600160a01b0319169055019055600b80546108e990600190611d42565b8154811061090757634e487b7160e01b600052603260045260246000fd5b9060005260206000200154600b828154811061093357634e487b7160e01b600052603260045260246000fd5b600091825260209091200155600b80548061095e57634e487b7160e01b600052603160045260246000fd5b600190038181906000526020600020016000905590558060096000600b848154811061099a57634e487b7160e01b600052603260045260246000fd5b90600052602060002001548152602001908152602001600020819055505b5050565b60008281526005602052604090205482906001600160a01b031633146109f45760405162461bcd60e51b815260040161025390611b9b565b60008181526005602052604080822080546001600160a01b03191690555182917f7cc135e0cebb02c3480ae5d74d377283180a2601f8f644edf7987b009316c63a91a281600f6000828254610a499190611be3565b925050819055506001600d6000828254610a639190611d42565b9091555050600d54610bc257600a54600f8054600090610a84908490611bfb565b9091555050600c805460ff191660011790556000610aa06110de565b9050806001600160a01b031663a9059cbb610ab9610ec9565b6040516370a0823160e01b81526001600160a01b038516906370a0823190610ae59030906004016118cf565b60206040518083038186803b158015610afd57600080fd5b505afa158015610b11573d6000803e3d6000fd5b505050506040513d601f19601f82011682018060405250810190610b359190611824565b6040518363ffffffff1660e01b8152600401610b5292919061190c565b602060405180830381600087803b158015610b6c57600080fd5b505af1158015610b80573d6000803e3d6000fd5b505050506040513d601f19601f82011682018060405250810190610ba491906117cb565b610bc05760405162461bcd60e51b815260040161025390611a05565b505b7f8b08e29b6d8230eac33ee2a434b338e6589507f4f1082daa4042159a06333345308342604051610bf5939291906119bd565b60405180910390a1505050565b610c0a610fa5565b6000610c146110de565b9050806001600160a01b031663a9059cbb610c2d610ec9565b6040516370a0823160e01b81526001600160a01b038516906370a0823190610c599030906004016118cf565b60206040518083038186803b158015610c7157600080fd5b505afa158015610c85573d6000803e3d6000fd5b505050506040513d601f19601f82011682018060405250810190610ca99190611824565b6040518363ffffffff1660e01b8152600401610cc692919061190c565b602060405180830381600087803b158015610ce057600080fd5b505af1158015610cf4573d6000803e3d6000fd5b505050506040513d601f19601f82011682018060405250810190610d1891906117cb565b610d345760405162461bcd60e51b815260040161025390611b3e565b610d3c610ec9565b6001600160a01b0316ff5b600e8181548110610d5757600080fd5b906000526020600020016000915090508054610d7290611d59565b80601f0160208091040260200160405190810160405280929190818152602001828054610d9e90611d59565b8015610deb5780601f10610dc057610100808354040283529160200191610deb565b820191906000526020600020905b815481529060010190602001808311610dce57829003601f168201915b505050505081565b600a8181548110610e0357600080fd5b6000918252602090912001546001600160a01b0316905081565b600c5460ff1681565b600f5481565b60096020526000908152604090205481565b6007546001600160a01b03163314610e685760405162461bcd60e51b815260040161025390611a4d565b600680546001600160a01b0319808216339081179093556007805490911690556040516001600160a01b03909116919082907f8be0079c531659141344cd1fd0a4f28419497f9722a3daafe3b4186f6b6457e090600090a350565b600b5490565b6006546001600160a01b031690565b610ee0610fa5565b60088290556109b8816110ed565b610ef6610fa5565b600a8054600180820183557fc65a7bb8d6351c1cf70c95a316cc6a92839c986682d98bc35f958f4883f9d2a890910180546001600160a01b0319166001600160a01b038616179055600b805480830182556000919091527f0175b7a638427703f0dbe7bb9bbf987a2551717b34e79f33b5b1008d1fa01db9018390559054610f7e9190611d42565b6000918252600960205260409091205550565b610f99610fa5565b610fa28161110f565b50565b6006546001600160a01b03163314610fcf5760405162461bcd60e51b815260040161025390611ac0565b565b610fd961171d565b610fe161171d565b610fed8186868661118a565b9150505b9392505050565b608083015161100790836111c7565b61101483608001516111de565b60005b81518110156110705761105e82828151811061104357634e487b7160e01b600052603260045260246000fd5b602002602001015185608001516111c790919063ffffffff16565b8061106881611d8e565b915050611017565b5061107e83608001516111e9565b505050565b608083015161109290836111c7565b608083015161107e90826111c7565b60808301516110b090836111c7565b608083015161107e90826111f4565b60006110d684848460016320214ca360e11b611200565b949350505050565b6002546001600160a01b031690565b600280546001600160a01b0319166001600160a01b0392909216919091179055565b6001600160a01b0381163314156111385760405162461bcd60e51b815260040161025390611b6a565b600780546001600160a01b0319166001600160a01b03838116918217909255600654604051919216907fed8889f560326eb138920d842192f0eb3dd22b4f139c87a2c57538e05bae127890600090a350565b61119261171d565b6111a285608001516101006113bb565b50509183526001600160a01b031660208301526001600160e01b031916604082015290565b6111d48260038351611419565b61107e82826114f3565b610fa281600461150d565b610fa281600761150d565b6109b882600083611419565b6000306004546040516020016112179291906118b2565b60408051808303601f19018152918152815160209283012060045460608901526000818152600590935281832080546001600160a01b0319166001600160a01b038b16179055905190925082917fb5e6e01e79f91267dc17b4e6314d5d4d03593d2ceee0fbb452b750bd70ea5af991a2600082600080886000015189602001518a604001518b606001518a8d60800151600001516040516024016112c2989796959493929190611925565b60408051601f198184030181529181526020820180516001600160e01b03166001600160e01b0319909416939093179092526002549151630200057560e51b81529092506001600160a01b0390911690634000aea09061132a908a908990869060040161198d565b602060405180830381600087803b15801561134457600080fd5b505af1158015611358573d6000803e3d6000fd5b505050506040513d601f19601f8201168201806040525081019061137c91906117cb565b6113985760405162461bcd60e51b815260040161025390611a7d565b6001600460008282546113ab9190611be3565b9091555091979650505050505050565b6113c3611752565b6113ce602083611da9565b156113f6576113de602083611da9565b6113e9906020611d42565b6113f39083611be3565b91505b506020808301829052604080518085526000815283019091019052815b92915050565b6017811161143a576114348360e0600585901b16831761151e565b5061107e565b60ff811161146457611457836018611fe0600586901b161761151e565b5061143483826001611536565b61ffff811161148f57611482836019611fe0600586901b161761151e565b5061143483826002611536565b63ffffffff81116114bc576114af83601a611fe0600586901b161761151e565b5061143483826004611536565b67ffffffffffffffff811161107e576114e083601b611fe0600586901b161761151e565b506114ed83826008611536565b50505050565b6114fb611752565b610ff18384600001515184855161154f565b61107e82601f611fe0600585901b16175b611526611752565b610ff1838460000151518461162c565b61153e611752565b6110d684856000015151858561167b565b611557611752565b825182111561156557600080fd5b60208501516115748386611be3565b11156115a7576115a785611597876020015187866115929190611be3565b6116ef565b6115a2906002611d23565b611706565b6000808651805187602083010193508088870111156115c65787860182525b505050602084015b6020841061160657805182526115e5602083611be3565b91506115f2602082611be3565b90506115ff602085611d42565b93506115ce565b51815160001960208690036101000a019081169019919091161790525083949350505050565b611634611752565b836020015183106116545761165484856020015160026115a29190611d23565b835180516020858301018481535080851415611671576001810182525b5093949350505050565b611683611752565b60208501516116928584611be3565b11156116a6576116a6856115978685611be3565b600060016116b684610100611c55565b6116c09190611d42565b90508551838682010185831982511617815250805184870111156116e45783860181525b509495945050505050565b600081831115611700575081611413565b50919050565b815161171283836113bb565b506114ed83826114f3565b6040805160a08101825260008082526020820181905291810182905260608101919091526080810161174d611752565b905290565b604051806040016040528060608152602001600081525090565b80356001600160a01b038116811461178357600080fd5b919050565b600060208284031215611799578081fd5b610ff18261176c565b600080604083850312156117b4578081fd5b6117bd8361176c565b946020939093013593505050565b6000602082840312156117dc578081fd5b81518015158114610ff1578182fd5b6000602082840312156117fc578081fd5b5035919050565b60008060408385031215611815578182fd5b50508035926020909101359150565b600060208284031215611835578081fd5b5051919050565b6000806040838503121561184e578182fd5b8235915061185e6020840161176c565b90509250929050565b60008151808452815b8181101561188c57602081850181015186830182015201611870565b8181111561189d5782602083870101525b50601f01601f19169290920160200192915050565b60609290921b6001600160601b0319168252601482015260340190565b6001600160a01b0391909116815260200190565b6001600160a01b0394851681529290931660208301526040820152606081019190915260800190565b6001600160a01b03929092168252602082015260400190565b6001600160a01b0389811682526020820189905260408201889052861660608201526001600160e01b03198516608082015260a0810184905260c0810183905261010060e0820181905260009061197e83820185611867565b9b9a5050505050505050505050565b600060018060a01b0385168252836020830152606060408301526119b46060830184611867565b95945050505050565b6001600160a01b039390931683526020830191909152604082015260600190565b901515815260200190565b90815260200190565b600060208252610ff16020830184611867565b60208082526028908201527f556e61626c6520746f207472616e736665722072656d61696e696e67204c494e6040820152674b20746f6b656e7360c01b606082015260800190565b60208082526016908201527526bab9ba10313290383937b837b9b2b21037bbb732b960511b604082015260600190565b60208082526023908201527f756e61626c6520746f207472616e73666572416e6443616c6c20746f206f7261604082015262636c6560e81b606082015260800190565b60208082526016908201527527b7363c9031b0b63630b1363290313c9037bbb732b960511b604082015260600190565b6020808252602e908201527f756e61626c6520746f2063616c6c20756e74696c20636f76657261676520706560408201526d1c9a5bd9081a185cc8195b99195960921b606082015260800190565b6020808252601290820152712ab730b13632903a37903a3930b739b332b960711b604082015260600190565b60208082526017908201527621b0b73737ba103a3930b739b332b9103a379039b2b63360491b604082015260600190565b60208082526028908201527f536f75726365206d75737420626520746865206f7261636c65206f6620746865604082015267081c995c5d595cdd60c21b606082015260800190565b60008219821115611bf657611bf6611dbd565b500190565b600082611c0a57611c0a611dd3565b500490565b80825b6001808611611c215750611c4c565b818704821115611c3357611c33611dbd565b80861615611c4057918102915b9490941c938002611c12565b94509492505050565b6000610ff16000198484600082611c6e57506001610ff1565b81611c7b57506000610ff1565b8160018114611c915760028114611c9b57611cc8565b6001915050610ff1565b60ff841115611cac57611cac611dbd565b6001841b915084821115611cc257611cc2611dbd565b50610ff1565b5060208310610133831016604e8410600b8410161715611cfb575081810a83811115611cf657611cf6611dbd565b610ff1565b611d088484846001611c0f565b808604821115611d1a57611d1a611dbd565b02949350505050565b6000816000190483118215151615611d3d57611d3d611dbd565b500290565b600082821015611d5457611d54611dbd565b500390565b600281046001821680611d6d57607f821691505b6020821081141561170057634e487b7160e01b600052602260045260246000fd5b6000600019821415611da257611da2611dbd565b5060010190565b600082611db857611db8611dd3565b500690565b634e487b7160e01b600052601160045260246000fd5b634e487b7160e01b600052601260045260246000fdfea264697066735822122013ce8daad3fd2ea436c5a02d8c574777649b49404ac9f395e7359c3b190e408064736f6c63430008000033",
  "linkReferences": {},
  "deployedLinkReferences": {}
}