{
  "_format": "hh-sol-artifact-1",
  "contractName": "CubanBlizzardDerivativeProvider",
  "sourceName": "contracts/CubanBlizzardDerivativeFactory.sol",
  "abi": [
    {
      "inputs": [],
      "stateMutability": "nonpayable",
      "type": "constructor"
    },
    {
      "anonymous": false,
      "inputs": [
        {
          "indexed": false,
          "internalType": "address",
          "name": "user",
          "type": "address"
        }
      ],
      "name": "AddedAccess",
      "type": "event"
    },
    {
      "anonymous": false,
      "inputs": [],
      "name": "CheckAccessDisabled",
      "type": "event"
    },
    {
      "anonymous": false,
      "inputs": [],
      "name": "CheckAccessEnabled",
      "type": "event"
    },
    {
      "anonymous": false,
      "inputs": [
        {
          "indexed": true,
          "internalType": "address",
          "name": "from",
          "type": "address"
        },
        {
          "indexed": true,
          "internalType": "address",
          "name": "to",
          "type": "address"
        }
      ],
      "name": "OwnershipTransferRequested",
      "type": "event"
    },
    {
      "anonymous": false,
      "inputs": [
        {
          "indexed": true,
          "internalType": "address",
          "name": "from",
          "type": "address"
        },
        {
          "indexed": true,
          "internalType": "address",
          "name": "to",
          "type": "address"
        }
      ],
      "name": "OwnershipTransferred",
      "type": "event"
    },
    {
      "anonymous": false,
      "inputs": [
        {
          "indexed": false,
          "internalType": "address",
          "name": "user",
          "type": "address"
        }
      ],
      "name": "RemovedAccess",
      "type": "event"
    },
    {
      "anonymous": false,
      "inputs": [
        {
          "indexed": false,
          "internalType": "address",
          "name": "_contract",
          "type": "address"
        },
        {
          "indexed": false,
          "internalType": "string",
          "name": "_id",
          "type": "string"
        }
      ],
      "name": "contractCreated",
      "type": "event"
    },
    {
      "inputs": [],
      "name": "COLLATERAL_ADDRESS",
      "outputs": [
        {
          "internalType": "address",
          "name": "",
          "type": "address"
        }
      ],
      "stateMutability": "view",
      "type": "function"
    },
    {
      "inputs": [],
      "name": "COLLATERAL_PAYMENT",
      "outputs": [
        {
          "internalType": "uint256",
          "name": "",
          "type": "uint256"
        }
      ],
      "stateMutability": "view",
      "type": "function"
    },
    {
      "inputs": [],
      "name": "LINK_ADDRESS",
      "outputs": [
        {
          "internalType": "address",
          "name": "",
          "type": "address"
        }
      ],
      "stateMutability": "view",
      "type": "function"
    },
    {
      "inputs": [],
      "name": "ORACLE_BANK",
      "outputs": [
        {
          "internalType": "address",
          "name": "",
          "type": "address"
        }
      ],
      "stateMutability": "view",
      "type": "function"
    },
    {
      "inputs": [],
      "name": "PREMIUM_ADDRESS",
      "outputs": [
        {
          "internalType": "address",
          "name": "",
          "type": "address"
        }
      ],
      "stateMutability": "view",
      "type": "function"
    },
    {
      "inputs": [],
      "name": "PREMIUM_PAYMENT",
      "outputs": [
        {
          "internalType": "uint256",
          "name": "",
          "type": "uint256"
        }
      ],
      "stateMutability": "view",
      "type": "function"
    },
    {
      "inputs": [],
      "name": "USDC_ADDRESS",
      "outputs": [
        {
          "internalType": "address",
          "name": "",
          "type": "address"
        }
      ],
      "stateMutability": "view",
      "type": "function"
    },
    {
      "inputs": [],
      "name": "acceptOwnership",
      "outputs": [],
      "stateMutability": "nonpayable",
      "type": "function"
    },
    {
      "inputs": [
        {
          "internalType": "address",
          "name": "_user",
          "type": "address"
        }
      ],
      "name": "addAccess",
      "outputs": [],
      "stateMutability": "nonpayable",
      "type": "function"
    },
    {
      "inputs": [
        {
          "internalType": "address",
          "name": "_oracle",
          "type": "address"
        },
        {
          "internalType": "string",
          "name": "_job",
          "type": "string"
        }
      ],
      "name": "addContractJob",
      "outputs": [],
      "stateMutability": "nonpayable",
      "type": "function"
    },
    {
      "inputs": [],
      "name": "blizzardContract",
      "outputs": [
        {
          "internalType": "contract CubanBlizzardOption",
          "name": "",
          "type": "address"
        }
      ],
      "stateMutability": "view",
      "type": "function"
    },
    {
      "inputs": [],
      "name": "checkEnabled",
      "outputs": [
        {
          "internalType": "bool",
          "name": "",
          "type": "bool"
        }
      ],
      "stateMutability": "view",
      "type": "function"
    },
    {
      "inputs": [],
      "name": "collateralDeposited",
      "outputs": [
        {
          "internalType": "bool",
          "name": "",
          "type": "bool"
        }
      ],
      "stateMutability": "view",
      "type": "function"
    },
    {
      "inputs": [],
      "name": "contractPaidOut",
      "outputs": [
        {
          "internalType": "bool",
          "name": "",
          "type": "bool"
        }
      ],
      "stateMutability": "view",
      "type": "function"
    },
    {
      "inputs": [],
      "name": "depositCollateral",
      "outputs": [],
      "stateMutability": "nonpayable",
      "type": "function"
    },
    {
      "inputs": [],
      "name": "depositPremium",
      "outputs": [],
      "stateMutability": "nonpayable",
      "type": "function"
    },
    {
      "inputs": [],
      "name": "disableAccessCheck",
      "outputs": [],
      "stateMutability": "nonpayable",
      "type": "function"
    },
    {
      "inputs": [],
      "name": "enableAccessCheck",
      "outputs": [],
      "stateMutability": "nonpayable",
      "type": "function"
    },
    {
      "inputs": [],
      "name": "endProviderContract",
      "outputs": [],
      "stateMutability": "nonpayable",
      "type": "function"
    },
    {
      "inputs": [],
      "name": "fulfillContractEvaluation",
      "outputs": [],
      "stateMutability": "nonpayable",
      "type": "function"
    },
    {
      "inputs": [],
      "name": "getContractAddress",
      "outputs": [
        {
          "internalType": "address",
          "name": "",
          "type": "address"
        }
      ],
      "stateMutability": "view",
      "type": "function"
    },
    {
      "inputs": [],
      "name": "getContractEvaluated",
      "outputs": [
        {
          "internalType": "bool",
          "name": "",
          "type": "bool"
        }
      ],
      "stateMutability": "view",
      "type": "function"
    },
    {
      "inputs": [],
      "name": "getContractPayout",
      "outputs": [
        {
          "internalType": "uint256",
          "name": "",
          "type": "uint256"
        }
      ],
      "stateMutability": "view",
      "type": "function"
    },
    {
      "inputs": [],
      "name": "getETHBalance",
      "outputs": [
        {
          "internalType": "uint256",
          "name": "",
          "type": "uint256"
        }
      ],
      "stateMutability": "view",
      "type": "function"
    },
    {
      "inputs": [],
      "name": "getLINKBalance",
      "outputs": [
        {
          "internalType": "uint256",
          "name": "",
          "type": "uint256"
        }
      ],
      "stateMutability": "view",
      "type": "function"
    },
    {
      "inputs": [],
      "name": "getUSDCBalance",
      "outputs": [
        {
          "internalType": "uint256",
          "name": "",
          "type": "uint256"
        }
      ],
      "stateMutability": "view",
      "type": "function"
    },
    {
      "inputs": [
        {
          "internalType": "address",
          "name": "_user",
          "type": "address"
        },
        {
          "internalType": "bytes",
          "name": "",
          "type": "bytes"
        }
      ],
      "name": "hasAccess",
      "outputs": [
        {
          "internalType": "bool",
          "name": "",
          "type": "bool"
        }
      ],
      "stateMutability": "view",
      "type": "function"
    },
    {
      "inputs": [],
      "name": "initiateContractEvaluation",
      "outputs": [],
      "stateMutability": "nonpayable",
      "type": "function"
    },
    {
      "inputs": [],
      "name": "owner",
      "outputs": [
        {
          "internalType": "address",
          "name": "",
          "type": "address"
        }
      ],
      "stateMutability": "view",
      "type": "function"
    },
    {
      "inputs": [],
      "name": "premiumDeposited",
      "outputs": [
        {
          "internalType": "bool",
          "name": "",
          "type": "bool"
        }
      ],
      "stateMutability": "view",
      "type": "function"
    },
    {
      "inputs": [
        {
          "internalType": "address",
          "name": "_user",
          "type": "address"
        }
      ],
      "name": "removeAccess",
      "outputs": [],
      "stateMutability": "nonpayable",
      "type": "function"
    },
    {
      "inputs": [
        {
          "internalType": "string",
          "name": "_job",
          "type": "string"
        }
      ],
      "name": "removeContractJob",
      "outputs": [],
      "stateMutability": "nonpayable",
      "type": "function"
    },
    {
      "inputs": [
        {
          "internalType": "address",
          "name": "to",
          "type": "address"
        }
      ],
      "name": "transferOwnership",
      "outputs": [],
      "stateMutability": "nonpayable",
      "type": "function"
    }
  ],
  "bytecode": "0x60806040523480156200001157600080fd5b5033806000816200003f5760405162461bcd60e51b815260040162000036906200011a565b60405180910390fd5b600080546001600160a01b0319166001600160a01b0384811691909117909155811615620000725762000072816200009d565b50506001805460ff60a01b1916600160a01b179055506003805462ffffff60a01b1916905562000188565b6001600160a01b038116331415620000c95760405162461bcd60e51b8152600401620000369062000151565b600180546001600160a01b0319166001600160a01b0383811691821790925560008054604051929316917fed8889f560326eb138920d842192f0eb3dd22b4f139c87a2c57538e05bae12789190a350565b60208082526018908201527f43616e6e6f7420736574206f776e657220746f207a65726f0000000000000000604082015260600190565b60208082526017908201527f43616e6e6f74207472616e7366657220746f2073656c66000000000000000000604082015260600190565b614d4280620001986000396000f3fe60806040523480156200001157600080fd5b5060043610620001e35760003560e01c80636f7581401162000111578063ac428e7a11620000ab578063ac428e7a1462000351578063b57d1d9b146200035b578063bb09d9b71462000365578063c47da4ff146200036f578063d11e78011462000379578063dc7f01241462000383578063ed08d8eb146200038d578063f046a97f1462000397578063f2fde38b14620003a157620001e3565b80636f75814014620002e757806379ba509714620002f15780638038e4a114620002fb578063849aead814620003055780638823da6c146200030f5780638da5cb5b146200032657806391cb6e711462000330578063a118f249146200033a57620001e3565b80633b5868bd11620001835780633b5868bd146200026e5780633cfd1ccc14620002785780633d77fbc714620002825780635acbcada146200029b5780636311d06a14620002a5578063651837db14620002af5780636b14daf814620002c65780636e94729814620002dd57620001e3565b8062641ba214620001e85780630a756983146200020a57806316b204d014620002165780631741526f146200022057806320165a7a1462000239578063226df934146200025057806332a2c5d0146200025a57806339a1e70f1462000264575b600080fd5b620001f2620003b8565b604051620002019190620020a8565b60405180910390f35b62000214620003d0565b005b6200021462000426565b6200022a62000872565b6040516200020191906200214d565b620002146200024a36600462002051565b620008f8565b62000214620009cb565b620001f262000b49565b620001f262000b58565b6200021462000b67565b6200022a62000da7565b6200028c62000e3f565b60405162000201919062002142565b6200022a62000ec0565b6200028c62000ec9565b62000214620002c036600462001fe8565b62000ed9565b6200028c620002d736600462001f83565b62000f92565b6200022a62000fcb565b6200021462000fdc565b6200021462001151565b62000214620011d5565b620002146200122f565b620002146200032036600462001f66565b620019d1565b620001f262001a5a565b620001f262001a69565b620002146200034b36600462001f66565b62001a81565b6200022a62001b01565b6200028c62001b48565b620001f262001b58565b6200028c62001b70565b6200022a62001b80565b6200028c62001b89565b620001f262001b99565b620001f262001bb1565b62000214620003b236600462001f66565b62001bc9565b73a679c6154b8d4619af9f83f0bf9a13a680e01ecf81565b620003da62001bde565b600154600160a01b900460ff161562000424576001805460ff60a01b191690556040517f3be8a977a014527b50ae38adda80b56911c267328965c98ddc385d248f53963890600090a15b565b62000469336000368080601f01602080910402602001604051908101604052809392919081815260200183838082843760009201919091525062000f9292505050565b620004915760405162461bcd60e51b815260040162000488906200248b565b60405180910390fd5b600354604080516331de8ea560e11b8152905173e22da380ee6b445bb8273c81944adeb6e8450422926000926001600160a01b03909116916363bd1d4a91600480820192602092909190829003018186803b158015620004f057600080fd5b505afa15801562000505573d6000803e3d6000fd5b505050506040513d601f19601f820116820180604052508101906200052b91906200208f565b90508015620007275760405163a9059cbb60e01b81526001600160a01b0383169063a9059cbb90620005789073a679c6154b8d4619af9f83f0bf9a13a680e01ecf908590600401620020e0565b602060405180830381600087803b1580156200059357600080fd5b505af1158015620005a8573d6000803e3d6000fd5b505050506040513d601f19601f82011682018060405250810190620005ce91906200202f565b620005ed5760405162461bcd60e51b81526004016200048890620022be565b6040516370a0823160e01b81526001600160a01b0383169063a9059cbb90733382d07e2736ac80f07d7288750f2442d187a7e39083906370a082319062000639903090600401620020a8565b60206040518083038186803b1580156200065257600080fd5b505afa15801562000667573d6000803e3d6000fd5b505050506040513d601f19601f820116820180604052508101906200068d91906200208f565b6040518363ffffffff1660e01b8152600401620006ac929190620020e0565b602060405180830381600087803b158015620006c757600080fd5b505af1158015620006dc573d6000803e3d6000fd5b505050506040513d601f19601f820116820180604052508101906200070291906200202f565b620007215760405162461bcd60e51b815260040162000488906200240c565b6200085b565b6040516370a0823160e01b81526001600160a01b0383169063a9059cbb90733382d07e2736ac80f07d7288750f2442d187a7e39083906370a082319062000773903090600401620020a8565b60206040518083038186803b1580156200078c57600080fd5b505afa158015620007a1573d6000803e3d6000fd5b505050506040513d601f19601f82011682018060405250810190620007c791906200208f565b6040518363ffffffff1660e01b8152600401620007e6929190620020e0565b602060405180830381600087803b1580156200080157600080fd5b505af115801562000816573d6000803e3d6000fd5b505050506040513d601f19601f820116820180604052508101906200083c91906200202f565b6200085b5760405162461bcd60e51b8152600401620004889062002518565b50506003805460ff60b01b1916600160b01b179055565b600354604080516331de8ea560e11b815290516000926001600160a01b0316916363bd1d4a916004808301926020929190829003018186803b158015620008b857600080fd5b505afa158015620008cd573d6000803e3d6000fd5b505050506040513d601f19601f82011682018060405250810190620008f391906200208f565b905090565b6200093b336000368080601f01602080910402602001604051908101604052809392919081815260200183838082843760009201919091525062000f9292505050565b6200095a5760405162461bcd60e51b815260040162000488906200248b565b6003546001600160a01b0316633612820d620009768362001c0b565b6040518263ffffffff1660e01b81526004016200099491906200214d565b600060405180830381600087803b158015620009af57600080fd5b505af1158015620009c4573d6000803e3d6000fd5b5050505050565b62000a0e336000368080601f01602080910402602001604051908101604052809392919081815260200183838082843760009201919091525062000f9292505050565b62000a2d5760405162461bcd60e51b815260040162000488906200248b565b600354600160a81b900460ff1615801562000a515750600354600160a01b900460ff165b62000a705760405162461bcd60e51b81526004016200048890620022f1565b6040516323b872dd60e01b815273e22da380ee6b445bb8273c81944adeb6e84504229081906323b872dd9062000ab490339030906402540be40090600401620020bc565b602060405180830381600087803b15801562000acf57600080fd5b505af115801562000ae4573d6000803e3d6000fd5b505050506040513d601f19601f8201168201806040525081019062000b0a91906200202f565b62000b295760405162461bcd60e51b81526004016200048890620024ae565b6003805460ff60a81b1916600160a81b17905562000b4662001c2f565b50565b6003546001600160a01b031690565b6003546001600160a01b031681565b62000baa336000368080601f01602080910402602001604051908101604052809392919081815260200183838082843760009201919091525062000f9292505050565b62000bc95760405162461bcd60e51b815260040162000488906200248b565b60035460408051637e0c00ed60e01b8152905173a36085f69e2889c224210f603d836748e7dc0088926000926001600160a01b0390911691637e0c00ed91600480820192602092909190829003018186803b15801562000c2857600080fd5b505afa15801562000c3d573d6000803e3d6000fd5b505050506040513d601f19601f8201168201806040525081019062000c6391906200208f565b6003549091506001600160a01b03808416916323b872dd917369640770407a09b166aed26b778699045b304768911662000ca485655af3107a4000620025a4565b6040518463ffffffff1660e01b815260040162000cc493929190620020bc565b602060405180830381600087803b15801562000cdf57600080fd5b505af115801562000cf4573d6000803e3d6000fd5b505050506040513d601f19601f8201168201806040525081019062000d1a91906200202f565b62000d395760405162461bcd60e51b815260040162000488906200223f565b600360009054906101000a90046001600160a01b03166001600160a01b031663186395cf6040518163ffffffff1660e01b8152600401600060405180830381600087803b15801562000d8a57600080fd5b505af115801562000d9f573d6000803e3d6000fd5b505050505050565b6040516370a0823160e01b815260009073e22da380ee6b445bb8273c81944adeb6e84504229081906370a082319062000de5903090600401620020a8565b60206040518083038186803b15801562000dfe57600080fd5b505afa15801562000e13573d6000803e3d6000fd5b505050506040513d601f19601f8201168201806040525081019062000e3991906200208f565b91505090565b6003546040805163602f144b60e01b815290516000926001600160a01b03169163602f144b916004808301926020929190829003018186803b15801562000e8557600080fd5b505afa15801562000e9a573d6000803e3d6000fd5b505050506040513d601f19601f82011682018060405250810190620008f391906200202f565b6402540be40081565b600354600160a01b900460ff1681565b62000f1c336000368080601f01602080910402602001604051908101604052809392919081815260200183838082843760009201919091525062000f9292505050565b62000f3b5760405162461bcd60e51b815260040162000488906200248b565b6003546001600160a01b031663ddc972278362000f588462001c0b565b6040518363ffffffff1660e01b815260040162000f77929190620020e0565b600060405180830381600087803b15801562000d8a57600080fd5b6001600160a01b03821660009081526002602052604081205460ff168062000fc45750600154600160a01b900460ff16155b9392505050565b600062000fd762001bde565b504790565b6200101f336000368080601f01602080910402602001604051908101604052809392919081815260200183838082843760009201919091525062000f9292505050565b6200103e5760405162461bcd60e51b815260040162000488906200248b565b600354600160a81b900460ff16158015620010635750600354600160a01b900460ff16155b620010825760405162461bcd60e51b8152600401620004889062002276565b6040516323b872dd60e01b815273e22da380ee6b445bb8273c81944adeb6e84504229081906323b872dd90620010c69033903090643a3529440090600401620020bc565b602060405180830381600087803b158015620010e157600080fd5b505af1158015620010f6573d6000803e3d6000fd5b505050506040513d601f19601f820116820180604052508101906200111c91906200202f565b6200113b5760405162461bcd60e51b81526004016200048890620024e1565b506003805460ff60a01b1916600160a01b179055565b6001546001600160a01b031633146200117e5760405162461bcd60e51b8152600401620004889062002156565b60008054336001600160a01b0319808316821784556001805490911690556040516001600160a01b0390921692909183917f8be0079c531659141344cd1fd0a4f28419497f9722a3daafe3b4186f6b6457e091a350565b620011df62001bde565b600154600160a01b900460ff1662000424576001805460ff60a01b1916600160a01b1790556040517faebf329500988c6488a0074e5a0a9ff304561fc5c6fc877aeb1d59c8282c348090600090a1565b6200123962001bde565b600354604080516331de8ea560e11b8152905173a36085f69e2889c224210f603d836748e7dc00889273e22da380ee6b445bb8273c81944adeb6e8450422926000926001600160a01b03909216916363bd1d4a91600480820192602092909190829003018186803b158015620012ae57600080fd5b505afa158015620012c3573d6000803e3d6000fd5b505050506040513d601f19601f82011682018060405250810190620012e991906200208f565b90506000600360009054906101000a90046001600160a01b03166001600160a01b031663602f144b6040518163ffffffff1660e01b815260040160206040518083038186803b1580156200133c57600080fd5b505afa15801562001351573d6000803e3d6000fd5b505050506040513d601f19601f820116820180604052508101906200137791906200202f565b90508015620015735760405163a9059cbb60e01b81526001600160a01b0384169063a9059cbb90620013c49073a679c6154b8d4619af9f83f0bf9a13a680e01ecf908690600401620020e0565b602060405180830381600087803b158015620013df57600080fd5b505af1158015620013f4573d6000803e3d6000fd5b505050506040513d601f19601f820116820180604052508101906200141a91906200202f565b620014395760405162461bcd60e51b81526004016200048890620021fd565b6040516370a0823160e01b81526001600160a01b0384169063a9059cbb90733382d07e2736ac80f07d7288750f2442d187a7e39083906370a082319062001485903090600401620020a8565b60206040518083038186803b1580156200149e57600080fd5b505afa158015620014b3573d6000803e3d6000fd5b505050506040513d601f19601f82011682018060405250810190620014d991906200208f565b6040518363ffffffff1660e01b8152600401620014f8929190620020e0565b602060405180830381600087803b1580156200151357600080fd5b505af115801562001528573d6000803e3d6000fd5b505050506040513d601f19601f820116820180604052508101906200154e91906200202f565b6200156d5760405162461bcd60e51b815260040162000488906200234e565b620016ef565b60405163a9059cbb60e01b81526001600160a01b0384169063a9059cbb90620015bc9073a679c6154b8d4619af9f83f0bf9a13a680e01ecf906402540be40090600401620020e0565b602060405180830381600087803b158015620015d757600080fd5b505af1158015620015ec573d6000803e3d6000fd5b505050506040513d601f19601f820116820180604052508101906200161291906200202f565b620016315760405162461bcd60e51b815260040162000488906200239a565b60405163a9059cbb60e01b81526001600160a01b0384169063a9059cbb906200167a90733382d07e2736ac80f07d7288750f2442d187a7e390643a3529440090600401620020e0565b602060405180830381600087803b1580156200169557600080fd5b505af1158015620016aa573d6000803e3d6000fd5b505050506040513d601f19601f82011682018060405250810190620016d091906200202f565b620016ef5760405162461bcd60e51b8152600401620004889062002186565b600360009054906101000a90046001600160a01b03166001600160a01b031663461cf76f6040518163ffffffff1660e01b8152600401600060405180830381600087803b1580156200174057600080fd5b505af115801562001755573d6000803e3d6000fd5b50505050826001600160a01b031663a9059cbb6200177262001a5a565b6040516370a0823160e01b81526001600160a01b038716906370a0823190620017a0903090600401620020a8565b60206040518083038186803b158015620017b957600080fd5b505afa158015620017ce573d6000803e3d6000fd5b505050506040513d601f19601f82011682018060405250810190620017f491906200208f565b6040518363ffffffff1660e01b815260040162001813929190620020e0565b602060405180830381600087803b1580156200182e57600080fd5b505af115801562001843573d6000803e3d6000fd5b505050506040513d601f19601f820116820180604052508101906200186991906200202f565b620018885760405162461bcd60e51b81526004016200048890620023db565b6040516370a0823160e01b81526001600160a01b0385169063a9059cbb907369640770407a09b166aed26b778699045b3047689083906370a0823190620018d4903090600401620020a8565b60206040518083038186803b158015620018ed57600080fd5b505afa15801562001902573d6000803e3d6000fd5b505050506040513d601f19601f820116820180604052508101906200192891906200208f565b6040518363ffffffff1660e01b815260040162001947929190620020e0565b602060405180830381600087803b1580156200196257600080fd5b505af115801562001977573d6000803e3d6000fd5b505050506040513d601f19601f820116820180604052508101906200199d91906200202f565b620019bc5760405162461bcd60e51b815260040162000488906200245a565b620019c662001a5a565b6001600160a01b0316ff5b620019db62001bde565b6001600160a01b03811660009081526002602052604090205460ff161562000b46576001600160a01b03811660009081526002602052604090819020805460ff19169055517f3d68a6fce901d20453d1a7aa06bf3950302a735948037deb182a8db66df2a0d19062001a4f908390620020a8565b60405180910390a150565b6000546001600160a01b031690565b733382d07e2736ac80f07d7288750f2442d187a7e381565b62001a8b62001bde565b6001600160a01b03811660009081526002602052604090205460ff1662000b46576001600160a01b03811660009081526002602052604090819020805460ff19166001179055517f87286ad1f399c8e82bf0c4ef4fcdc570ea2e1e92176e5c848b6413545b885db49062001a4f908390620020a8565b600062001b0d62001bde565b6040516370a0823160e01b815273a36085f69e2889c224210f603d836748e7dc00889081906370a082319062000de5903090600401620020a8565b600354600160b01b900460ff1681565b73e22da380ee6b445bb8273c81944adeb6e845042281565b600354600160a81b900460ff1681565b643a3529440081565b600154600160a01b900460ff1681565b73a36085f69e2889c224210f603d836748e7dc008881565b7369640770407a09b166aed26b778699045b30476881565b62001bd362001bde565b62000b468162001e2b565b6000546001600160a01b03163314620004245760405162461bcd60e51b81526004016200048890620021cd565b8051600090829062001c2257506000905062001c2a565b505060208101515b919050565b600354600160a81b900460ff16801562001c525750600354600160a01b900460ff165b1562000424576003805460ff60a01b1916905560405162001c739062001ea8565b604051809103906000f08015801562001c90573d6000803e3d6000fd5b50600380546001600160a01b0319166001600160a01b03928316179081905560405163da35a26f60e01b815291169063da35a26f9062001cf190655af3107a40009073a36085f69e2889c224210f603d836748e7dc0088906004016200258d565b600060405180830381600087803b15801562001d0c57600080fd5b505af115801562001d21573d6000803e3d6000fd5b50506003546040805180820190915260208082527f3234306166356239303666373461633662383363626334326132333537313466908201526001600160a01b03909116925063ddc9722791507358935f97ab874bc4181bc1a3a85fde2ca80885cd9062001d8f9062001c0b565b6040518363ffffffff1660e01b815260040162001dae929190620020e0565b600060405180830381600087803b15801562001dc957600080fd5b505af115801562001dde573d6000803e3d6000fd5b50506003546040517f1b08e1646439b7521399d47f93ab6b1ebc92803e155d0b2f2ad2d4702a050804935062001e2192506001600160a01b0390911690620020f9565b60405180910390a1565b6001600160a01b03811633141562001e575760405162461bcd60e51b815260040162000488906200255c565b600180546001600160a01b0319166001600160a01b0383811691821790925560008054604051929316917fed8889f560326eb138920d842192f0eb3dd22b4f139c87a2c57538e05bae12789190a350565b61272680620025e783390190565b60006001600160401b038084111562001ed35762001ed3620025d0565b604051601f8501601f19168101602001828111828210171562001efa5762001efa620025d0565b60405284815291508183850186101562001f1357600080fd5b8484602083013760006020868301015250509392505050565b80356001600160a01b038116811462001c2a57600080fd5b600082601f83011262001f55578081fd5b62000fc48383356020850162001eb6565b60006020828403121562001f78578081fd5b62000fc48262001f2c565b6000806040838503121562001f96578081fd5b62001fa18362001f2c565b915060208301356001600160401b0381111562001fbc578182fd5b8301601f8101851362001fcd578182fd5b62001fde8582356020840162001eb6565b9150509250929050565b6000806040838503121562001ffb578182fd5b620020068362001f2c565b915060208301356001600160401b0381111562002021578182fd5b62001fde8582860162001f44565b60006020828403121562002041578081fd5b8151801515811462000fc4578182fd5b60006020828403121562002063578081fd5b81356001600160401b0381111562002079578182fd5b620020878482850162001f44565b949350505050565b600060208284031215620020a1578081fd5b5051919050565b6001600160a01b0391909116815260200190565b6001600160a01b039384168152919092166020820152604081019190915260600190565b6001600160a01b03929092168252602082015260400190565b6001600160a01b03919091168152604060208201819052601f908201527f44616c6c6173204d61767320323032322d30342d31302030303a30303a303000606082015260800190565b901515815260200190565b90815260200190565b60208082526016908201527526bab9ba10313290383937b837b9b2b21037bbb732b960511b604082015260600190565b60208082526027908201527f756e61626c6520746f2072657475726e20636f6c6c61746572616c20746f20706040820152663937bb34b232b960c91b606082015260800190565b60208082526016908201527527b7363c9031b0b63630b1363290313c9037bbb732b960511b604082015260600190565b60208082526022908201527f756e61626c6520746f207472616e73666572207061796f757420746f2062757960408201526132b960f11b606082015260800190565b6020808252601d908201527f756e61626c6520746f2066756e64206f7261636c652072657175657374000000604082015260600190565b60208082526028908201527f756e61626c6520746f206465706f736974207072656d69756d206d6f7265207460408201526768616e206f6e636560c01b606082015260800190565b6020808252601990820152783ab730b13632903a37903830bcb7baba103a3790313abcb2b960391b604082015260600190565b6020808252603d908201527f756e61626c6520746f206465706f736974207072656d69756d20756e74696c2060408201527f636f6c6c61746572616c20686173206265656e206465706f7369746564000000606082015260800190565b6020808252602c908201527f756e61626c6520746f2072657475726e2072656d61696e696e672066756e647360408201526b103a3790383937bb34b232b960a11b606082015260800190565b60208082526021908201527f756e61626c6520746f2072657475726e207072656d69756d20746f20627579656040820152603960f91b606082015260800190565b602080825260179082015276756e61626c6520746f207472616e73666572205553444360481b604082015260600190565b6020808252602e908201527f756e61626c6520746f2072657475726e2072656d61696e696e672062616c616e60408201526d31b2903a3790383937bb34b232b960911b606082015260800190565b602080825260179082015276756e61626c6520746f207472616e73666572204c494e4b60481b604082015260600190565b6020808252600990820152684e6f2061636365737360b81b604082015260600190565b602080825260199082015278756e61626c6520746f206465706f736974207072656d69756d60381b604082015260600190565b6020808252601c908201527f756e61626c6520746f206465706f73697420636f6c6c61746572616c00000000604082015260600190565b60208082526024908201527f756e61626c6520746f2072657475726e2062616c616e636520746f2070726f7660408201526334b232b960e11b606082015260800190565b60208082526017908201527621b0b73737ba103a3930b739b332b9103a379039b2b63360491b604082015260600190565b9182526001600160a01b0316602082015260400190565b6000816000190483118215151615620025cb57634e487b7160e01b81526011600452602481fd5b500290565b634e487b7160e01b600052604160045260246000fdfe608060405260016004553480156200001657600080fd5b503380600081620000445760405162461bcd60e51b81526004016200003b906200084c565b60405180910390fd5b600680546001600160a01b0319166001600160a01b03848116919091179091558116156200007757620000778162000662565b50506000600f5550600c805460ff19169055604080516105a081018252600a6105608201818152691918191896989816981b60b11b610580840152825282518084018452818152690646064625a62605a60760b31b6020828101919091528084019190915283518085018552828152691918191896989816991b60b11b818301528385015283518085018552828152690646064625a62605a64760b31b8183015260608401528351808501855282815269323032312d31302d333160b01b81830152608084015283518085018552828152691918191896989896981960b11b8183015260a084015283518085018552828152691918191896989896981b60b11b8183015260c084015283518085018552828152690646064625a62625a60760b31b8183015260e08401528351808501855282815269323032312d31312d313560b01b818301526101008401528351808501855282815269323032312d31312d323760b01b818301526101208401528351808501855282815269323032312d31312d323960b01b818301526101408401528351808501855282815269323032312d31322d303360b01b8183015261016084015283518085018552828152690c8c0c8c4b4c4c8b4c0d60b21b818301526101808401528351808501855282815269323032312d31322d303760b01b818301526101a08401528351808501855282815269323032312d31322d313360b01b818301526101c08401528351808501855282815269323032312d31322d313560b01b818301526101e08401528351808501855282815269323032312d31322d323160b01b818301526102008401528351808501855282815269323032312d31322d323360b01b818301526102208401528351808501855282815269323032322d30312d303360b01b818301526102408401528351808501855282815269323032322d30312d303560b01b818301526102608401528351808501855282815269323032322d30312d303960b01b818301526102808401528351808501855282815269323032322d30312d313560b01b818301526102a08401528351808501855282815269323032322d30312d313760b01b818301526102c08401528351808501855282815269323032322d30312d313960b01b818301526102e084015283518085018552828152690323032322d30312d32360b41b818301526103008401528351808501855282815269323032322d30312d323360b01b818301526103208401528351808501855282815269323032322d30312d323960b01b8183015261034084015283518085018552828152691918191916981916981960b11b8183015261036084015283518085018552828152690c8c0c8c8b4c0c8b4c0d60b21b8183015261038084015283518085018552828152691918191916981916981b60b11b818301526103a084015283518085018552828152690646064645a60645a60760b31b818301526103c084015283518085018552828152690323032322d30322d31360b41b818301526103e084015283518085018552828152691918191916981916989960b11b818301526104008401528351808501855282815269323032322d30332d303360b01b818301526104208401528351808501855282815269323032322d30332d303560b01b818301526104408401528351808501855282815269323032322d30332d303760b01b818301526104608401528351808501855282815269323032322d30332d303960b01b818301526104808401528351808501855282815269323032322d30332d323160b01b818301526104a08401528351808501855282815269323032322d30332d323360b01b818301526104c08401528351808501855282815269323032322d30332d323760b01b818301526104e08401528351808501855282815269323032322d30332d323960b01b8183015261050084015283518085018552828152690646064645a60685a60760b31b818301526105208401528351808501909452908352690323032322d30342d31360b41b908301526105408101919091526200065b90600e90602b620006e0565b50620008f7565b6001600160a01b0381163314156200068e5760405162461bcd60e51b81526004016200003b9062000883565b600780546001600160a01b0319166001600160a01b03838116918217909255600654604051919216907fed8889f560326eb138920d842192f0eb3dd22b4f139c87a2c57538e05bae127890600090a350565b82805482825590600052602060002090810192821562000732579160200282015b828111156200073257825180516200072191849160209091019062000744565b509160200191906001019062000701565b5062000740929150620007cf565b5090565b8280546200075290620008ba565b90600052602060002090601f016020900481019282620007765760008555620007c1565b82601f106200079157805160ff1916838001178555620007c1565b82800160010185558215620007c1579182015b82811115620007c1578251825591602001919060010190620007a4565b5062000740929150620007f0565b8082111562000740576000620007e6828262000807565b50600101620007cf565b5b80821115620007405760008155600101620007f1565b5080546200081590620008ba565b6000825580601f1062000829575062000849565b601f016020900490600052602060002090810190620008499190620007f0565b50565b60208082526018908201527f43616e6e6f7420736574206f776e657220746f207a65726f0000000000000000604082015260600190565b60208082526017908201527f43616e6e6f74207472616e7366657220746f2073656c66000000000000000000604082015260600190565b600281046001821680620008cf57607f821691505b60208210811415620008f157634e487b7160e01b600052602260045260246000fd5b50919050565b611e1f80620009076000396000f3fe608060405234801561001057600080fd5b50600436106100e05760003560e01c806363bd1d4a1161008757806363bd1d4a1461019b57806364f1cb74146101a357806379ba5097146101b65780637e0c00ed146101be5780638da5cb5b146101c6578063da35a26f146101ce578063ddc97227146101e1578063f2fde38b146101f4576100e0565b8063180aedf3146100e5578063186395cf1461010e5780633612820d146101185780633c54689f1461012b578063461cf76f1461013e5780635133ae24146101465780635b69a7d814610166578063602f144b14610186575b600080fd5b6100f86100f33660046117eb565b610207565b60405161010591906119e9565b60405180910390f35b610116610228565b005b6101166101263660046117eb565b61075a565b610116610139366004611803565b6109bc565b610116610c02565b6101596101543660046117eb565b610d47565b60405161010591906119f2565b6101796101743660046117eb565b610df3565b60405161010591906118cf565b61018e610e1d565b60405161010591906119de565b6100f8610e26565b6100f86101b13660046117eb565b610e2c565b610116610e3e565b6100f8610ec3565b610179610ec9565b6101166101dc36600461183c565b610ed8565b6101166101ef3660046117a2565b610eee565b610116610202366004611788565b610f91565b600b818154811061021757600080fd5b600091825260209091200154905081565b610230610fa5565b42636253a7c01061025c5760405162461bcd60e51b815260040161025390611af0565b60405180910390fd5b7ff1c35e3933051ea28efca558462a55cac66003050f2c6f4e96833a696fa444e2304260405161028d92919061190c565b60405180910390a1600854600a805460408051602080840282018101909252828152600093909290918301828280156102ef57602002820191906000526020600020905b81546001600160a01b031681526001909101906020018083116102d1575b505050505090506000600b80548060200260200160405190810160405280929190818152602001828054801561034457602002820191906000526020600020905b815481526020019060010190808311610330575b505050505090506000600e805480602002602001604051908101604052809291908181526020016000905b8282101561041b57838290600052602060002001805461038e90611d59565b80601f01602080910402602001604051908101604052809291908181526020018280546103ba90611d59565b80156104075780601f106103dc57610100808354040283529160200191610407565b820191906000526020600020905b8154815290600101906020018083116103ea57829003601f168201915b50505050508152602001906001019061036f565b5050505090506000805b8451811461075057600061046885838151811061045257634e487b7160e01b600052603260045260246000fd5b602002602001015130633c54689f60e01b610fd1565b604080518082019091526005815264646174657360d81b602082015290915061049390829086610ff8565b6104ed6040518060400160405280600a8152602001691cdd185d1a5bdb97da5960b21b8152506040518060400160405280600b81526020016a555357303030303339323760a81b815250836110839092919063ffffffff16565b6105466040518060400160405280601081526020016f776561746865725f7661726961626c6560801b81525060405180604001604052806004815260200163534e4f5760e01b815250836110839092919063ffffffff16565b6105976040518060400160405280600781526020016619185d185cd95d60ca1b8152506040518060400160405280600581526020016419da18db9960da1b815250836110839092919063ffffffff16565b6105e8604051806040016040528060088152602001676f70745f7479706560c01b8152506040518060400160405280600481526020016310d0531360e21b815250836110839092919063ffffffff16565b604080518082019091526006815265737472696b6560d01b602082015261061290829060006110a1565b6040805180820190915260058152641b1a5b5a5d60da1b602082015261063d9082906203d0906110a1565b6040805180820190915260048152637469636b60e01b60208201526106679082906203d0906110a1565b6040805180820190915260098152681d1a1c995cda1bdb1960ba1b602082015261069490829060066110a1565b60006106c88784815181106106b957634e487b7160e01b600052603260045260246000fd5b6020026020010151838a6110bf565b90506106d5600185611be3565b93507f8a9d8e27cea77dd32eb51cfaf81bfc3fded7c7eeec5de203c4a8ad17c930fda73088858151811061071957634e487b7160e01b600052603260045260246000fd5b6020026020010151834260405161073394939291906118e3565b60405180910390a1506107499050600182611be3565b9050610425565b50600d5550505050565b610762610fa5565b600081815260096020526040902054600b5461078090600190611d42565b81141561080257600a8054806107a657634e487b7160e01b600052603160045260246000fd5b600082815260209020810160001990810180546001600160a01b0319169055019055600b8054806107e757634e487b7160e01b600052603160045260246000fd5b600190038181906000526020600020016000905590556109b8565b600a805461081290600190611d42565b8154811061083057634e487b7160e01b600052603260045260246000fd5b600091825260209091200154600a80546001600160a01b03909216918390811061086a57634e487b7160e01b600052603260045260246000fd5b9060005260206000200160006101000a8154816001600160a01b0302191690836001600160a01b03160217905550600a8054806108b757634e487b7160e01b600052603160045260246000fd5b600082815260209020810160001990810180546001600160a01b0319169055019055600b80546108e990600190611d42565b8154811061090757634e487b7160e01b600052603260045260246000fd5b9060005260206000200154600b828154811061093357634e487b7160e01b600052603260045260246000fd5b600091825260209091200155600b80548061095e57634e487b7160e01b600052603160045260246000fd5b600190038181906000526020600020016000905590558060096000600b848154811061099a57634e487b7160e01b600052603260045260246000fd5b90600052602060002001548152602001908152602001600020819055505b5050565b60008281526005602052604090205482906001600160a01b031633146109f45760405162461bcd60e51b815260040161025390611b9b565b60008181526005602052604080822080546001600160a01b03191690555182917f7cc135e0cebb02c3480ae5d74d377283180a2601f8f644edf7987b009316c63a91a281600f6000828254610a499190611be3565b925050819055506001600d6000828254610a639190611d42565b9091555050600d54610bc257600a54600f8054600090610a84908490611bfb565b9091555050600c805460ff191660011790556000610aa06110de565b9050806001600160a01b031663a9059cbb610ab9610ec9565b6040516370a0823160e01b81526001600160a01b038516906370a0823190610ae59030906004016118cf565b60206040518083038186803b158015610afd57600080fd5b505afa158015610b11573d6000803e3d6000fd5b505050506040513d601f19601f82011682018060405250810190610b359190611824565b6040518363ffffffff1660e01b8152600401610b5292919061190c565b602060405180830381600087803b158015610b6c57600080fd5b505af1158015610b80573d6000803e3d6000fd5b505050506040513d601f19601f82011682018060405250810190610ba491906117cb565b610bc05760405162461bcd60e51b815260040161025390611a05565b505b7f8b08e29b6d8230eac33ee2a434b338e6589507f4f1082daa4042159a06333345308342604051610bf5939291906119bd565b60405180910390a1505050565b610c0a610fa5565b6000610c146110de565b9050806001600160a01b031663a9059cbb610c2d610ec9565b6040516370a0823160e01b81526001600160a01b038516906370a0823190610c599030906004016118cf565b60206040518083038186803b158015610c7157600080fd5b505afa158015610c85573d6000803e3d6000fd5b505050506040513d601f19601f82011682018060405250810190610ca99190611824565b6040518363ffffffff1660e01b8152600401610cc692919061190c565b602060405180830381600087803b158015610ce057600080fd5b505af1158015610cf4573d6000803e3d6000fd5b505050506040513d601f19601f82011682018060405250810190610d1891906117cb565b610d345760405162461bcd60e51b815260040161025390611b3e565b610d3c610ec9565b6001600160a01b0316ff5b600e8181548110610d5757600080fd5b906000526020600020016000915090508054610d7290611d59565b80601f0160208091040260200160405190810160405280929190818152602001828054610d9e90611d59565b8015610deb5780601f10610dc057610100808354040283529160200191610deb565b820191906000526020600020905b815481529060010190602001808311610dce57829003601f168201915b505050505081565b600a8181548110610e0357600080fd5b6000918252602090912001546001600160a01b0316905081565b600c5460ff1681565b600f5481565b60096020526000908152604090205481565b6007546001600160a01b03163314610e685760405162461bcd60e51b815260040161025390611a4d565b600680546001600160a01b0319808216339081179093556007805490911690556040516001600160a01b03909116919082907f8be0079c531659141344cd1fd0a4f28419497f9722a3daafe3b4186f6b6457e090600090a350565b600b5490565b6006546001600160a01b031690565b610ee0610fa5565b60088290556109b8816110ed565b610ef6610fa5565b600a8054600180820183557fc65a7bb8d6351c1cf70c95a316cc6a92839c986682d98bc35f958f4883f9d2a890910180546001600160a01b0319166001600160a01b038616179055600b805480830182556000919091527f0175b7a638427703f0dbe7bb9bbf987a2551717b34e79f33b5b1008d1fa01db9018390559054610f7e9190611d42565b6000918252600960205260409091205550565b610f99610fa5565b610fa28161110f565b50565b6006546001600160a01b03163314610fcf5760405162461bcd60e51b815260040161025390611ac0565b565b610fd961171d565b610fe161171d565b610fed8186868661118a565b9150505b9392505050565b608083015161100790836111c7565b61101483608001516111de565b60005b81518110156110705761105e82828151811061104357634e487b7160e01b600052603260045260246000fd5b602002602001015185608001516111c790919063ffffffff16565b8061106881611d8e565b915050611017565b5061107e83608001516111e9565b505050565b608083015161109290836111c7565b608083015161107e90826111c7565b60808301516110b090836111c7565b608083015161107e90826111f4565b60006110d684848460016320214ca360e11b611200565b949350505050565b6002546001600160a01b031690565b600280546001600160a01b0319166001600160a01b0392909216919091179055565b6001600160a01b0381163314156111385760405162461bcd60e51b815260040161025390611b6a565b600780546001600160a01b0319166001600160a01b03838116918217909255600654604051919216907fed8889f560326eb138920d842192f0eb3dd22b4f139c87a2c57538e05bae127890600090a350565b61119261171d565b6111a285608001516101006113bb565b50509183526001600160a01b031660208301526001600160e01b031916604082015290565b6111d48260038351611419565b61107e82826114f3565b610fa281600461150d565b610fa281600761150d565b6109b882600083611419565b6000306004546040516020016112179291906118b2565b60408051808303601f19018152918152815160209283012060045460608901526000818152600590935281832080546001600160a01b0319166001600160a01b038b16179055905190925082917fb5e6e01e79f91267dc17b4e6314d5d4d03593d2ceee0fbb452b750bd70ea5af991a2600082600080886000015189602001518a604001518b606001518a8d60800151600001516040516024016112c2989796959493929190611925565b60408051601f198184030181529181526020820180516001600160e01b03166001600160e01b0319909416939093179092526002549151630200057560e51b81529092506001600160a01b0390911690634000aea09061132a908a908990869060040161198d565b602060405180830381600087803b15801561134457600080fd5b505af1158015611358573d6000803e3d6000fd5b505050506040513d601f19601f8201168201806040525081019061137c91906117cb565b6113985760405162461bcd60e51b815260040161025390611a7d565b6001600460008282546113ab9190611be3565b9091555091979650505050505050565b6113c3611752565b6113ce602083611da9565b156113f6576113de602083611da9565b6113e9906020611d42565b6113f39083611be3565b91505b506020808301829052604080518085526000815283019091019052815b92915050565b6017811161143a576114348360e0600585901b16831761151e565b5061107e565b60ff811161146457611457836018611fe0600586901b161761151e565b5061143483826001611536565b61ffff811161148f57611482836019611fe0600586901b161761151e565b5061143483826002611536565b63ffffffff81116114bc576114af83601a611fe0600586901b161761151e565b5061143483826004611536565b67ffffffffffffffff811161107e576114e083601b611fe0600586901b161761151e565b506114ed83826008611536565b50505050565b6114fb611752565b610ff18384600001515184855161154f565b61107e82601f611fe0600585901b16175b611526611752565b610ff1838460000151518461162c565b61153e611752565b6110d684856000015151858561167b565b611557611752565b825182111561156557600080fd5b60208501516115748386611be3565b11156115a7576115a785611597876020015187866115929190611be3565b6116ef565b6115a2906002611d23565b611706565b6000808651805187602083010193508088870111156115c65787860182525b505050602084015b6020841061160657805182526115e5602083611be3565b91506115f2602082611be3565b90506115ff602085611d42565b93506115ce565b51815160001960208690036101000a019081169019919091161790525083949350505050565b611634611752565b836020015183106116545761165484856020015160026115a29190611d23565b835180516020858301018481535080851415611671576001810182525b5093949350505050565b611683611752565b60208501516116928584611be3565b11156116a6576116a6856115978685611be3565b600060016116b684610100611c55565b6116c09190611d42565b90508551838682010185831982511617815250805184870111156116e45783860181525b509495945050505050565b600081831115611700575081611413565b50919050565b815161171283836113bb565b506114ed83826114f3565b6040805160a08101825260008082526020820181905291810182905260608101919091526080810161174d611752565b905290565b604051806040016040528060608152602001600081525090565b80356001600160a01b038116811461178357600080fd5b919050565b600060208284031215611799578081fd5b610ff18261176c565b600080604083850312156117b4578081fd5b6117bd8361176c565b946020939093013593505050565b6000602082840312156117dc578081fd5b81518015158114610ff1578182fd5b6000602082840312156117fc578081fd5b5035919050565b60008060408385031215611815578182fd5b50508035926020909101359150565b600060208284031215611835578081fd5b5051919050565b6000806040838503121561184e578182fd5b8235915061185e6020840161176c565b90509250929050565b60008151808452815b8181101561188c57602081850181015186830182015201611870565b8181111561189d5782602083870101525b50601f01601f19169290920160200192915050565b60609290921b6001600160601b0319168252601482015260340190565b6001600160a01b0391909116815260200190565b6001600160a01b0394851681529290931660208301526040820152606081019190915260800190565b6001600160a01b03929092168252602082015260400190565b6001600160a01b0389811682526020820189905260408201889052861660608201526001600160e01b03198516608082015260a0810184905260c0810183905261010060e0820181905260009061197e83820185611867565b9b9a5050505050505050505050565b600060018060a01b0385168252836020830152606060408301526119b46060830184611867565b95945050505050565b6001600160a01b039390931683526020830191909152604082015260600190565b901515815260200190565b90815260200190565b600060208252610ff16020830184611867565b60208082526028908201527f556e61626c6520746f207472616e736665722072656d61696e696e67204c494e6040820152674b20746f6b656e7360c01b606082015260800190565b60208082526016908201527526bab9ba10313290383937b837b9b2b21037bbb732b960511b604082015260600190565b60208082526023908201527f756e61626c6520746f207472616e73666572416e6443616c6c20746f206f7261604082015262636c6560e81b606082015260800190565b60208082526016908201527527b7363c9031b0b63630b1363290313c9037bbb732b960511b604082015260600190565b6020808252602e908201527f756e61626c6520746f2063616c6c20756e74696c20636f76657261676520706560408201526d1c9a5bd9081a185cc8195b99195960921b606082015260800190565b6020808252601290820152712ab730b13632903a37903a3930b739b332b960711b604082015260600190565b60208082526017908201527621b0b73737ba103a3930b739b332b9103a379039b2b63360491b604082015260600190565b60208082526028908201527f536f75726365206d75737420626520746865206f7261636c65206f6620746865604082015267081c995c5d595cdd60c21b606082015260800190565b60008219821115611bf657611bf6611dbd565b500190565b600082611c0a57611c0a611dd3565b500490565b80825b6001808611611c215750611c4c565b818704821115611c3357611c33611dbd565b80861615611c4057918102915b9490941c938002611c12565b94509492505050565b6000610ff16000198484600082611c6e57506001610ff1565b81611c7b57506000610ff1565b8160018114611c915760028114611c9b57611cc8565b6001915050610ff1565b60ff841115611cac57611cac611dbd565b6001841b915084821115611cc257611cc2611dbd565b50610ff1565b5060208310610133831016604e8410600b8410161715611cfb575081810a83811115611cf657611cf6611dbd565b610ff1565b611d088484846001611c0f565b808604821115611d1a57611d1a611dbd565b02949350505050565b6000816000190483118215151615611d3d57611d3d611dbd565b500290565b600082821015611d5457611d54611dbd565b500390565b600281046001821680611d6d57607f821691505b6020821081141561170057634e487b7160e01b600052602260045260246000fd5b6000600019821415611da257611da2611dbd565b5060010190565b600082611db857611db8611dd3565b500690565b634e487b7160e01b600052601160045260246000fd5b634e487b7160e01b600052601260045260246000fdfea264697066735822122013ce8daad3fd2ea436c5a02d8c574777649b49404ac9f395e7359c3b190e408064736f6c63430008000033a2646970667358221220b370feecd7c97e5673880495c78c058b8638b553158792cbd5991d793717d38c64736f6c63430008000033",
  "linkReferences": {},
  "deployedLinkReferences": {}
}