{
  "_format": "hh-sol-artifact-1",
  "contractName": "RainfallDerivativeProvider",
  "sourceName": "contracts/RainfallDerivativeFactory.sol",
  "abi": [
    {
      "inputs": [],
      "stateMutability": "nonpayable",
      "type": "constructor"
    },
    {
      "anonymous": false,
      "inputs": [
        {
          "indexed": true,
          "internalType": "address",
          "name": "from",
          "type": "address"
        },
        {
          "indexed": true,
          "internalType": "address",
          "name": "to",
          "type": "address"
        }
      ],
      "name": "OwnershipTransferRequested",
      "type": "event"
    },
    {
      "anonymous": false,
      "inputs": [
        {
          "indexed": true,
          "internalType": "address",
          "name": "from",
          "type": "address"
        },
        {
          "indexed": true,
          "internalType": "address",
          "name": "to",
          "type": "address"
        }
      ],
      "name": "OwnershipTransferred",
      "type": "event"
    },
    {
      "anonymous": false,
      "inputs": [
        {
          "indexed": false,
          "internalType": "address",
          "name": "_contract",
          "type": "address"
        },
        {
          "indexed": false,
          "internalType": "string",
          "name": "_id",
          "type": "string"
        }
      ],
      "name": "contractCreated",
      "type": "event"
    },
    {
      "inputs": [],
      "name": "LINK_ADDRESS",
      "outputs": [
        {
          "internalType": "address",
          "name": "",
          "type": "address"
        }
      ],
      "stateMutability": "view",
      "type": "function"
    },
    {
      "inputs": [],
      "name": "ORACLE_BANK",
      "outputs": [
        {
          "internalType": "address",
          "name": "",
          "type": "address"
        }
      ],
      "stateMutability": "view",
      "type": "function"
    },
    {
      "inputs": [],
      "name": "acceptOwnership",
      "outputs": [],
      "stateMutability": "nonpayable",
      "type": "function"
    },
    {
      "inputs": [
        {
          "internalType": "string",
          "name": "_id",
          "type": "string"
        },
        {
          "internalType": "address",
          "name": "_oracle",
          "type": "address"
        },
        {
          "internalType": "string",
          "name": "_job",
          "type": "string"
        }
      ],
      "name": "addContractJob",
      "outputs": [],
      "stateMutability": "nonpayable",
      "type": "function"
    },
    {
      "inputs": [
        {
          "internalType": "string",
          "name": "",
          "type": "string"
        }
      ],
      "name": "contracts",
      "outputs": [
        {
          "internalType": "contract RainfallOption",
          "name": "",
          "type": "address"
        }
      ],
      "stateMutability": "view",
      "type": "function"
    },
    {
      "inputs": [
        {
          "internalType": "string",
          "name": "_id",
          "type": "string"
        }
      ],
      "name": "endContractInstance",
      "outputs": [],
      "stateMutability": "nonpayable",
      "type": "function"
    },
    {
      "inputs": [],
      "name": "endProviderContract",
      "outputs": [],
      "stateMutability": "nonpayable",
      "type": "function"
    },
    {
      "inputs": [
        {
          "internalType": "string",
          "name": "_id",
          "type": "string"
        }
      ],
      "name": "getContract",
      "outputs": [
        {
          "internalType": "contract RainfallOption",
          "name": "",
          "type": "address"
        }
      ],
      "stateMutability": "view",
      "type": "function"
    },
    {
      "inputs": [
        {
          "internalType": "string",
          "name": "_id",
          "type": "string"
        }
      ],
      "name": "getContractAddress",
      "outputs": [
        {
          "internalType": "address",
          "name": "",
          "type": "address"
        }
      ],
      "stateMutability": "view",
      "type": "function"
    },
    {
      "inputs": [
        {
          "internalType": "string",
          "name": "_id",
          "type": "string"
        }
      ],
      "name": "getContractPayout",
      "outputs": [
        {
          "internalType": "uint256",
          "name": "",
          "type": "uint256"
        }
      ],
      "stateMutability": "view",
      "type": "function"
    },
    {
      "inputs": [],
      "name": "getETHBalance",
      "outputs": [
        {
          "internalType": "uint256",
          "name": "",
          "type": "uint256"
        }
      ],
      "stateMutability": "view",
      "type": "function"
    },
    {
      "inputs": [],
      "name": "getLINKBalance",
      "outputs": [
        {
          "internalType": "uint256",
          "name": "",
          "type": "uint256"
        }
      ],
      "stateMutability": "view",
      "type": "function"
    },
    {
      "inputs": [
        {
          "internalType": "string",
          "name": "_id",
          "type": "string"
        }
      ],
      "name": "initiateContractEvaluation",
      "outputs": [],
      "stateMutability": "nonpayable",
      "type": "function"
    },
    {
      "inputs": [
        {
          "internalType": "string[]",
          "name": "_locations",
          "type": "string[]"
        },
        {
          "internalType": "string[8]",
          "name": "_parameters",
          "type": "string[8]"
        },
        {
          "internalType": "uint256",
          "name": "_end",
          "type": "uint256"
        }
      ],
      "name": "newContract",
      "outputs": [],
      "stateMutability": "nonpayable",
      "type": "function"
    },
    {
      "inputs": [],
      "name": "owner",
      "outputs": [
        {
          "internalType": "address",
          "name": "",
          "type": "address"
        }
      ],
      "stateMutability": "view",
      "type": "function"
    },
    {
      "inputs": [
        {
          "internalType": "string",
          "name": "_id",
          "type": "string"
        },
        {
          "internalType": "string",
          "name": "_job",
          "type": "string"
        }
      ],
      "name": "removeContractJob",
      "outputs": [],
      "stateMutability": "nonpayable",
      "type": "function"
    },
    {
      "inputs": [
        {
          "internalType": "address",
          "name": "to",
          "type": "address"
        }
      ],
      "name": "transferOwnership",
      "outputs": [],
      "stateMutability": "nonpayable",
      "type": "function"
    }
  ],
  "bytecode": "0x608060405234801561001057600080fd5b50338060008161003b5760405162461bcd60e51b8152600401610032906100ed565b60405180910390fd5b600080546001600160a01b0319166001600160a01b038481169190911790915581161561006b5761006b81610073565b50505061015b565b6001600160a01b03811633141561009c5760405162461bcd60e51b815260040161003290610124565b600180546001600160a01b0319166001600160a01b0383811691821790925560008054604051929316917fed8889f560326eb138920d842192f0eb3dd22b4f139c87a2c57538e05bae12789190a350565b60208082526018908201527f43616e6e6f7420736574206f776e657220746f207a65726f0000000000000000604082015260600190565b60208082526017908201527f43616e6e6f74207472616e7366657220746f2073656c66000000000000000000604082015260600190565b6136d8806200016b6000396000f3fe60806040523480156200001157600080fd5b5060043610620001005760003560e01c80638c5b8385116200009f5780638c5b838514620001a85780638da5cb5b14620001bf578063ac428e7a14620001c9578063c8a7603514620001d3578063ccc3579c14620001ea578063d1de1e351462000201578063ed08d8eb1462000218578063f046a97f1462000222578063f2fde38b146200022c5762000100565b806304433bbc146200010557806320751f1e14620001345780633581777314620001055780634aff8754146200014d578063504084ac14620001645780636e947298146200017b57806379ba50971462000194578063849aead8146200019e575b600080fd5b6200011c6200011636600462000ed0565b62000243565b6040516200012b91906200109c565b60405180910390f35b6200014b6200014536600462000f87565b62000278565b005b6200014b6200015e36600462000dd6565b62000313565b6200014b6200017536600462000ed0565b62000532565b620001856200071c565b6040516200012b919062001113565b6200014b6200072d565b6200014b620007b1565b6200011c620001b936600462000ed0565b62000911565b6200011c62000937565b6200018562000946565b62000185620001e436600462000ed0565b620009e7565b6200014b620001fb36600462000ed0565b62000a87565b6200014b6200021236600462000f0e565b62000b0f565b6200011c62000b8f565b6200011c62000ba7565b6200014b6200023d36600462000db2565b62000bbf565b60006002826040516200025791906200107e565b908152604051908190036020019020546001600160a01b031690505b919050565b6200028262000bd7565b6002826040516200029491906200107e565b908152604051908190036020019020546001600160a01b0316633612820d620002bd8362000c06565b6040518263ffffffff1660e01b8152600401620002db919062001113565b600060405180830381600087803b158015620002f657600080fd5b505af11580156200030b573d6000803e3d6000fd5b505050505050565b6200031d62000bd7565b60006040516200032d9062000ca3565b604051809103906000f0801580156200034a573d6000803e3d6000fd5b5060405163660754a160e01b81529091506001600160a01b0382169063660754a1906200039f9066038d7ea4c680009073a36085f69e2889c224210f603d836748e7dc0088908990899089906004016200120e565b600060405180830381600087803b158015620003ba57600080fd5b505af1158015620003cf573d6000803e3d6000fd5b50505050806001600160a01b031663ddc972277358935f97ab874bc4181bc1a3a85fde2ca80885cd620004376040518060400160405280602081526020017f643038656261666432376465346535303836323430613135623266623162646581525062000c06565b6040518363ffffffff1660e01b815260040162000456929190620010d4565b600060405180830381600087803b1580156200047157600080fd5b505af115801562000486573d6000803e3d6000fd5b5050505080600284600060088110620004af57634e487b7160e01b600052603260045260246000fd5b6020020151604051620004c391906200107e565b90815260405190819003602001812080546001600160a01b03939093166001600160a01b03199093169290921790915583517f1b08e1646439b7521399d47f93ab6b1ebc92803e155d0b2f2ad2d4702a0508049162000524918491620010ed565b60405180910390a150505050565b6200053c62000bd7565b60006002826040516200055091906200107e565b90815260408051918290036020908101832054637e0c00ed60e01b845291516001600160a01b03909216935073a36085f69e2889c224210f603d836748e7dc00889283926323b872dd927369640770407a09b166aed26b778699045b3047689287928392637e0c00ed9260048082019391829003018186803b158015620005d657600080fd5b505afa158015620005eb573d6000803e3d6000fd5b505050506040513d601f19601f8201168201806040525081019062000611919062000fee565b620006249066038d7ea4c68000620012d2565b6040518463ffffffff1660e01b81526004016200064493929190620010b0565b602060405180830381600087803b1580156200065f57600080fd5b505af115801562000674573d6000803e3d6000fd5b505050506040513d601f19601f820116820180604052508101906200069a919062000eae565b620006c25760405162461bcd60e51b8152600401620006b9906200114c565b60405180910390fd5b816001600160a01b031663186395cf6040518163ffffffff1660e01b8152600401600060405180830381600087803b158015620006fe57600080fd5b505af115801562000713573d6000803e3d6000fd5b50505050505050565b60006200072862000bd7565b504790565b6001546001600160a01b031633146200075a5760405162461bcd60e51b8152600401620006b9906200111c565b60008054336001600160a01b0319808316821784556001805490911690556040516001600160a01b0390921692909183917f8be0079c531659141344cd1fd0a4f28419497f9722a3daafe3b4186f6b6457e091a350565b620007bb62000bd7565b6040516370a0823160e01b815273a36085f69e2889c224210f603d836748e7dc008890819063a9059cbb907369640770407a09b166aed26b778699045b3047689083906370a0823190620008149030906004016200109c565b60206040518083038186803b1580156200082d57600080fd5b505afa15801562000842573d6000803e3d6000fd5b505050506040513d601f19601f8201168201806040525081019062000868919062000fee565b6040518363ffffffff1660e01b815260040162000887929190620010d4565b602060405180830381600087803b158015620008a257600080fd5b505af1158015620008b7573d6000803e3d6000fd5b505050506040513d601f19601f82011682018060405250810190620008dd919062000eae565b620008fc5760405162461bcd60e51b8152600401620006b990620011b1565b6200090662000937565b6001600160a01b0316ff5b80516020818301810180516002825292820191909301209152546001600160a01b031681565b6000546001600160a01b031690565b60006200095262000bd7565b6040516370a0823160e01b815273a36085f69e2889c224210f603d836748e7dc00889081906370a08231906200098d9030906004016200109c565b60206040518083038186803b158015620009a657600080fd5b505afa158015620009bb573d6000803e3d6000fd5b505050506040513d601f19601f82011682018060405250810190620009e1919062000fee565b91505090565b6000600282604051620009fb91906200107e565b908152604080516020928190038301812054637d065c9360e01b825291516001600160a01b0390921692637d065c9392600480840193829003018186803b15801562000a4657600080fd5b505afa15801562000a5b573d6000803e3d6000fd5b505050506040513d601f19601f8201168201806040525081019062000a81919062000fee565b92915050565b62000a9162000bd7565b60028160405162000aa391906200107e565b908152604080519182900360200182205463461cf76f60e01b835290516001600160a01b039091169163461cf76f91600480830192600092919082900301818387803b15801562000af357600080fd5b505af115801562000b08573d6000803e3d6000fd5b5050505050565b62000b1962000bd7565b60028360405162000b2b91906200107e565b908152604051908190036020019020546001600160a01b031663ddc972278362000b558462000c06565b6040518363ffffffff1660e01b815260040162000b74929190620010d4565b600060405180830381600087803b158015620006fe57600080fd5b73a36085f69e2889c224210f603d836748e7dc008881565b7369640770407a09b166aed26b778699045b30476881565b62000bc962000bd7565b62000bd48162000c26565b50565b6000546001600160a01b0316331462000c045760405162461bcd60e51b8152600401620006b99062001181565b565b8051600090829062000c1d57506000905062000273565b50506020015190565b6001600160a01b03811633141562000c525760405162461bcd60e51b8152600401620006b990620011dd565b600180546001600160a01b0319166001600160a01b0383811691821790925560008054604051929316917fed8889f560326eb138920d842192f0eb3dd22b4f139c87a2c57538e05bae12789190a350565b61235b806200134883390190565b80356001600160a01b03811681146200027357600080fd5b600082601f83011262000cda578081fd5b60405161010081018181106001600160401b038211171562000d005762000d0062001331565b6040528083835b600881101562000d365762000d20878335880162000d41565b8352602092830192919091019060010162000d07565b509195945050505050565b600082601f83011262000d52578081fd5b81356001600160401b0381111562000d6e5762000d6e62001331565b62000d83601f8201601f1916602001620012a6565b81815284602083860101111562000d98578283fd5b816020850160208301379081016020019190915292915050565b60006020828403121562000dc4578081fd5b62000dcf8262000cb1565b9392505050565b60008060006060848603121562000deb578182fd5b83356001600160401b038082111562000e02578384fd5b818601915086601f83011262000e16578384fd5b813560208282111562000e2d5762000e2d62001331565b62000e3c8182840201620012a6565b82815281810190858301885b8581101562000e755762000e628d8684358b010162000d41565b8452928401929084019060010162000e48565b5090985050508701359250508082111562000e8e578384fd5b5062000e9d8682870162000cc9565b925050604084013590509250925092565b60006020828403121562000ec0578081fd5b8151801515811462000dcf578182fd5b60006020828403121562000ee2578081fd5b81356001600160401b0381111562000ef8578182fd5b62000f068482850162000d41565b949350505050565b60008060006060848603121562000f23578283fd5b83356001600160401b038082111562000f3a578485fd5b62000f488783880162000d41565b945062000f586020870162000cb1565b9350604086013591508082111562000f6e578283fd5b5062000f7d8682870162000d41565b9150509250925092565b6000806040838503121562000f9a578182fd5b82356001600160401b038082111562000fb1578384fd5b62000fbf8683870162000d41565b9350602085013591508082111562000fd5578283fd5b5062000fe48582860162000d41565b9150509250929050565b60006020828403121562001000578081fd5b5051919050565b600082610100810183835b6008811015620010455783830387526200102e83835162001050565b602097880197909350919091019060010162001012565b509095945050505050565b600081518084526200106a816020860160208601620012fe565b601f01601f19169290920160200192915050565b6000825162001092818460208701620012fe565b9190910192915050565b6001600160a01b0391909116815260200190565b6001600160a01b039384168152919092166020820152604081019190915260600190565b6001600160a01b03929092168252602082015260400190565b6001600160a01b038316815260406020820181905260009062000f069083018462001050565b90815260200190565b60208082526016908201527526bab9ba10313290383937b837b9b2b21037bbb732b960511b604082015260600190565b6020808252818101527f556e61626c6520746f2066756e64206465706c6f79656420636f6e7472616374604082015260600190565b60208082526016908201527527b7363c9031b0b63630b1363290313c9037bbb732b960511b604082015260600190565b6020808252601290820152712ab730b13632903a37903a3930b739b332b960711b604082015260600190565b60208082526017908201527621b0b73737ba103a3930b739b332b9103a379039b2b63360491b604082015260600190565b600060a08201878352602060018060a01b0388168185015260a0604085015281875180845260c08601915060c08382028701019350828901855b828110156200127a5760bf198887030184526200126786835162001050565b9550928401929084019060010162001248565b5050505050828103606084015262001293818662001007565b9150508260808301529695505050505050565b6040518181016001600160401b0381118282101715620012ca57620012ca62001331565b604052919050565b6000816000190483118215151615620012f957634e487b7160e01b81526011600452602481fd5b500290565b60005b838110156200131b57818101518382015260200162001301565b838111156200132b576000848401525b50505050565b634e487b7160e01b600052604160045260246000fdfe608060405260016004553480156200001657600080fd5b503380600081620000445760405162461bcd60e51b81526004016200003b9062000112565b60405180910390fd5b600680546001600160a01b0319166001600160a01b03848116919091179091558116156200007757620000778162000094565b505060006018819055600c805460ff19169055600d555062000180565b6001600160a01b038116331415620000c05760405162461bcd60e51b81526004016200003b9062000149565b600780546001600160a01b0319166001600160a01b03838116918217909255600654604051919216907fed8889f560326eb138920d842192f0eb3dd22b4f139c87a2c57538e05bae127890600090a350565b60208082526018908201527f43616e6e6f7420736574206f776e657220746f207a65726f0000000000000000604082015260600190565b60208082526017908201527f43616e6e6f74207472616e7366657220746f2073656c66000000000000000000604082015260600190565b6121cb80620001906000396000f3fe608060405234801561001057600080fd5b50600436106101015760003560e01c806364f1cb741161009d57806364f1cb74146101c4578063660754a1146101d757806379ba5097146101ea5780637d065c93146101f25780637e0c00ed146101fa5780638da5cb5b14610202578063ac428e7a1461020a578063b9e0db3514610212578063ddc9722714610225578063f2fde38b1461023857610101565b8063180aedf314610106578063186395cf1461012f5780632a4a9dd1146101395780633612820d146101595780633c54689f1461016c578063461cf76f1461017f5780635b69a7d814610187578063602f144b146101a757806363bd1d4a146101bc575b600080fd5b610119610114366004611a9f565b61024b565b6040516101269190611d56565b60405180910390f35b61013761026c565b005b61014c610147366004611a9f565b610786565b6040516101269190611d5f565b610137610167366004611a9f565b610826565b61013761017a366004611ab7565b6109f6565b610137610c3c565b61019a610195366004611a9f565b610d81565b6040516101269190611c3c565b6101af610dab565b6040516101269190611d4b565b610119610db4565b6101196101d2366004611a9f565b610dba565b6101376101e5366004611af0565b610dcc565b610137610e0d565b610119610e92565b610119610e98565b61019a610e9e565b610119610ead565b61014c610220366004611a9f565b610f3d565b610137610233366004611a56565b610f68565b610137610246366004611a3c565b61100b565b600b818154811061025b57600080fd5b600091825260209091200154905081565b61027461101f565b426017541061029e5760405162461bcd60e51b815260040161029590611e5d565b60405180910390fd5b7ff1c35e3933051ea28efca558462a55cac66003050f2c6f4e96833a696fa444e230426040516102cf929190611c79565b60405180910390a1600854600a8054604080516020808402820181019092528281526000939092909183018282801561033157602002820191906000526020600020905b81546001600160a01b03168152600190910190602001808311610313575b505050505090506000600b80548060200260200160405190810160405280929190818152602001828054801561038657602002820191906000526020600020905b815481526020019060010190808311610372575b505050505090506000600e805480602002602001604051908101604052809291908181526020016000905b8282101561045d5783829060005260206000200180546103d0906120ef565b80601f01602080910402602001604051908101604052809291908181526020018280546103fc906120ef565b80156104495780601f1061041e57610100808354040283529160200191610449565b820191906000526020600020905b81548152906001019060200180831161042c57829003601f168201915b5050505050815260200190600101906103b1565b50506040805161010081019091529293506000929150600f9050600883835b8282101561051f578382018054610492906120ef565b80601f01602080910402602001604051908101604052809291908181526020018280546104be906120ef565b801561050b5780601f106104e05761010080835404028352916020019161050b565b820191906000526020600020905b8154815290600101906020018083116104ee57829003601f168201915b50505050508152602001906001019061047c565b5050505090506000805b8551811461077b57600061056c86838151811061055657634e487b7160e01b600052603260045260246000fd5b602002602001015130633c54689f60e01b61104b565b6040805180820190915260098152686c6f636174696f6e7360b81b602082015290915061059b90829087611072565b60408051808201909152600781526619185d185cd95d60ca1b60208201526105ce908560015b60200201518391906110fd565b6040805180820190915260088152676f70745f7479706560c01b60208201526105f9908560026105c1565b6040805180820190915260058152641cdd185c9d60da1b6020820152610621908560036105c1565b604080518082019091526003815262195b9960ea1b6020820152610647908560046105c1565b604080518082019091526006815265737472696b6560d01b6020820152610670908560056105c1565b6040805180820190915260058152641b1a5b5a5d60da1b6020820152610698908560066105c1565b6040805180820190915260048152637469636b60e01b60208201526106bf908560076105c1565b60006106f38884815181106106e457634e487b7160e01b600052603260045260246000fd5b6020026020010151838b61111b565b9050610700600185611f79565b93507f8a9d8e27cea77dd32eb51cfaf81bfc3fded7c7eeec5de203c4a8ad17c930fda73089858151811061074457634e487b7160e01b600052603260045260246000fd5b6020026020010151834260405161075e9493929190611c50565b60405180910390a1506107749050600182611f79565b9050610529565b50600d555050505050565b600f816008811061079657600080fd5b0180549091506107a5906120ef565b80601f01602080910402602001604051908101604052809291908181526020018280546107d1906120ef565b801561081e5780601f106107f35761010080835404028352916020019161081e565b820191906000526020600020905b81548152906001019060200180831161080157829003601f168201915b505050505081565b61082e61101f565b600081815260096020526040902054600a805461084d906001906120d8565b8154811061086b57634e487b7160e01b600052603260045260246000fd5b600091825260209091200154600a80546001600160a01b0390921691839081106108a557634e487b7160e01b600052603260045260246000fd5b9060005260206000200160006101000a8154816001600160a01b0302191690836001600160a01b03160217905550600a8054806108f257634e487b7160e01b600052603160045260246000fd5b600082815260209020810160001990810180546001600160a01b0319169055019055600b8054610924906001906120d8565b8154811061094257634e487b7160e01b600052603260045260246000fd5b9060005260206000200154600b828154811061096e57634e487b7160e01b600052603260045260246000fd5b600091825260209091200155600b80548061099957634e487b7160e01b600052603160045260246000fd5b600190038181906000526020600020016000905590558060096000600b84815481106109d557634e487b7160e01b600052603260045260246000fd5b90600052602060002001548152602001908152602001600020819055505050565b60008281526005602052604090205482906001600160a01b03163314610a2e5760405162461bcd60e51b815260040161029590611f08565b60008181526005602052604080822080546001600160a01b03191690555182917f7cc135e0cebb02c3480ae5d74d377283180a2601f8f644edf7987b009316c63a91a28160186000828254610a839190611f79565b925050819055506001600d6000828254610a9d91906120d8565b9091555050600d54610bfc57600a5460188054600090610abe908490611f91565b9091555050600c805460ff191660011790556000610ada61113a565b9050806001600160a01b031663a9059cbb610af3610e9e565b6040516370a0823160e01b81526001600160a01b038516906370a0823190610b1f903090600401611c3c565b60206040518083038186803b158015610b3757600080fd5b505afa158015610b4b573d6000803e3d6000fd5b505050506040513d601f19601f82011682018060405250810190610b6f9190611ad8565b6040518363ffffffff1660e01b8152600401610b8c929190611c79565b602060405180830381600087803b158015610ba657600080fd5b505af1158015610bba573d6000803e3d6000fd5b505050506040513d601f19601f82011682018060405250810190610bde9190611a7f565b610bfa5760405162461bcd60e51b815260040161029590611d72565b505b7f8b08e29b6d8230eac33ee2a434b338e6589507f4f1082daa4042159a06333345308342604051610c2f93929190611d2a565b60405180910390a1505050565b610c4461101f565b6000610c4e61113a565b9050806001600160a01b031663a9059cbb610c67610e9e565b6040516370a0823160e01b81526001600160a01b038516906370a0823190610c93903090600401611c3c565b60206040518083038186803b158015610cab57600080fd5b505afa158015610cbf573d6000803e3d6000fd5b505050506040513d601f19601f82011682018060405250810190610ce39190611ad8565b6040518363ffffffff1660e01b8152600401610d00929190611c79565b602060405180830381600087803b158015610d1a57600080fd5b505af1158015610d2e573d6000803e3d6000fd5b505050506040513d601f19601f82011682018060405250810190610d529190611a7f565b610d6e5760405162461bcd60e51b815260040161029590611eab565b610d76610e9e565b6001600160a01b0316ff5b600a8181548110610d9157600080fd5b6000918252602090912001546001600160a01b0316905081565b600c5460ff1681565b60185481565b60096020526000908152604090205481565b610dd461101f565b6008859055610de284611149565b8251610df590600e90602086019061176c565b50610e03600f8360086117c9565b5060175550505050565b6007546001600160a01b03163314610e375760405162461bcd60e51b815260040161029590611dba565b600680546001600160a01b0319808216339081179093556007805490911690556040516001600160a01b03909116919082907f8be0079c531659141344cd1fd0a4f28419497f9722a3daafe3b4186f6b6457e090600090a350565b60185490565b600b5490565b6006546001600160a01b031690565b600080610eb861113a565b6040516370a0823160e01b81529091506001600160a01b038216906370a0823190610ee7903090600401611c3c565b60206040518083038186803b158015610eff57600080fd5b505afa158015610f13573d6000803e3d6000fd5b505050506040513d601f19601f82011682018060405250810190610f379190611ad8565b91505090565b600e8181548110610f4d57600080fd5b9060005260206000200160009150905080546107a5906120ef565b610f7061101f565b600a8054600180820183557fc65a7bb8d6351c1cf70c95a316cc6a92839c986682d98bc35f958f4883f9d2a890910180546001600160a01b0319166001600160a01b038616179055600b805480830182556000919091527f0175b7a638427703f0dbe7bb9bbf987a2551717b34e79f33b5b1008d1fa01db9018390559054610ff891906120d8565b6000918252600960205260409091205550565b61101361101f565b61101c8161116b565b50565b6006546001600160a01b031633146110495760405162461bcd60e51b815260040161029590611e2d565b565b611053611809565b61105b611809565b611067818686866111e6565b9150505b9392505050565b60808301516110819083611223565b61108e836080015161123a565b60005b81518110156110ea576110d88282815181106110bd57634e487b7160e01b600052603260045260246000fd5b6020026020010151856080015161122390919063ffffffff16565b806110e281612124565b915050611091565b506110f88360800151611245565b505050565b608083015161110c9083611223565b60808301516110f89082611223565b600061113284848460016320214ca360e11b611250565b949350505050565b6002546001600160a01b031690565b600280546001600160a01b0319166001600160a01b0392909216919091179055565b6001600160a01b0381163314156111945760405162461bcd60e51b815260040161029590611ed7565b600780546001600160a01b0319166001600160a01b03838116918217909255600654604051919216907fed8889f560326eb138920d842192f0eb3dd22b4f139c87a2c57538e05bae127890600090a350565b6111ee611809565b6111fe856080015161010061140b565b50509183526001600160a01b031660208301526001600160e01b031916604082015290565b6112308260038351611469565b6110f88282611542565b61101c81600461155c565b61101c81600761155c565b600030600454604051602001611267929190611c1f565b60408051808303601f19018152918152815160209283012060045460608901526000818152600590935281832080546001600160a01b0319166001600160a01b038b16179055905190925082917fb5e6e01e79f91267dc17b4e6314d5d4d03593d2ceee0fbb452b750bd70ea5af991a2600082600080886000015189602001518a604001518b606001518a8d6080015160000151604051602401611312989796959493929190611c92565b60408051601f198184030181529181526020820180516001600160e01b03166001600160e01b0319909416939093179092526002549151630200057560e51b81529092506001600160a01b0390911690634000aea09061137a908a9089908690600401611cfa565b602060405180830381600087803b15801561139457600080fd5b505af11580156113a8573d6000803e3d6000fd5b505050506040513d601f19601f820116820180604052508101906113cc9190611a7f565b6113e85760405162461bcd60e51b815260040161029590611dea565b6001600460008282546113fb9190611f79565b9091555091979650505050505050565b61141361183e565b61141e60208361213f565b156114465761142e60208361213f565b6114399060206120d8565b6114439083611f79565b91505b506020808301829052604080518085526000815283019091019052815b92915050565b6017811161148a576114848360e0600585901b16831761156d565b506110f8565b60ff81116114b4576114a7836018611fe0600586901b161761156d565b5061148483826001611585565b61ffff81116114df576114d2836019611fe0600586901b161761156d565b5061148483826002611585565b63ffffffff811161150c576114ff83601a611fe0600586901b161761156d565b5061148483826004611585565b6001600160401b0381116110f85761152f83601b611fe0600586901b161761156d565b5061153c83826008611585565b50505050565b61154a61183e565b61106b8384600001515184855161159e565b6110f882601f611fe0600585901b16175b61157561183e565b61106b838460000151518461167b565b61158d61183e565b6111328485600001515185856116ca565b6115a661183e565b82518211156115b457600080fd5b60208501516115c38386611f79565b11156115f6576115f6856115e6876020015187866115e19190611f79565b61173e565b6115f19060026120b9565b611755565b6000808651805187602083010193508088870111156116155787860182525b505050602084015b602084106116555780518252611634602083611f79565b9150611641602082611f79565b905061164e6020856120d8565b935061161d565b51815160001960208690036101000a019081169019919091161790525083949350505050565b61168361183e565b836020015183106116a3576116a384856020015160026115f191906120b9565b8351805160208583010184815350808514156116c0576001810182525b5093949350505050565b6116d261183e565b60208501516116e18584611f79565b11156116f5576116f5856115e68685611f79565b6000600161170584610100611feb565b61170f91906120d8565b90508551838682010185831982511617815250805184870111156117335783860181525b509495945050505050565b60008183111561174f575081611463565b50919050565b8151611761838361140b565b5061153c8382611542565b8280548282559060005260206000209081019282156117b9579160200282015b828111156117b957825180516117a9918491602090910190611858565b509160200191906001019061178c565b506117c59291506118d8565b5090565b82600881019282156117b9579160200282015b828111156117b957825180516117f9918491602090910190611858565b50916020019190600101906117dc565b6040805160a08101825260008082526020820181905291810182905260608101919091526080810161183961183e565b905290565b604051806040016040528060608152602001600081525090565b828054611864906120ef565b90600052602060002090601f01602090048101928261188657600085556118cc565b82601f1061189f57805160ff19168380011785556118cc565b828001600101855582156118cc579182015b828111156118cc5782518255916020019190600101906118b1565b506117c59291506118f5565b808211156117c55760006118ec828261190a565b506001016118d8565b5b808211156117c557600081556001016118f6565b508054611916906120ef565b6000825580601f10611928575061101c565b601f01602090049060005260206000209081019061101c91906118f5565b80356001600160a01b038116811461195d57600080fd5b919050565b600082601f830112611972578081fd5b60405161010081018181106001600160401b03821117156119955761199561217f565b6040528083835b60088110156119c7576119b287833588016119d2565b8352602092830192919091019060010161199c565b509195945050505050565b600082601f8301126119e2578081fd5b81356001600160401b038111156119fb576119fb61217f565b611a0e601f8201601f1916602001611f50565b818152846020838601011115611a22578283fd5b816020850160208301379081016020019190915292915050565b600060208284031215611a4d578081fd5b61106b82611946565b60008060408385031215611a68578081fd5b611a7183611946565b946020939093013593505050565b600060208284031215611a90578081fd5b8151801515811461106b578182fd5b600060208284031215611ab0578081fd5b5035919050565b60008060408385031215611ac9578182fd5b50508035926020909101359150565b600060208284031215611ae9578081fd5b5051919050565b600080600080600060a08688031215611b07578081fd5b853594506020611b18818801611946565b945060408701356001600160401b0380821115611b33578384fd5b818901915089601f830112611b46578384fd5b813581811115611b5857611b5861217f565b611b658485830201611f50565b81815284810190848601875b84811015611b9a57611b888f8984358a01016119d2565b84529287019290870190600101611b71565b509098505050506060890135925080831115611bb4578384fd5b5050611bc288828901611962565b95989497509295608001359392505050565b60008151808452815b81811015611bf957602081850181015186830182015201611bdd565b81811115611c0a5782602083870101525b50601f01601f19169290920160200192915050565b60609290921b6001600160601b0319168252601482015260340190565b6001600160a01b0391909116815260200190565b6001600160a01b0394851681529290931660208301526040820152606081019190915260800190565b6001600160a01b03929092168252602082015260400190565b6001600160a01b0389811682526020820189905260408201889052861660608201526001600160e01b03198516608082015260a0810184905260c0810183905261010060e08201819052600090611ceb83820185611bd4565b9b9a5050505050505050505050565b600060018060a01b038516825283602083015260606040830152611d216060830184611bd4565b95945050505050565b6001600160a01b039390931683526020830191909152604082015260600190565b901515815260200190565b90815260200190565b60006020825261106b6020830184611bd4565b60208082526028908201527f556e61626c6520746f207472616e736665722072656d61696e696e67204c494e6040820152674b20746f6b656e7360c01b606082015260800190565b60208082526016908201527526bab9ba10313290383937b837b9b2b21037bbb732b960511b604082015260600190565b60208082526023908201527f756e61626c6520746f207472616e73666572416e6443616c6c20746f206f7261604082015262636c6560e81b606082015260800190565b60208082526016908201527527b7363c9031b0b63630b1363290313c9037bbb732b960511b604082015260600190565b6020808252602e908201527f756e61626c6520746f2063616c6c20756e74696c20636f76657261676520706560408201526d1c9a5bd9081a185cc8195b99195960921b606082015260800190565b6020808252601290820152712ab730b13632903a37903a3930b739b332b960711b604082015260600190565b60208082526017908201527621b0b73737ba103a3930b739b332b9103a379039b2b63360491b604082015260600190565b60208082526028908201527f536f75726365206d75737420626520746865206f7261636c65206f6620746865604082015267081c995c5d595cdd60c21b606082015260800190565b6040518181016001600160401b0381118282101715611f7157611f7161217f565b604052919050565b60008219821115611f8c57611f8c612153565b500190565b600082611fa057611fa0612169565b500490565b80825b6001808611611fb75750611fe2565b818704821115611fc957611fc9612153565b80861615611fd657918102915b9490941c938002611fa8565b94509492505050565b600061106b60001984846000826120045750600161106b565b816120115750600061106b565b816001811461202757600281146120315761205e565b600191505061106b565b60ff84111561204257612042612153565b6001841b91508482111561205857612058612153565b5061106b565b5060208310610133831016604e8410600b8410161715612091575081810a8381111561208c5761208c612153565b61106b565b61209e8484846001611fa5565b8086048211156120b0576120b0612153565b02949350505050565b60008160001904831182151516156120d3576120d3612153565b500290565b6000828210156120ea576120ea612153565b500390565b60028104600182168061210357607f821691505b6020821081141561174f57634e487b7160e01b600052602260045260246000fd5b600060001982141561213857612138612153565b5060010190565b60008261214e5761214e612169565b500690565b634e487b7160e01b600052601160045260246000fd5b634e487b7160e01b600052601260045260246000fd5b634e487b7160e01b600052604160045260246000fdfea2646970667358221220de12583275c6ce16d14044e26fd1754122ac2c4319e6b0c6ca8d098807f759ac64736f6c63430008000033a26469706673582212208d3beef4dac835e946d113634c5fe7e4c4c6ee5b134f4068bac0c43990d0331b64736f6c63430008000033",
  "linkReferences": {},
  "deployedLinkReferences": {}
}