{"_format":"hh-sol-artifact-1","contractName":"BlizzardDerivativeProvider","sourceName":"contracts/BlizzardDerivativeFactory.sol","abi":[{"inputs":[],"stateMutability":"nonpayable","type":"constructor"},{"anonymous":false,"inputs":[{"indexed":false,"internalType":"address","name":"user","type":"address"}],"name":"AddedAccess","type":"event"},{"anonymous":false,"inputs":[],"name":"CheckAccessDisabled","type":"event"},{"anonymous":false,"inputs":[],"name":"CheckAccessEnabled","type":"event"},{"anonymous":false,"inputs":[{"indexed":true,"internalType":"address","name":"from","type":"address"},{"indexed":true,"internalType":"address","name":"to","type":"address"}],"name":"OwnershipTransferRequested","type":"event"},{"anonymous":false,"inputs":[{"indexed":true,"internalType":"address","name":"from","type":"address"},{"indexed":true,"internalType":"address","name":"to","type":"address"}],"name":"OwnershipTransferred","type":"event"},{"anonymous":false,"inputs":[{"indexed":false,"internalType":"address","name":"user","type":"address"}],"name":"RemovedAccess","type":"event"},{"anonymous":false,"inputs":[{"indexed":false,"internalType":"address","name":"_contract","type":"address"},{"indexed":false,"internalType":"string","name":"_id","type":"string"},{"indexed":false,"internalType":"string[]","name":"_params","type":"string[]"}],"name":"contractCreated","type":"event"},{"inputs":[],"name":"COLLATERAL_ADDRESS","outputs":[{"internalType":"address","name":"","type":"address"}],"stateMutability":"view","type":"function"},{"inputs":[],"name":"COLLATERAL_PAYMENT","outputs":[{"internalType":"uint256","name":"","type":"uint256"}],"stateMutability":"view","type":"function"},{"inputs":[],"name":"ORACLE_BANK","outputs":[{"internalType":"address","name":"","type":"address"}],"stateMutability":"view","type":"function"},{"inputs":[],"name":"PREMIUM_ADDRESS","outputs":[{"internalType":"address","name":"","type":"address"}],"stateMutability":"view","type":"function"},{"inputs":[],"name":"PREMIUM_PAYMENT","outputs":[{"internalType":"uint256","name":"","type":"uint256"}],"stateMutability":"view","type":"function"},{"inputs":[],"name":"acceptOwnership","outputs":[],"stateMutability":"nonpayable","type":"function"},{"inputs":[{"internalType":"address","name":"_user","type":"address"}],"name":"addAccess","outputs":[],"stateMutability":"nonpayable","type":"function"},{"inputs":[{"internalType":"address","name":"_oracle","type":"address"},{"internalType":"string","name":"_job","type":"string"}],"name":"addContractJob","outputs":[],"stateMutability":"nonpayable","type":"function"},{"inputs":[],"name":"blizzardContract","outputs":[{"internalType":"contract BlizzardOption","name":"","type":"address"}],"stateMutability":"view","type":"function"},{"inputs":[],"name":"checkEnabled","outputs":[{"internalType":"bool","name":"","type":"bool"}],"stateMutability":"view","type":"function"},{"inputs":[],"name":"collateralDeposited","outputs":[{"internalType":"bool","name":"","type":"bool"}],"stateMutability":"view","type":"function"},{"inputs":[],"name":"contractPaidOut","outputs":[{"internalType":"bool","name":"","type":"bool"}],"stateMutability":"view","type":"function"},{"inputs":[],"name":"depositCollateral","outputs":[],"stateMutability":"nonpayable","type":"function"},{"inputs":[],"name":"depositPremium","outputs":[],"stateMutability":"nonpayable","type":"function"},{"inputs":[],"name":"disableAccessCheck","outputs":[],"stateMutability":"nonpayable","type":"function"},{"inputs":[],"name":"enableAccessCheck","outputs":[],"stateMutability":"nonpayable","type":"function"},{"inputs":[],"name":"fulfillContractEvaluation","outputs":[],"stateMutability":"nonpayable","type":"function"},{"inputs":[],"name":"getContractEvaluated","outputs":[{"internalType":"bool","name":"","type":"bool"}],"stateMutability":"view","type":"function"},{"inputs":[],"name":"getContractParameters","outputs":[{"internalType":"string[]","name":"","type":"string[]"}],"stateMutability":"view","type":"function"},{"inputs":[],"name":"getContractPayout","outputs":[{"internalType":"uint256","name":"","type":"uint256"}],"stateMutability":"view","type":"function"},{"inputs":[{"internalType":"address","name":"_user","type":"address"},{"internalType":"bytes","name":"","type":"bytes"}],"name":"hasAccess","outputs":[{"internalType":"bool","name":"","type":"bool"}],"stateMutability":"view","type":"function"},{"inputs":[],"name":"initiateContractEvaluation","outputs":[],"stateMutability":"nonpayable","type":"function"},{"inputs":[],"name":"owner","outputs":[{"internalType":"address","name":"","type":"address"}],"stateMutability":"view","type":"function"},{"inputs":[],"name":"premiumDeposited","outputs":[{"internalType":"bool","name":"","type":"bool"}],"stateMutability":"view","type":"function"},{"inputs":[{"internalType":"address","name":"_user","type":"address"}],"name":"removeAccess","outputs":[],"stateMutability":"nonpayable","type":"function"},{"inputs":[{"internalType":"string","name":"_job","type":"string"}],"name":"removeContractJob","outputs":[],"stateMutability":"nonpayable","type":"function"},{"inputs":[{"internalType":"address","name":"to","type":"address"}],"name":"transferOwnership","outputs":[],"stateMutability":"nonpayable","type":"function"}],"bytecode":"0x60806040523480156200001157600080fd5b503380600081620000695760405162461bcd60e51b815260206004820152601860248201527f43616e6e6f7420736574206f776e657220746f207a65726f000000000000000060448201526064015b60405180910390fd5b600080546001600160a01b0319166001600160a01b03848116919091179091558116156200009c576200009c81620000c4565b50506001805460ff60a01b1916600160a01b179055506003805462ffffff1916905562000170565b6001600160a01b0381163314156200011f5760405162461bcd60e51b815260206004820152601760248201527f43616e6e6f74207472616e7366657220746f2073656c66000000000000000000604482015260640162000060565b600180546001600160a01b0319166001600160a01b0383811691821790925560008054604051929316917fed8889f560326eb138920d842192f0eb3dd22b4f139c87a2c57538e05bae12789190a350565b61409180620001806000396000f3fe60806040523480156200001157600080fd5b5060043610620001655760003560e01c8062641ba2146200016a5780630a756983146200019e57806316b204d014620001aa5780631741526f14620001b457806320165a7a14620001cd578063226df93414620001e457806339a1e70f14620001ee5780633b5868bd14620002095780633d77fbc714620002135780635acbcada146200022e5780636311d06a1462000238578063651837db14620002465780636b14daf8146200025d5780636f758140146200027457806379ba5097146200027e5780638038e4a114620002885780638823da6c14620002925780638da5cb5b14620002a957806391cb6e7114620002bb578063a118f24914620002d7578063b57d1d9b14620002ee578063bfacd9ed1462000302578063c47da4ff146200031b578063d11e7801146200032e578063dc7f01241462000338578063f046a97f146200034d578063f2fde38b1462000369575b600080fd5b6200018673a679c6154b8d4619af9f83f0bf9a13a680e01ecf81565b60405162000195919062001c07565b60405180910390f35b620001a862000380565b005b620001a8620003d6565b620001be62000890565b60405190815260200162000195565b620001a8620001de36600462001b45565b6200091f565b620001a8620009fa565b6003546200018690630100000090046001600160a01b031681565b620001a862000c04565b6200021d62000f85565b604051901515815260200162000195565b620001be6200100f565b6003546200021d9060ff1681565b620001a86200025736600462001a06565b6200102e565b6200021d6200026e366004620019a1565b6200110b565b620001a862001146565b620001a862001331565b620001a8620013dd565b620001a8620002a336600462001984565b62001437565b6000546001600160a01b031662000186565b6200018673bf417c41f3ab1e01bd6867fb540da7b734eaea9581565b620001a8620002e836600462001984565b620014c0565b6003546200021d9062010000900460ff1681565b6200030c62001540565b60405162000195919062001caf565b6003546200021d90610100900460ff1681565b620001be62001630565b6001546200021d90600160a01b900460ff1681565b620001867369640770407a09b166aed26b778699045b30476881565b620001a86200037a36600462001984565b6200164d565b6200038a62001662565b600154600160a01b900460ff1615620003d4576001805460ff60a01b191690556040517f3be8a977a014527b50ae38adda80b56911c267328965c98ddc385d248f53963890600090a15b565b62000419336000368080601f0160208091040260200160405190810160405280939291908181526020018383808284376000920191909152506200110b92505050565b620004415760405162461bcd60e51b8152600401620004389062001cc4565b60405180910390fd5b600060038054906101000a90046001600160a01b03166001600160a01b031663602f144b6040518163ffffffff1660e01b815260040160206040518083038186803b1580156200049057600080fd5b505afa158015620004a5573d6000803e3d6000fd5b505050506040513d601f19601f82011682018060405250810190620004cb919062001b1c565b9050808015620004e4575060035462010000900460ff16155b620005745760405162461bcd60e51b815260206004820152605360248201527f756e61626c6520746f2066756c66696c6c207061796f7574206265666f72652060448201527f636f6e7472616374206973206576616c7561746564206f7220616674657220636064820152721bdb9d1c9858dd081a5cc81c185a59081bdd5d606a1b608482015260a40162000438565b600073e8aa8a60c9417d8fd59eb4378687ddceed29c1b49050600060038054906101000a90046001600160a01b03166001600160a01b03166363bd1d4a6040518163ffffffff1660e01b815260040160206040518083038186803b158015620005dc57600080fd5b505afa158015620005f1573d6000803e3d6000fd5b505050506040513d601f19601f8201168201806040525081019062000617919062001b7b565b6003805462ff000019166201000017905590508015620007155760405163a9059cbb60e01b81526001600160a01b0383169063a9059cbb90620006759073a679c6154b8d4619af9f83f0bf9a13a680e01ecf90859060040162001c3f565b602060405180830381600087803b1580156200069057600080fd5b505af1158015620006a5573d6000803e3d6000fd5b505050506040513d601f19601f82011682018060405250810190620006cb919062001b1c565b620007155760405162461bcd60e51b81526020600482015260196024820152783ab730b13632903a37903830bcb7baba103a3790313abcb2b960391b604482015260640162000438565b6040516370a0823160e01b81526001600160a01b0383169063a9059cbb9073bf417c41f3ab1e01bd6867fb540da7b734eaea959083906370a08231906200076190309060040162001c07565b60206040518083038186803b1580156200077a57600080fd5b505afa1580156200078f573d6000803e3d6000fd5b505050506040513d601f19601f82011682018060405250810190620007b5919062001b7b565b6040518363ffffffff1660e01b8152600401620007d492919062001c3f565b602060405180830381600087803b158015620007ef57600080fd5b505af115801562000804573d6000803e3d6000fd5b505050506040513d601f19601f820116820180604052508101906200082a919062001b1c565b6200088b5760405162461bcd60e51b815260206004820152602a60248201527f756e61626c6520746f2072657475726e2066696e616c2062616c616e636520746044820152693790383937bb34b232b960b11b606482015260840162000438565b505050565b600060038054906101000a90046001600160a01b03166001600160a01b03166363bd1d4a6040518163ffffffff1660e01b815260040160206040518083038186803b158015620008df57600080fd5b505afa158015620008f4573d6000803e3d6000fd5b505050506040513d601f19601f820116820180604052508101906200091a919062001b7b565b905090565b62000962336000368080601f0160208091040260200160405190810160405280939291908181526020018383808284376000920191909152506200110b92505050565b620009815760405162461bcd60e51b8152600401620004389062001cc4565b600354630100000090046001600160a01b0316633612820d620009a483620016b7565b6040518263ffffffff1660e01b8152600401620009c391815260200190565b600060405180830381600087803b158015620009de57600080fd5b505af1158015620009f3573d6000803e3d6000fd5b5050505050565b62000a3d336000368080601f0160208091040260200160405190810160405280939291908181526020018383808284376000920191909152506200110b92505050565b62000a5c5760405162461bcd60e51b8152600401620004389062001cc4565b600354610100900460ff1615801562000a77575060035460ff165b62000aeb5760405162461bcd60e51b815260206004820152603d60248201527f756e61626c6520746f206465706f736974207072656d69756d20756e74696c2060448201527f636f6c6c61746572616c20686173206265656e206465706f7369746564000000606482015260840162000438565b6003805461ff00191661010017815573e8aa8a60c9417d8fd59eb4378687ddceed29c1b49081906323b872dd903390309062000b2990600a62001d8d565b62000b379061271062001e49565b6040518463ffffffff1660e01b815260040162000b579392919062001c1b565b602060405180830381600087803b15801562000b7257600080fd5b505af115801562000b87573d6000803e3d6000fd5b505050506040513d601f19601f8201168201806040525081019062000bad919062001b1c565b62000bf75760405162461bcd60e51b8152602060048201526019602482015278756e61626c6520746f206465706f736974207072656d69756d60381b604482015260640162000438565b62000c01620016d5565b50565b62000c47336000368080601f0160208091040260200160405190810160405280939291908181526020018383808284376000920191909152506200110b92505050565b62000c665760405162461bcd60e51b8152600401620004389062001cc4565b600060038054906101000a90046001600160a01b03166001600160a01b031663602f144b6040518163ffffffff1660e01b815260040160206040518083038186803b15801562000cb557600080fd5b505afa15801562000cca573d6000803e3d6000fd5b505050506040513d601f19601f8201168201806040525081019062000cf0919062001b1c565b9050801562000d7c5760405162461bcd60e51b815260206004820152604b60248201527f6e6f20726561736f6e20746f20696e69746961746520636f6e7472616374206560448201527f76616c756174696f6e20616674657220636f6e7472616374206861732062656560648201526a1b88195d985b1d585d195960aa1b608482015260a40162000438565b600073a36085f69e2889c224210f603d836748e7dc00889050600060038054906101000a90046001600160a01b03166001600160a01b0316636986f2e96040518163ffffffff1660e01b815260040160206040518083038186803b15801562000de457600080fd5b505afa15801562000df9573d6000803e3d6000fd5b505050506040513d601f19601f8201168201806040525081019062000e1f919062001b7b565b6003546040516323b872dd60e01b81529192506001600160a01b03808516926323b872dd9262000e74927369640770407a09b166aed26b778699045b3047689263010000009092041690869060040162001c1b565b602060405180830381600087803b15801562000e8f57600080fd5b505af115801562000ea4573d6000803e3d6000fd5b505050506040513d601f19601f8201168201806040525081019062000eca919062001b1c565b62000f185760405162461bcd60e51b815260206004820152601d60248201527f756e61626c6520746f2066756e64206f7261636c652072657175657374000000604482015260640162000438565b60038054906101000a90046001600160a01b03166001600160a01b031663186395cf6040518163ffffffff1660e01b8152600401600060405180830381600087803b15801562000f6757600080fd5b505af115801562000f7c573d6000803e3d6000fd5b50505050505050565b600060038054906101000a90046001600160a01b03166001600160a01b031663602f144b6040518163ffffffff1660e01b815260040160206040518083038186803b15801562000fd457600080fd5b505afa15801562000fe9573d6000803e3d6000fd5b505050506040513d601f19601f820116820180604052508101906200091a919062001b1c565b6200101d6003600a62001d8d565b6200102b9061271062001e49565b81565b62001071336000368080601f0160208091040260200160405190810160405280939291908181526020018383808284376000920191909152506200110b92505050565b620010905760405162461bcd60e51b8152600401620004389062001cc4565b600354630100000090046001600160a01b031663ddc9722783620010b484620016b7565b6040518363ffffffff1660e01b8152600401620010d392919062001c3f565b600060405180830381600087803b158015620010ee57600080fd5b505af115801562001103573d6000803e3d6000fd5b505050505050565b6001600160a01b03821660009081526002602052604081205460ff16806200113d5750600154600160a01b900460ff16155b90505b92915050565b62001189336000368080601f0160208091040260200160405190810160405280939291908181526020018383808284376000920191909152506200110b92505050565b620011a85760405162461bcd60e51b8152600401620004389062001cc4565b600354610100900460ff16158015620011c4575060035460ff16155b620012235760405162461bcd60e51b815260206004820152602860248201527f756e61626c6520746f206465706f736974207072656d69756d206d6f7265207460448201526768616e206f6e636560c01b606482015260840162000438565b6003805460ff1916600117815573e8aa8a60c9417d8fd59eb4378687ddceed29c1b49081906323b872dd90339030906200125f90600a62001d8d565b6200126e906203d09062001e49565b6040518463ffffffff1660e01b81526004016200128e9392919062001c1b565b602060405180830381600087803b158015620012a957600080fd5b505af1158015620012be573d6000803e3d6000fd5b505050506040513d601f19601f82011682018060405250810190620012e4919062001b1c565b62000c015760405162461bcd60e51b815260206004820152601c60248201527b1d5b98589b19481d1bc819195c1bdcda5d0818dbdb1b185d195c985b60221b604482015260640162000438565b6001546001600160a01b03163314620013865760405162461bcd60e51b815260206004820152601660248201527526bab9ba10313290383937b837b9b2b21037bbb732b960511b604482015260640162000438565b60008054336001600160a01b0319808316821784556001805490911690556040516001600160a01b0390921692909183917f8be0079c531659141344cd1fd0a4f28419497f9722a3daafe3b4186f6b6457e091a350565b620013e762001662565b600154600160a01b900460ff16620003d4576001805460ff60a01b1916600160a01b1790556040517faebf329500988c6488a0074e5a0a9ff304561fc5c6fc877aeb1d59c8282c348090600090a1565b6200144162001662565b6001600160a01b03811660009081526002602052604090205460ff161562000c01576001600160a01b03811660009081526002602052604090819020805460ff19169055517f3d68a6fce901d20453d1a7aa06bf3950302a735948037deb182a8db66df2a0d190620014b590839062001c07565b60405180910390a150565b620014ca62001662565b6001600160a01b03811660009081526002602052604090205460ff1662000c01576001600160a01b03811660009081526002602052604090819020805460ff19166001179055517f87286ad1f399c8e82bf0c4ef4fcdc570ea2e1e92176e5c848b6413545b885db490620014b590839062001c07565b606062001585336000368080601f0160208091040260200160405190810160405280939291908181526020018383808284376000920191909152506200110b92505050565b620015a45760405162461bcd60e51b8152600401620004389062001cc4565b60038054906101000a90046001600160a01b03166001600160a01b031663a5ea11da6040518163ffffffff1660e01b815260040160006040518083038186803b158015620015f157600080fd5b505afa15801562001606573d6000803e3d6000fd5b505050506040513d6000823e601f3d908101601f191682016040526200091a919081019062001a4d565b6200163e6003600a62001d8d565b6200102b906203d09062001e49565b6200165762001662565b62000c0181620017fc565b6000546001600160a01b03163314620003d45760405162461bcd60e51b815260206004820152601660248201527527b7363c9031b0b63630b1363290313c9037bbb732b960511b604482015260640162000438565b80516000908290620016cc5750600092915050565b50506020015190565b604051620016e390620018a2565b604051809103906000f08015801562001700573d6000803e3d6000fd5b506003806101000a8154816001600160a01b0302191690836001600160a01b03160217905550600060038054906101000a90046001600160a01b03166001600160a01b031663a5ea11da6040518163ffffffff1660e01b815260040160006040518083038186803b1580156200177557600080fd5b505afa1580156200178a573d6000803e3d6000fd5b505050506040513d6000823e601f3d908101601f19168201604052620017b4919081019062001a4d565b90507fab21ef7af0f25c22337bf9052328577781488fd21299bdfcae250317f11e937a60038054906101000a90046001600160a01b031682604051620014b592919062001c58565b6001600160a01b038116331415620018515760405162461bcd60e51b815260206004820152601760248201527621b0b73737ba103a3930b739b332b9103a379039b2b63360491b604482015260640162000438565b600180546001600160a01b0319166001600160a01b0383811691821790925560008054604051929316917fed8889f560326eb138920d842192f0eb3dd22b4f139c87a2c57538e05bae12789190a350565b6121918062001ecb83390190565b6000620018c7620018c18462001d1a565b62001ce7565b9050828152838383011115620018dc57600080fd5b828260208301376000602084830101529392505050565b80356001600160a01b03811681146200190b57600080fd5b919050565b600082601f83011262001921578081fd5b6200113d83833560208501620018b0565b600082601f83011262001943578081fd5b815162001954620018c18262001d1a565b81815284602083860101111562001969578283fd5b6200197c82602083016020870162001e6b565b949350505050565b60006020828403121562001996578081fd5b6200113d82620018f3565b60008060408385031215620019b4578081fd5b620019bf83620018f3565b915060208301356001600160401b03811115620019da578182fd5b8301601f81018513620019eb578182fd5b620019fc85823560208401620018b0565b9150509250929050565b6000806040838503121562001a19578182fd5b62001a2483620018f3565b915060208301356001600160401b0381111562001a3f578182fd5b620019fc8582860162001910565b6000602080838503121562001a60578182fd5b82516001600160401b038082111562001a77578384fd5b818501915085601f83011262001a8b578384fd5b81518181111562001aa05762001aa062001eb4565b8060051b62001ab185820162001ce7565b8281528581019085870183870188018b101562001acc578889fd5b8893505b8484101562001b0e5780518681111562001ae857898afd5b62001af88c8a838b010162001932565b8452506001939093019291870191870162001ad0565b509998505050505050505050565b60006020828403121562001b2e578081fd5b8151801515811462001b3e578182fd5b9392505050565b60006020828403121562001b57578081fd5b81356001600160401b0381111562001b6d578182fd5b6200197c8482850162001910565b60006020828403121562001b8d578081fd5b5051919050565b600082825180855260208086019550808260051b840101818601855b8481101562001bfa57601f1980878503018a528251805180865262001bdb8188880189850162001e6b565b9a86019a601f0190911693909301840192509083019060010162001bb0565b5090979650505050505050565b6001600160a01b0391909116815260200190565b6001600160a01b039384168152919092166020820152604081019190915260600190565b6001600160a01b03929092168252602082015260400190565b60018060a01b038316815260606020820152601f60608201527f44616c6c6173204d61767320323032322d30342d31302030303a30303a303000608082015260a0604082015260006200197c60a083018462001b94565b6020815260006200113d602083018462001b94565b6020808252600990820152684e6f2061636365737360b81b604082015260600190565b604051601f8201601f191681016001600160401b038111828210171562001d125762001d1262001eb4565b604052919050565b60006001600160401b0382111562001d365762001d3662001eb4565b50601f01601f191660200190565b600181815b8085111562001d8557816000190482111562001d695762001d6962001e9e565b8085161562001d7757918102915b93841c939080029062001d49565b509250929050565b60006200113d838360008262001da65750600162001140565b8162001db55750600062001140565b816001811462001dce576002811462001dd95762001df9565b600191505062001140565b60ff84111562001ded5762001ded62001e9e565b50506001821b62001140565b5060208310610133831016604e8410600b841016171562001e1e575081810a62001140565b62001e2a838362001d44565b806000190482111562001e415762001e4162001e9e565b029392505050565b600081600019048311821515161562001e665762001e6662001e9e565b500290565b60005b8381101562001e8857818101518382015260200162001e6e565b8381111562001e98576000848401525b50505050565b634e487b7160e01b600052601160045260246000fd5b634e487b7160e01b600052604160045260246000fdfe608060405260016004553480156200001657600080fd5b5033806000816200006e5760405162461bcd60e51b815260206004820152601860248201527f43616e6e6f7420736574206f776e657220746f207a65726f000000000000000060448201526064015b60405180910390fd5b600680546001600160a01b0319166001600160a01b0384811691909117909155811615620000a157620000a18162000420565b50506000600b908155600c805460ff19169055604080516102c081018252600a610280808301918252691cdd185d1a5bdb97da5960b21b6102a0840152908252825180840184529384526a555357303030303339323760a81b6020858101919091528083019490945282518084018452601081526f776561746865725f7661726961626c6560801b818601528284015282518084018452600480825263534e4f5760e01b82870152606084019190915283518085018552600781526619185d185cd95d60ca1b8187015260808401528351808501855260058082526419da18db9960da1b8288015260a08501919091528451808601865260088152676f70745f7479706560c01b8188015260c0850152845180860186528281526310d0531360e21b8188015260e085015284518086018652600680825265737472696b6560d01b82890152610100860191909152855180870187526001808252600360fc1b828a015261012087019190915286518088018852838152641b1a5b5a5d60da1b818a0152610140870152865180880188528281526503235303030360d41b818a0181905261016088019190915287518089018952858152637469636b60e01b818b015261018088015287518089018952928352828901526101a08601919091528551808701875260098152681d1a1c995cda1bdb1960ba1b818901526101c086015285518087018752908152601b60f91b818801526101e085015284518086018652600e81526d696d70657269616c5f756e69747360901b8188015261020085015284518086018652918252635472756560e01b828701526102208401919091528351808501855290815264646174657360d81b81860152610240830152825190810190925261025a80835290935061026084019262001f379083013990526200034f90600e906014620004cd565b50600280546001600160a01b03191673a36085f69e2889c224210f603d836748e7dc00881790556009805460018181019092557f6e1540171b6c0c960b71a7020d9f60077f6af931a8bbf590da0223dacf75c7af0180546001600160a01b0319167358935f97ab874bc4181bc1a3a85fde2ca80885cd179055600a805491820181556000527f36336262343531643336373534616162383439353737613733636534656237657fc65a7bb8d6351c1cf70c95a316cc6a92839c986682d98bc35f958f4883f9d2a89091015562000673565b6001600160a01b0381163314156200047b5760405162461bcd60e51b815260206004820152601760248201527f43616e6e6f74207472616e7366657220746f2073656c66000000000000000000604482015260640162000065565b600780546001600160a01b0319166001600160a01b03838116918217909255600654604051919216907fed8889f560326eb138920d842192f0eb3dd22b4f139c87a2c57538e05bae127890600090a350565b8280548282559060005260206000209081019282156200051f579160200282015b828111156200051f57825180516200050e91849160209091019062000531565b5091602001919060010190620004ee565b506200052d929150620005bc565b5090565b8280546200053f9062000636565b90600052602060002090601f016020900481019282620005635760008555620005ae565b82601f106200057e57805160ff1916838001178555620005ae565b82800160010185558215620005ae579182015b82811115620005ae57825182559160200191906001019062000591565b506200052d929150620005dd565b808211156200052d576000620005d38282620005f4565b50600101620005bc565b5b808211156200052d5760008155600101620005de565b508054620006029062000636565b6000825580601f1062000613575050565b601f016020900490600052602060002090810190620006339190620005dd565b50565b600181811c908216806200064b57607f821691505b602082108114156200066d57634e487b7160e01b600052602260045260246000fd5b50919050565b6118b480620006836000396000f3fe608060405234801561001057600080fd5b50600436106100ba5760003560e01c8063180aedf3146100bf578063186395cf146100e55780633612820d146100ef5780633c54689f146101025780635b69a7d814610115578063602f144b1461013557806363bd1d4a1461015257806364f1cb741461015b5780636986f2e91461017b57806379ba5097146101835780638da5cb5b1461018b578063a5ea11da14610193578063ddc97227146101a8578063f2fde38b146101bb575b600080fd5b6100d26100cd366004611501565b6101ce565b6040519081526020015b60405180910390f35b6100ed6101ef565b005b6100ed6100fd366004611501565b6104c5565b6100ed610110366004611519565b610763565b610128610123366004611501565b610a09565b6040516100dc919061159d565b600c546101429060ff1681565b60405190151581526020016100dc565b6100d2600b5481565b6100d2610169366004611501565b60086020526000908152604090205481565b6100d2610a33565b6100ed610a49565b610128610af7565b61019b610b06565b6040516100dc9190611640565b6100ed6101b63660046114b8565b610beb565b6100ed6101c936600461149e565b610c8e565b600a81815481106101de57600080fd5b600091825260209091200154905081565b6101f7610ca2565b42636253a7c0106102665760405162461bcd60e51b815260206004820152602e60248201527f756e61626c6520746f2063616c6c20756e74696c20636f76657261676520706560448201526d1c9a5bd9081a185cc8195b99195960921b60648201526084015b60405180910390fd5b600060098054806020026020016040519081016040528092919081815260200182805480156102be57602002820191906000526020600020905b81546001600160a01b031681526001909101906020018083116102a0575b505050505090506000600a80548060200260200160405190810160405280929190818152602001828054801561031357602002820191906000526020600020905b8154815260200190600101908083116102ff575b505050505090506000600e805480602002602001604051908101604052809291908181526020016000905b828210156103ea57838290600052602060002001805461035d906117ee565b80601f0160208091040260200160405190810160405280929190818152602001828054610389906117ee565b80156103d65780601f106103ab576101008083540402835291602001916103d6565b820191906000526020600020905b8154815290600101906020018083116103b957829003601f168201915b50505050508152602001906001019061033e565b5050505090506000805b845181146104bc57600061043785838151811061042157634e487b7160e01b600052603260045260246000fd5b602002602001015130633c54689f60e01b610cf7565b60408051808201909152600a815269706172616d657465727360b01b602082015290915061046790829086610d1c565b61049a86838151811061048a57634e487b7160e01b600052603260045260246000fd5b6020026020010151826064610da2565b506104a66001846116a1565b92506104b590506001826116a1565b90506103f4565b50600d55505050565b6104cd610ca2565b60008181526008602052604090205480158015610515575081600a828154811061050757634e487b7160e01b600052603260045260246000fd5b906000526020600020015414155b61075f57600a54610528906001906117d7565b8114156105a957600980548061054e57634e487b7160e01b600052603160045260246000fd5b600082815260209020810160001990810180546001600160a01b0319169055019055600a80548061058f57634e487b7160e01b600052603160045260246000fd5b600190038181906000526020600020016000905590555050565b600980546105b9906001906117d7565b815481106105d757634e487b7160e01b600052603260045260246000fd5b600091825260209091200154600980546001600160a01b03909216918390811061061157634e487b7160e01b600052603260045260246000fd5b9060005260206000200160006101000a8154816001600160a01b0302191690836001600160a01b03160217905550600980548061065e57634e487b7160e01b600052603160045260246000fd5b600082815260209020810160001990810180546001600160a01b0319169055019055600a8054610690906001906117d7565b815481106106ae57634e487b7160e01b600052603260045260246000fd5b9060005260206000200154600a82815481106106da57634e487b7160e01b600052603260045260246000fd5b600091825260209091200155600a80548061070557634e487b7160e01b600052603160045260246000fd5b600190038181906000526020600020016000905590558060086000600a848154811061074157634e487b7160e01b600052603260045260246000fd5b90600052602060002001548152602001908152602001600020819055505b5050565b60008281526005602052604090205482906001600160a01b031633146107dc5760405162461bcd60e51b815260206004820152602860248201527f536f75726365206d75737420626520746865206f7261636c65206f6620746865604482015267081c995c5d595cdd60c21b606482015260840161025d565b60008181526005602052604080822080546001600160a01b03191690555182917f7cc135e0cebb02c3480ae5d74d377283180a2601f8f644edf7987b009316c63a91a281600b600082825461083191906116a1565b925050819055506001600d600082825461084b91906117d7565b9091555050600d54610a0457600954600b805460009061086c9084906116b9565b9091555050600c805460ff1916600117905560006108926002546001600160a01b031690565b9050806001600160a01b031663a9059cbb6108ab610af7565b6040516370a0823160e01b81526001600160a01b038516906370a08231906108d790309060040161159d565b60206040518083038186803b1580156108ef57600080fd5b505afa158015610903573d6000803e3d6000fd5b505050506040513d601f19601f82011682018060405250810190610927919061153a565b6040516001600160e01b031960e085901b1681526001600160a01b0390921660048301526024820152604401602060405180830381600087803b15801561096d57600080fd5b505af1158015610981573d6000803e3d6000fd5b505050506040513d601f19601f820116820180604052508101906109a591906114e1565b610a025760405162461bcd60e51b815260206004820152602860248201527f556e61626c6520746f207472616e736665722072656d61696e696e67204c494e6044820152674b20746f6b656e7360c01b606482015260840161025d565b505b505050565b60098181548110610a1957600080fd5b6000918252602090912001546001600160a01b0316905081565b600a54600090610a449060646117b8565b905090565b6007546001600160a01b03163314610a9c5760405162461bcd60e51b815260206004820152601660248201527526bab9ba10313290383937b837b9b2b21037bbb732b960511b604482015260640161025d565b600680546001600160a01b0319808216339081179093556007805490911690556040516001600160a01b03909116919082907f8be0079c531659141344cd1fd0a4f28419497f9722a3daafe3b4186f6b6457e090600090a350565b6006546001600160a01b031690565b6060610b10610ca2565b6000600e805480602002602001604051908101604052809291908181526020016000905b82821015610be0578382906000526020600020018054610b53906117ee565b80601f0160208091040260200160405190810160405280929190818152602001828054610b7f906117ee565b8015610bcc5780601f10610ba157610100808354040283529160200191610bcc565b820191906000526020600020905b815481529060010190602001808311610baf57829003601f168201915b505050505081526020019060010190610b34565b509294505050505090565b610bf3610ca2565b60098054600180820183557f6e1540171b6c0c960b71a7020d9f60077f6af931a8bbf590da0223dacf75c7af90910180546001600160a01b0319166001600160a01b038616179055600a805480830182556000919091527fc65a7bb8d6351c1cf70c95a316cc6a92839c986682d98bc35f958f4883f9d2a8018390559054610c7b91906117d7565b6000918252600860205260409091205550565b610c96610ca2565b610c9f81610dc1565b50565b6006546001600160a01b03163314610cf55760405162461bcd60e51b815260206004820152601660248201527527b7363c9031b0b63630b1363290313c9037bbb732b960511b604482015260640161025d565b565b610cff611433565b610d07611433565b610d1381868686610e66565b95945050505050565b6080830151610d2b9083610ea3565b610d388360800151610eba565b60005b8151811015610d9457610d82828281518110610d6757634e487b7160e01b600052603260045260246000fd5b60200260200101518560800151610ea390919063ffffffff16565b80610d8c81611823565b915050610d3b565b50610a048360800151610ec5565b6000610db984848460016320214ca360e11b610ed0565b949350505050565b6001600160a01b038116331415610e145760405162461bcd60e51b815260206004820152601760248201527621b0b73737ba103a3930b739b332b9103a379039b2b63360491b604482015260640161025d565b600780546001600160a01b0319166001600160a01b03838116918217909255600654604051919216907fed8889f560326eb138920d842192f0eb3dd22b4f139c87a2c57538e05bae127890600090a350565b610e6e611433565b610e7e85608001516101006110d7565b50509183526001600160a01b031660208301526001600160e01b031916604082015290565b610eb08260038351611135565b610a048282611202565b610c9f816004611223565b610c9f816007611223565b6004546040516001600160601b03193060601b166020820152603481019190915260009060540160408051808303601f19018152918152815160209283012060045460608901526000818152600590935281832080546001600160a01b0319166001600160a01b038b16179055905190925082917fb5e6e01e79f91267dc17b4e6314d5d4d03593d2ceee0fbb452b750bd70ea5af991a2600082600080886000015189602001518a604001518b606001518a8d6080015160000151604051602401610fa29897969594939291906115b1565b60408051601f198184030181529181526020820180516001600160e01b03166001600160e01b0319909416939093179092526002549151630200057560e51b81529092506001600160a01b0390911690634000aea09061100a908a9089908690600401611619565b602060405180830381600087803b15801561102457600080fd5b505af1158015611038573d6000803e3d6000fd5b505050506040513d601f19601f8201168201806040525081019061105c91906114e1565b6110b45760405162461bcd60e51b815260206004820152602360248201527f756e61626c6520746f207472616e73666572416e6443616c6c20746f206f7261604482015262636c6560e81b606482015260840161025d565b6001600460008282546110c791906116a1565b9091555091979650505050505050565b6110df611468565b6110ea60208361183e565b15611112576110fa60208361183e565b6111059060206117d7565b61110f90836116a1565b91505b506020808301829052604080518085526000815283019091019052815b92915050565b6017811161115057610a028360e0600585901b168317611234565b60ff811161117a5761116d836018611fe0600586901b1617611234565b50610a028382600161124c565b61ffff81116111a557611198836019611fe0600586901b1617611234565b50610a028382600261124c565b63ffffffff81116111d2576111c583601a611fe0600586901b1617611234565b50610a028382600461124c565b6001600160401b038111610a04576111f583601b611fe0600586901b1617611234565b50610a028382600861124c565b61120a611468565b61121c83846000015151848551611265565b9392505050565b610a0482601f611fe0600585901b16175b61123c611468565b61121c8384600001515184611342565b611254611468565b610db9848560000151518585611391565b61126d611468565b825182111561127b57600080fd5b602085015161128a83866116a1565b11156112bd576112bd856112ad876020015187866112a891906116a1565b611405565b6112b89060026117b8565b61141c565b6000808651805187602083010193508088870111156112dc5787860182525b505050602084015b6020841061131c57805182526112fb6020836116a1565b91506113086020826116a1565b90506113156020856117d7565b93506112e4565b51815160001960208690036101000a019081169019919091161790525083949350505050565b61134a611468565b8360200151831061136a5761136a84856020015160026112b891906117b8565b835180516020858301018481535080851415611387576001810182525b5093949350505050565b611399611468565b60208501516113a885846116a1565b11156113bc576113bc856112ad86856116a1565b600060016113cc84610100611710565b6113d691906117d7565b90508551838682010185831982511617815250805184870111156113fa5783860181525b509495945050505050565b60008183111561141657508161112f565b50919050565b815161142883836110d7565b50610a028382611202565b6040805160a081018252600080825260208201819052918101829052606081019190915260808101611463611468565b905290565b604051806040016040528060608152602001600081525090565b80356001600160a01b038116811461149957600080fd5b919050565b6000602082840312156114af578081fd5b61121c82611482565b600080604083850312156114ca578081fd5b6114d383611482565b946020939093013593505050565b6000602082840312156114f2578081fd5b8151801515811461121c578182fd5b600060208284031215611512578081fd5b5035919050565b6000806040838503121561152b578182fd5b50508035926020909101359150565b60006020828403121561154b578081fd5b5051919050565b60008151808452815b818110156115775760208185018101518683018201520161155b565b818111156115885782602083870101525b50601f01601f19169290920160200192915050565b6001600160a01b0391909116815260200190565b6001600160a01b0389811682526020820189905260408201889052861660608201526001600160e01b03198516608082015260a0810184905260c0810183905261010060e0820181905260009061160a83820185611552565b9b9a5050505050505050505050565b60018060a01b0384168152826020820152606060408201526000610d136060830184611552565b6000602080830181845280855180835260408601915060408160051b8701019250838701855b8281101561169457603f19888603018452611682858351611552565b94509285019290850190600101611666565b5092979650505050505050565b600082198211156116b4576116b4611852565b500190565b6000826116c8576116c8611868565b500490565b600181815b808511156117085781600019048211156116ee576116ee611852565b808516156116fb57918102915b93841c93908002906116d2565b509250929050565b600061121c83836000826117265750600161112f565b816117335750600061112f565b816001811461174957600281146117535761176f565b600191505061112f565b60ff84111561176457611764611852565b50506001821b61112f565b5060208310610133831016604e8410600b8410161715611792575081810a61112f565b61179c83836116cd565b80600019048211156117b0576117b0611852565b029392505050565b60008160001904831182151516156117d2576117d2611852565b500290565b6000828210156117e9576117e9611852565b500390565b600181811c9082168061180257607f821691505b6020821081141561141657634e487b7160e01b600052602260045260246000fd5b600060001982141561183757611837611852565b5060010190565b60008261184d5761184d611868565b500690565b634e487b7160e01b600052601160045260246000fd5b634e487b7160e01b600052601260045260246000fdfea2646970667358221220fd021251a9936929556f8accc446359f40c1a4453afe795639f4a00a5ea6a97564736f6c634300080400335b22323032312d31302d3036222c2022323032312d31302d3038222c2022323032312d31302d3236222c2022323032312d31302d3238222c2022323032312d31302d3331222c2022323032312d31312d3032222c2022323032312d31312d3036222c2022323032312d31312d3038222c2022323032312d31312d3135222c2022323032312d31312d3237222c2022323032312d31312d3239222c2022323032312d31322d3033222c2022323032312d31322d3034222c2022323032312d31322d3037222c2022323032312d31322d3133222c2022323032312d31322d3135222c2022323032312d31322d3231222c2022323032312d31322d3233222c2022323032322d30312d3033222c2022323032322d30312d3035222c2022323032322d30312d3039222c2022323032322d30312d3135222c2022323032322d30312d3137222c2022323032322d30312d3139222c2022323032322d30312d3230222c2022323032322d30312d3233222c2022323032322d30312d3239222c2022323032322d30322d3032222c2022323032322d30322d3034222c2022323032322d30322d3036222c2022323032322d30322d3038222c2022323032322d30322d3130222c2022323032322d30322d3132222c2022323032322d30332d3033222c2022323032322d30332d3035222c2022323032322d30332d3037222c2022323032322d30332d3039222c2022323032322d30332d3231222c2022323032322d30332d3233222c2022323032322d30332d3237222c2022323032322d30332d3239222c2022323032322d30342d3038222c2022323032322d30342d3130225da2646970667358221220a3cdc7fcf6ac3e2913bff1e9a4abb1e396913ee62bb98376b93958318c8ab48264736f6c63430008040033","linkReferences":{},"deployedLinkReferences":{}}