{"_format":"hh-sol-artifact-1","contractName":"BlizzardOption","sourceName":"contracts/BlizzardDerivativeFactory.sol","abi":[{"inputs":[],"stateMutability":"nonpayable","type":"constructor"},{"anonymous":false,"inputs":[{"indexed":true,"internalType":"bytes32","name":"id","type":"bytes32"}],"name":"ChainlinkCancelled","type":"event"},{"anonymous":false,"inputs":[{"indexed":true,"internalType":"bytes32","name":"id","type":"bytes32"}],"name":"ChainlinkFulfilled","type":"event"},{"anonymous":false,"inputs":[{"indexed":true,"internalType":"bytes32","name":"id","type":"bytes32"}],"name":"ChainlinkRequested","type":"event"},{"anonymous":false,"inputs":[{"indexed":true,"internalType":"address","name":"from","type":"address"},{"indexed":true,"internalType":"address","name":"to","type":"address"}],"name":"OwnershipTransferRequested","type":"event"},{"anonymous":false,"inputs":[{"indexed":true,"internalType":"address","name":"from","type":"address"},{"indexed":true,"internalType":"address","name":"to","type":"address"}],"name":"OwnershipTransferred","type":"event"},{"inputs":[],"name":"ARBOL_ORACLE","outputs":[{"internalType":"address","name":"","type":"address"}],"stateMutability":"view","type":"function"},{"inputs":[],"name":"EVALUATION_JOB","outputs":[{"internalType":"bytes32","name":"","type":"bytes32"}],"stateMutability":"view","type":"function"},{"inputs":[],"name":"acceptOwnership","outputs":[],"stateMutability":"nonpayable","type":"function"},{"inputs":[{"internalType":"address","name":"_oracle","type":"address"},{"internalType":"bytes32","name":"_job","type":"bytes32"}],"name":"addOracleJob","outputs":[],"stateMutability":"nonpayable","type":"function"},{"inputs":[],"name":"contractEvaluated","outputs":[{"internalType":"bool","name":"","type":"bool"}],"stateMutability":"view","type":"function"},{"inputs":[{"internalType":"bytes32","name":"_requestId","type":"bytes32"},{"internalType":"uint256","name":"_result","type":"uint256"}],"name":"fulfillPayoutEvaluation","outputs":[],"stateMutability":"nonpayable","type":"function"},{"inputs":[],"name":"getOraclePayment","outputs":[{"internalType":"uint256","name":"","type":"uint256"}],"stateMutability":"view","type":"function"},{"inputs":[],"name":"getParameters","outputs":[{"internalType":"string[]","name":"","type":"string[]"}],"stateMutability":"view","type":"function"},{"inputs":[{"internalType":"uint256","name":"","type":"uint256"}],"name":"jobs","outputs":[{"internalType":"bytes32","name":"","type":"bytes32"}],"stateMutability":"view","type":"function"},{"inputs":[{"internalType":"bytes32","name":"","type":"bytes32"}],"name":"oracleMap","outputs":[{"internalType":"uint256","name":"","type":"uint256"}],"stateMutability":"view","type":"function"},{"inputs":[{"internalType":"uint256","name":"","type":"uint256"}],"name":"oracles","outputs":[{"internalType":"address","name":"","type":"address"}],"stateMutability":"view","type":"function"},{"inputs":[],"name":"owner","outputs":[{"internalType":"address","name":"","type":"address"}],"stateMutability":"view","type":"function"},{"inputs":[],"name":"payout","outputs":[{"internalType":"uint256","name":"","type":"uint256"}],"stateMutability":"view","type":"function"},{"inputs":[{"internalType":"bytes32","name":"_job","type":"bytes32"}],"name":"removeOracleJob","outputs":[],"stateMutability":"nonpayable","type":"function"},{"inputs":[],"name":"requestPayoutEvaluation","outputs":[],"stateMutability":"nonpayable","type":"function"},{"inputs":[{"internalType":"address","name":"to","type":"address"}],"name":"transferOwnership","outputs":[],"stateMutability":"nonpayable","type":"function"}],"bytecode":"0x608060405260016004553480156200001657600080fd5b5033806000816200006e5760405162461bcd60e51b815260206004820152601860248201527f43616e6e6f7420736574206f776e657220746f207a65726f000000000000000060448201526064015b60405180910390fd5b600680546001600160a01b0319166001600160a01b0384811691909117909155811615620000a157620000a18162000420565b50506000600b908155600c805460ff19169055604080516102c081018252600a610280808301918252691cdd185d1a5bdb97da5960b21b6102a0840152908252825180840184529384526a555357303030303339323760a81b6020858101919091528083019490945282518084018452601081526f776561746865725f7661726961626c6560801b818601528284015282518084018452600480825263534e4f5760e01b82870152606084019190915283518085018552600781526619185d185cd95d60ca1b8187015260808401528351808501855260058082526419da18db9960da1b8288015260a08501919091528451808601865260088152676f70745f7479706560c01b8188015260c0850152845180860186528281526310d0531360e21b8188015260e085015284518086018652600680825265737472696b6560d01b82890152610100860191909152855180870187526001808252600360fc1b828a015261012087019190915286518088018852838152641b1a5b5a5d60da1b818a0152610140870152865180880188528281526503235303030360d41b818a0181905261016088019190915287518089018952858152637469636b60e01b818b015261018088015287518089018952928352828901526101a08601919091528551808701875260098152681d1a1c995cda1bdb1960ba1b818901526101c086015285518087018752908152601b60f91b818801526101e085015284518086018652600e81526d696d70657269616c5f756e69747360901b8188015261020085015284518086018652918252635472756560e01b828701526102208401919091528351808501855290815264646174657360d81b81860152610240830152825190810190925261025a808352909350610260840192620020669083013990526200034f90600e906014620004cd565b50600280546001600160a01b03191673b0897686c545045afc77cf20ec7a532e3120e0f11790556009805460018181019092557f6e1540171b6c0c960b71a7020d9f60077f6af931a8bbf590da0223dacf75c7af0180546001600160a01b0319167376dfa9a36db355f101b241b66e2fa97f7ca09c24179055600a805491820181556000527f63636166316266653937643834363963616666333935613061616136316532377fc65a7bb8d6351c1cf70c95a316cc6a92839c986682d98bc35f958f4883f9d2a89091015562000673565b6001600160a01b0381163314156200047b5760405162461bcd60e51b815260206004820152601760248201527f43616e6e6f74207472616e7366657220746f2073656c66000000000000000000604482015260640162000065565b600780546001600160a01b0319166001600160a01b03838116918217909255600654604051919216907fed8889f560326eb138920d842192f0eb3dd22b4f139c87a2c57538e05bae127890600090a350565b8280548282559060005260206000209081019282156200051f579160200282015b828111156200051f57825180516200050e91849160209091019062000531565b5091602001919060010190620004ee565b506200052d929150620005bc565b5090565b8280546200053f9062000636565b90600052602060002090601f016020900481019282620005635760008555620005ae565b82601f106200057e57805160ff1916838001178555620005ae565b82800160010185558215620005ae579182015b82811115620005ae57825182559160200191906001019062000591565b506200052d929150620005dd565b808211156200052d576000620005d38282620005f4565b50600101620005bc565b5b808211156200052d5760008155600101620005de565b508054620006029062000636565b6000825580601f1062000613575050565b601f016020900490600052602060002090810190620006339190620005dd565b50565b600181811c908216806200064b57607f821691505b602082108114156200066d57634e487b7160e01b600052602260045260246000fd5b50919050565b6119e380620006836000396000f3fe608060405234801561001057600080fd5b50600436106100d05760003560e01c8063180aedf3146100d5578063186395cf146100fb57806321da473d146101055780633612820d1461012c5780633c54689f1461013f5780635b69a7d814610152578063602f144b1461017257806363bd1d4a1461018f57806364f1cb74146101985780636986f2e9146101b857806379ba5097146101c05780638da5cb5b146101c8578063a180d1f7146101d0578063a5ea11da146101eb578063ddc9722714610200578063f2fde38b14610213575b600080fd5b6100e86100e33660046115f0565b610226565b6040519081526020015b60405180910390f35b610103610247565b005b6100e87f636361663162666539376438343639636166663339356130616161363165323781565b61010361013a3660046115f0565b610524565b61010361014d366004611608565b6107c2565b6101656101603660046115f0565b610a68565b6040516100f2919061168c565b600c5461017f9060ff1681565b60405190151581526020016100f2565b6100e8600b5481565b6100e86101a63660046115f0565b60086020526000908152604090205481565b6100e8610a92565b610103610aaf565b610165610b5d565b6101657376dfa9a36db355f101b241b66e2fa97f7ca09c2481565b6101f3610b6c565b6040516100f2919061172f565b61010361020e3660046115a7565b610c51565b61010361022136600461158d565b610d7d565b600a818154811061023657600080fd5b600091825260209091200154905081565b61024f610d91565b42636253a7c0106102be5760405162461bcd60e51b815260206004820152602e60248201527f756e61626c6520746f2063616c6c20756e74696c20636f76657261676520706560448201526d1c9a5bd9081a185cc8195b99195960921b60648201526084015b60405180910390fd5b6000600980548060200260200160405190810160405280929190818152602001828054801561031657602002820191906000526020600020905b81546001600160a01b031681526001909101906020018083116102f8575b505050505090506000600a80548060200260200160405190810160405280929190818152602001828054801561036b57602002820191906000526020600020905b815481526020019060010190808311610357575b505050505090506000600e805480602002602001604051908101604052809291908181526020016000905b828210156104425783829060005260206000200180546103b5906118dd565b80601f01602080910402602001604051908101604052809291908181526020018280546103e1906118dd565b801561042e5780601f106104035761010080835404028352916020019161042e565b820191906000526020600020905b81548152906001019060200180831161041157829003601f168201915b505050505081526020019060010190610396565b5050505090506000805b8451811461051b57600061048f85838151811061047957634e487b7160e01b600052603260045260246000fd5b602002602001015130633c54689f60e01b610de6565b60408051808201909152600a815269706172616d657465727360b01b60208201529091506104bf90829086610e0b565b6104f98683815181106104e257634e487b7160e01b600052603260045260246000fd5b602002602001015182670de0b6b3a7640000610e91565b50610505600184611790565b92506105149050600182611790565b905061044c565b50600d55505050565b61052c610d91565b60008181526008602052604090205480158015610574575081600a828154811061056657634e487b7160e01b600052603260045260246000fd5b906000526020600020015414155b6107be57600a54610587906001906118c6565b8114156106085760098054806105ad57634e487b7160e01b600052603160045260246000fd5b600082815260209020810160001990810180546001600160a01b0319169055019055600a8054806105ee57634e487b7160e01b600052603160045260246000fd5b600190038181906000526020600020016000905590555050565b60098054610618906001906118c6565b8154811061063657634e487b7160e01b600052603260045260246000fd5b600091825260209091200154600980546001600160a01b03909216918390811061067057634e487b7160e01b600052603260045260246000fd5b9060005260206000200160006101000a8154816001600160a01b0302191690836001600160a01b0316021790555060098054806106bd57634e487b7160e01b600052603160045260246000fd5b600082815260209020810160001990810180546001600160a01b0319169055019055600a80546106ef906001906118c6565b8154811061070d57634e487b7160e01b600052603260045260246000fd5b9060005260206000200154600a828154811061073957634e487b7160e01b600052603260045260246000fd5b600091825260209091200155600a80548061076457634e487b7160e01b600052603160045260246000fd5b600190038181906000526020600020016000905590558060086000600a84815481106107a057634e487b7160e01b600052603260045260246000fd5b90600052602060002001548152602001908152602001600020819055505b5050565b60008281526005602052604090205482906001600160a01b0316331461083b5760405162461bcd60e51b815260206004820152602860248201527f536f75726365206d75737420626520746865206f7261636c65206f6620746865604482015267081c995c5d595cdd60c21b60648201526084016102b5565b60008181526005602052604080822080546001600160a01b03191690555182917f7cc135e0cebb02c3480ae5d74d377283180a2601f8f644edf7987b009316c63a91a281600b60008282546108909190611790565b925050819055506001600d60008282546108aa91906118c6565b9091555050600d54610a6357600954600b80546000906108cb9084906117a8565b9091555050600c805460ff1916600117905560006108f16002546001600160a01b031690565b9050806001600160a01b031663a9059cbb61090a610b5d565b6040516370a0823160e01b81526001600160a01b038516906370a082319061093690309060040161168c565b60206040518083038186803b15801561094e57600080fd5b505afa158015610962573d6000803e3d6000fd5b505050506040513d601f19601f820116820180604052508101906109869190611629565b6040516001600160e01b031960e085901b1681526001600160a01b0390921660048301526024820152604401602060405180830381600087803b1580156109cc57600080fd5b505af11580156109e0573d6000803e3d6000fd5b505050506040513d601f19601f82011682018060405250810190610a0491906115d0565b610a615760405162461bcd60e51b815260206004820152602860248201527f556e61626c6520746f207472616e736665722072656d61696e696e67204c494e6044820152674b20746f6b656e7360c01b60648201526084016102b5565b505b505050565b60098181548110610a7857600080fd5b6000918252602090912001546001600160a01b0316905081565b600a54600090610aaa90670de0b6b3a76400006118a7565b905090565b6007546001600160a01b03163314610b025760405162461bcd60e51b815260206004820152601660248201527526bab9ba10313290383937b837b9b2b21037bbb732b960511b60448201526064016102b5565b600680546001600160a01b0319808216339081179093556007805490911690556040516001600160a01b03909116919082907f8be0079c531659141344cd1fd0a4f28419497f9722a3daafe3b4186f6b6457e090600090a350565b6006546001600160a01b031690565b6060610b76610d91565b6000600e805480602002602001604051908101604052809291908181526020016000905b82821015610c46578382906000526020600020018054610bb9906118dd565b80601f0160208091040260200160405190810160405280929190818152602001828054610be5906118dd565b8015610c325780601f10610c0757610100808354040283529160200191610c32565b820191906000526020600020905b815481529060010190602001808311610c1557829003601f168201915b505050505081526020019060010190610b9a565b509294505050505090565b610c59610d91565b600081815260086020526040902054600a54610ce757600980546001808201835560008051602061198e83398151915290910180546001600160a01b0319166001600160a01b038716179055600a8054808301825560009190915260008051602061196e833981519152018490559054610cd391906118c6565b600083815260086020526040902055505050565b81600a8281548110610d0957634e487b7160e01b600052603260045260246000fd5b906000526020600020015414610a6357600980546001808201835560008051602061198e83398151915290910180546001600160a01b0319166001600160a01b038716179055600a8054808301825560009190915260008051602061196e833981519152018490559054610cd391906118c6565b610d85610d91565b610d8e81610eb0565b50565b6006546001600160a01b03163314610de45760405162461bcd60e51b815260206004820152601660248201527527b7363c9031b0b63630b1363290313c9037bbb732b960511b60448201526064016102b5565b565b610dee611522565b610df6611522565b610e0281868686610f55565b95945050505050565b6080830151610e1a9083610f92565b610e278360800151610fa9565b60005b8151811015610e8357610e71828281518110610e5657634e487b7160e01b600052603260045260246000fd5b60200260200101518560800151610f9290919063ffffffff16565b80610e7b81611912565b915050610e2a565b50610a638360800151610fb4565b6000610ea884848460016320214ca360e11b610fbf565b949350505050565b6001600160a01b038116331415610f035760405162461bcd60e51b815260206004820152601760248201527621b0b73737ba103a3930b739b332b9103a379039b2b63360491b60448201526064016102b5565b600780546001600160a01b0319166001600160a01b03838116918217909255600654604051919216907fed8889f560326eb138920d842192f0eb3dd22b4f139c87a2c57538e05bae127890600090a350565b610f5d611522565b610f6d85608001516101006111c6565b50509183526001600160a01b031660208301526001600160e01b031916604082015290565b610f9f8260038351611224565b610a6382826112f1565b610d8e816004611312565b610d8e816007611312565b6004546040516001600160601b03193060601b166020820152603481019190915260009060540160408051808303601f19018152918152815160209283012060045460608901526000818152600590935281832080546001600160a01b0319166001600160a01b038b16179055905190925082917fb5e6e01e79f91267dc17b4e6314d5d4d03593d2ceee0fbb452b750bd70ea5af991a2600082600080886000015189602001518a604001518b606001518a8d60800151600001516040516024016110919897969594939291906116a0565b60408051601f198184030181529181526020820180516001600160e01b03166001600160e01b0319909416939093179092526002549151630200057560e51b81529092506001600160a01b0390911690634000aea0906110f9908a9089908690600401611708565b602060405180830381600087803b15801561111357600080fd5b505af1158015611127573d6000803e3d6000fd5b505050506040513d601f19601f8201168201806040525081019061114b91906115d0565b6111a35760405162461bcd60e51b815260206004820152602360248201527f756e61626c6520746f207472616e73666572416e6443616c6c20746f206f7261604482015262636c6560e81b60648201526084016102b5565b6001600460008282546111b69190611790565b9091555091979650505050505050565b6111ce611557565b6111d960208361192d565b15611201576111e960208361192d565b6111f49060206118c6565b6111fe9083611790565b91505b506020808301829052604080518085526000815283019091019052815b92915050565b6017811161123f57610a618360e0600585901b168317611323565b60ff81116112695761125c836018611fe0600586901b1617611323565b50610a618382600161133b565b61ffff811161129457611287836019611fe0600586901b1617611323565b50610a618382600261133b565b63ffffffff81116112c1576112b483601a611fe0600586901b1617611323565b50610a618382600461133b565b6001600160401b038111610a63576112e483601b611fe0600586901b1617611323565b50610a618382600861133b565b6112f9611557565b61130b83846000015151848551611354565b9392505050565b610a6382601f611fe0600585901b16175b61132b611557565b61130b8384600001515184611431565b611343611557565b610ea8848560000151518585611480565b61135c611557565b825182111561136a57600080fd5b60208501516113798386611790565b11156113ac576113ac8561139c876020015187866113979190611790565b6114f4565b6113a79060026118a7565b61150b565b6000808651805187602083010193508088870111156113cb5787860182525b505050602084015b6020841061140b57805182526113ea602083611790565b91506113f7602082611790565b90506114046020856118c6565b93506113d3565b51815160001960208690036101000a019081169019919091161790525083949350505050565b611439611557565b836020015183106114595761145984856020015160026113a791906118a7565b835180516020858301018481535080851415611476576001810182525b5093949350505050565b611488611557565b60208501516114978584611790565b11156114ab576114ab8561139c8685611790565b600060016114bb846101006117ff565b6114c591906118c6565b90508551838682010185831982511617815250805184870111156114e95783860181525b509495945050505050565b60008183111561150557508161121e565b50919050565b815161151783836111c6565b50610a6183826112f1565b6040805160a081018252600080825260208201819052918101829052606081019190915260808101611552611557565b905290565b604051806040016040528060608152602001600081525090565b80356001600160a01b038116811461158857600080fd5b919050565b60006020828403121561159e578081fd5b61130b82611571565b600080604083850312156115b9578081fd5b6115c283611571565b946020939093013593505050565b6000602082840312156115e1578081fd5b8151801515811461130b578182fd5b600060208284031215611601578081fd5b5035919050565b6000806040838503121561161a578182fd5b50508035926020909101359150565b60006020828403121561163a578081fd5b5051919050565b60008151808452815b818110156116665760208185018101518683018201520161164a565b818111156116775782602083870101525b50601f01601f19169290920160200192915050565b6001600160a01b0391909116815260200190565b6001600160a01b0389811682526020820189905260408201889052861660608201526001600160e01b03198516608082015260a0810184905260c0810183905261010060e082018190526000906116f983820185611641565b9b9a5050505050505050505050565b60018060a01b0384168152826020820152606060408201526000610e026060830184611641565b6000602080830181845280855180835260408601915060408160051b8701019250838701855b8281101561178357603f19888603018452611771858351611641565b94509285019290850190600101611755565b5092979650505050505050565b600082198211156117a3576117a3611941565b500190565b6000826117b7576117b7611957565b500490565b600181815b808511156117f75781600019048211156117dd576117dd611941565b808516156117ea57918102915b93841c93908002906117c1565b509250929050565b600061130b83836000826118155750600161121e565b816118225750600061121e565b816001811461183857600281146118425761185e565b600191505061121e565b60ff84111561185357611853611941565b50506001821b61121e565b5060208310610133831016604e8410600b8410161715611881575081810a61121e565b61188b83836117bc565b806000190482111561189f5761189f611941565b029392505050565b60008160001904831182151516156118c1576118c1611941565b500290565b6000828210156118d8576118d8611941565b500390565b600181811c908216806118f157607f821691505b6020821081141561150557634e487b7160e01b600052602260045260246000fd5b600060001982141561192657611926611941565b5060010190565b60008261193c5761193c611957565b500690565b634e487b7160e01b600052601160045260246000fd5b634e487b7160e01b600052601260045260246000fdfec65a7bb8d6351c1cf70c95a316cc6a92839c986682d98bc35f958f4883f9d2a86e1540171b6c0c960b71a7020d9f60077f6af931a8bbf590da0223dacf75c7afa264697066735822122085c44ea789e1d711026341a282b749816c4f57cb826f5db7835850cd01d006b964736f6c634300080400335b22323032312d31302d3036222c2022323032312d31302d3038222c2022323032312d31302d3236222c2022323032312d31302d3238222c2022323032312d31302d3331222c2022323032312d31312d3032222c2022323032312d31312d3036222c2022323032312d31312d3038222c2022323032312d31312d3135222c2022323032312d31312d3237222c2022323032312d31312d3239222c2022323032312d31322d3033222c2022323032312d31322d3034222c2022323032312d31322d3037222c2022323032312d31322d3133222c2022323032312d31322d3135222c2022323032312d31322d3231222c2022323032312d31322d3233222c2022323032322d30312d3033222c2022323032322d30312d3035222c2022323032322d30312d3039222c2022323032322d30312d3135222c2022323032322d30312d3137222c2022323032322d30312d3139222c2022323032322d30312d3230222c2022323032322d30312d3233222c2022323032322d30312d3239222c2022323032322d30322d3032222c2022323032322d30322d3034222c2022323032322d30322d3036222c2022323032322d30322d3038222c2022323032322d30322d3130222c2022323032322d30322d3132222c2022323032322d30332d3033222c2022323032322d30332d3035222c2022323032322d30332d3037222c2022323032322d30332d3039222c2022323032322d30332d3231222c2022323032322d30332d3233222c2022323032322d30332d3237222c2022323032322d30332d3239222c2022323032322d30342d3038222c2022323032322d30342d3130225d","linkReferences":{},"deployedLinkReferences":{}}