{"_format":"hh-sol-artifact-1","contractName":"CubanBlizzardOption","sourceName":"contracts/CubanBlizzardDerivativeFactory.sol","abi":[{"inputs":[],"stateMutability":"nonpayable","type":"constructor"},{"anonymous":false,"inputs":[{"indexed":true,"internalType":"bytes32","name":"id","type":"bytes32"}],"name":"ChainlinkCancelled","type":"event"},{"anonymous":false,"inputs":[{"indexed":true,"internalType":"bytes32","name":"id","type":"bytes32"}],"name":"ChainlinkFulfilled","type":"event"},{"anonymous":false,"inputs":[{"indexed":true,"internalType":"bytes32","name":"id","type":"bytes32"}],"name":"ChainlinkRequested","type":"event"},{"anonymous":false,"inputs":[{"indexed":true,"internalType":"address","name":"from","type":"address"},{"indexed":true,"internalType":"address","name":"to","type":"address"}],"name":"OwnershipTransferRequested","type":"event"},{"anonymous":false,"inputs":[{"indexed":true,"internalType":"address","name":"from","type":"address"},{"indexed":true,"internalType":"address","name":"to","type":"address"}],"name":"OwnershipTransferred","type":"event"},{"anonymous":false,"inputs":[{"indexed":false,"internalType":"address","name":"_contract","type":"address"},{"indexed":false,"internalType":"uint256","name":"_time","type":"uint256"}],"name":"contractEnded","type":"event"},{"anonymous":false,"inputs":[{"indexed":false,"internalType":"address","name":"_contract","type":"address"},{"indexed":false,"internalType":"uint256","name":"_payout","type":"uint256"},{"indexed":false,"internalType":"uint256","name":"_time","type":"uint256"}],"name":"evaluationRequestFulfilled","type":"event"},{"anonymous":false,"inputs":[{"indexed":false,"internalType":"address","name":"_contract","type":"address"},{"indexed":false,"internalType":"address","name":"_oracle","type":"address"},{"indexed":false,"internalType":"bytes32","name":"_request","type":"bytes32"},{"indexed":false,"internalType":"uint256","name":"_time","type":"uint256"}],"name":"evaluationRequestSent","type":"event"},{"inputs":[],"name":"acceptOwnership","outputs":[],"stateMutability":"nonpayable","type":"function"},{"inputs":[{"internalType":"address","name":"_oracle","type":"address"},{"internalType":"bytes32","name":"_job","type":"bytes32"}],"name":"addOracleJob","outputs":[],"stateMutability":"nonpayable","type":"function"},{"inputs":[],"name":"contractEvaluated","outputs":[{"internalType":"bool","name":"","type":"bool"}],"stateMutability":"view","type":"function"},{"inputs":[{"internalType":"bytes32","name":"_requestId","type":"bytes32"},{"internalType":"uint256","name":"_result","type":"uint256"}],"name":"fulfillPayoutEvaluation","outputs":[],"stateMutability":"nonpayable","type":"function"},{"inputs":[],"name":"getNumJobs","outputs":[{"internalType":"uint256","name":"","type":"uint256"}],"stateMutability":"view","type":"function"},{"inputs":[],"name":"getParameters","outputs":[{"internalType":"string[]","name":"","type":"string[]"}],"stateMutability":"view","type":"function"},{"inputs":[{"internalType":"uint256","name":"_oraclePayment","type":"uint256"},{"internalType":"address","name":"_link","type":"address"}],"name":"initialize","outputs":[],"stateMutability":"nonpayable","type":"function"},{"inputs":[{"internalType":"uint256","name":"","type":"uint256"}],"name":"jobs","outputs":[{"internalType":"bytes32","name":"","type":"bytes32"}],"stateMutability":"view","type":"function"},{"inputs":[{"internalType":"bytes32","name":"","type":"bytes32"}],"name":"oracleMap","outputs":[{"internalType":"uint256","name":"","type":"uint256"}],"stateMutability":"view","type":"function"},{"inputs":[{"internalType":"uint256","name":"","type":"uint256"}],"name":"oracles","outputs":[{"internalType":"address","name":"","type":"address"}],"stateMutability":"view","type":"function"},{"inputs":[],"name":"owner","outputs":[{"internalType":"address","name":"","type":"address"}],"stateMutability":"view","type":"function"},{"inputs":[],"name":"payout","outputs":[{"internalType":"uint256","name":"","type":"uint256"}],"stateMutability":"view","type":"function"},{"inputs":[{"internalType":"bytes32","name":"_job","type":"bytes32"}],"name":"removeOracleJob","outputs":[],"stateMutability":"nonpayable","type":"function"},{"inputs":[],"name":"requestPayoutEvaluation","outputs":[],"stateMutability":"nonpayable","type":"function"},{"inputs":[{"internalType":"address","name":"to","type":"address"}],"name":"transferOwnership","outputs":[],"stateMutability":"nonpayable","type":"function"}],"bytecode":"0x608060405260016004553480156200001657600080fd5b503380600081620000445760405162461bcd60e51b81526004016200003b9062000516565b60405180910390fd5b600680546001600160a01b0319166001600160a01b0384811691909117909155811615620000775762000077816200032c565b50506000600f5550600c805460ff19169055604080516102c081018252600a610280808301918252691cdd185d1a5bdb97da5960b21b6102a084015290825282518084018452600b81526a555357303030303339323760a81b6020828101919091528084019190915283518085018552601081526f776561746865725f7661726961626c6560801b818301528385015283518085018552600480825263534e4f5760e01b82840152606085019190915284518086018652600781526619185d185cd95d60ca1b8184015260808501528451808601865260058082526419da18db9960da1b8285015260a08601919091528551808701875260088152676f70745f7479706560c01b8185015260c0860152855180870187528281526310d0531360e21b8185015260e086015285518087018752600680825265737472696b6560d01b82860152610100870191909152865180880188526001808252600360fc1b8287015261012088019190915287518089018952838152641b1a5b5a5d60da1b81870152610140880152875180890189528281526503235303030360d41b8187018190526101608901919091528851808a018a52858152637469636b60e01b818801526101808901528851808a018a52928352828601526101a08701919091528651808801885260098152681d1a1c995cda1bdb1960ba1b818601526101c087015286518088018852908152601b60f91b818501526101e086015285518087018752600e81526d696d70657269616c5f756e69747360901b8185015261020086015285518087018752918252635472756560e01b828401526102208501919091528451808601865290815264646174657360d81b81830152610240840152835191820190935261025a808252919261026084019290620020d09083013990526200032590600e906014620003aa565b50620005c1565b6001600160a01b038116331415620003585760405162461bcd60e51b81526004016200003b906200054d565b600780546001600160a01b0319166001600160a01b03838116918217909255600654604051919216907fed8889f560326eb138920d842192f0eb3dd22b4f139c87a2c57538e05bae127890600090a350565b828054828255906000526020600020908101928215620003fc579160200282015b82811115620003fc5782518051620003eb9184916020909101906200040e565b5091602001919060010190620003cb565b506200040a92915062000499565b5090565b8280546200041c9062000584565b90600052602060002090601f0160209004810192826200044057600085556200048b565b82601f106200045b57805160ff19168380011785556200048b565b828001600101855582156200048b579182015b828111156200048b5782518255916020019190600101906200046e565b506200040a929150620004ba565b808211156200040a576000620004b08282620004d1565b5060010162000499565b5b808211156200040a5760008155600101620004bb565b508054620004df9062000584565b6000825580601f10620004f3575062000513565b601f016020900490600052602060002090810190620005139190620004ba565b50565b60208082526018908201527f43616e6e6f7420736574206f776e657220746f207a65726f0000000000000000604082015260600190565b60208082526017908201527f43616e6e6f74207472616e7366657220746f2073656c66000000000000000000604082015260600190565b6002810460018216806200059957607f821691505b60208210811415620005bb57634e487b7160e01b600052602260045260246000fd5b50919050565b611aff80620005d16000396000f3fe608060405234801561001057600080fd5b50600436106100c55760003560e01c8063180aedf3146100ca578063186395cf146100f35780633612820d146100fd5780633c54689f146101105780635b69a7d814610123578063602f144b1461014357806363bd1d4a1461015857806364f1cb741461016057806379ba5097146101735780637e0c00ed1461017b5780638da5cb5b14610183578063a5ea11da1461018b578063da35a26f146101a0578063ddc97227146101b3578063f2fde38b146101c6575b600080fd5b6100dd6100d83660046114aa565b6101d9565b6040516100ea9190611708565b60405180910390f35b6100fb6101fa565b005b6100fb61010b3660046114aa565b610530565b6100fb61011e3660046114c2565b6107cf565b6101366101313660046114aa565b610a15565b6040516100ea919061158e565b61014b610a3f565b6040516100ea91906116fd565b6100dd610a48565b6100dd61016e3660046114aa565b610a4e565b6100fb610a60565b6100dd610ae5565b610136610aeb565b610193610afa565b6040516100ea919061169d565b6100fb6101ae3660046114fb565b610bdf565b6100fb6101c1366004611461565b610bf5565b6100fb6101d4366004611447565b610c98565b600b81815481106101e957600080fd5b600091825260209091200154905081565b610202610cac565b42636253a7c01061022e5760405162461bcd60e51b8152600401610225906117fc565b60405180910390fd5b7ff1c35e3933051ea28efca558462a55cac66003050f2c6f4e96833a696fa444e2304260405161025f9291906115cb565b60405180910390a1600854600a805460408051602080840282018101909252828152600093909290918301828280156102c157602002820191906000526020600020905b81546001600160a01b031681526001909101906020018083116102a3575b505050505090506000600b80548060200260200160405190810160405280929190818152602001828054801561031657602002820191906000526020600020905b815481526020019060010190808311610302575b505050505090506000600e805480602002602001604051908101604052809291908181526020016000905b828210156103ed57838290600052602060002001805461036090611a39565b80601f016020809104026020016040519081016040528092919081815260200182805461038c90611a39565b80156103d95780601f106103ae576101008083540402835291602001916103d9565b820191906000526020600020905b8154815290600101906020018083116103bc57829003601f168201915b505050505081526020019060010190610341565b5050505090506000805b8451811461052657600061043a85838151811061042457634e487b7160e01b600052603260045260246000fd5b602002602001015130633c54689f60e01b610cd8565b60408051808201909152600a815269706172616d657465727360b01b602082015290915061046a90829086610cff565b600061049e87848151811061048f57634e487b7160e01b600052603260045260246000fd5b6020026020010151838a610d8a565b90506104ab6001856118c3565b93507f8a9d8e27cea77dd32eb51cfaf81bfc3fded7c7eeec5de203c4a8ad17c930fda7308885815181106104ef57634e487b7160e01b600052603260045260246000fd5b6020026020010151834260405161050994939291906115a2565b60405180910390a15061051f90506001826118c3565b90506103f7565b50600d5550505050565b610538610cac565b60008181526009602052604090205480158015610580575081600b828154811061057257634e487b7160e01b600052603260045260246000fd5b906000526020600020015414155b6107cb57600b5461059390600190611a22565b81141561061557600a8054806105b957634e487b7160e01b600052603160045260246000fd5b600082815260209020810160001990810180546001600160a01b0319169055019055600b8054806105fa57634e487b7160e01b600052603160045260246000fd5b600190038181906000526020600020016000905590556107cb565b600a805461062590600190611a22565b8154811061064357634e487b7160e01b600052603260045260246000fd5b600091825260209091200154600a80546001600160a01b03909216918390811061067d57634e487b7160e01b600052603260045260246000fd5b9060005260206000200160006101000a8154816001600160a01b0302191690836001600160a01b03160217905550600a8054806106ca57634e487b7160e01b600052603160045260246000fd5b600082815260209020810160001990810180546001600160a01b0319169055019055600b80546106fc90600190611a22565b8154811061071a57634e487b7160e01b600052603260045260246000fd5b9060005260206000200154600b828154811061074657634e487b7160e01b600052603260045260246000fd5b600091825260209091200155600b80548061077157634e487b7160e01b600052603160045260246000fd5b600190038181906000526020600020016000905590558060096000600b84815481106107ad57634e487b7160e01b600052603260045260246000fd5b90600052602060002001548152602001908152602001600020819055505b5050565b60008281526005602052604090205482906001600160a01b031633146108075760405162461bcd60e51b81526004016102259061187b565b60008181526005602052604080822080546001600160a01b03191690555182917f7cc135e0cebb02c3480ae5d74d377283180a2601f8f644edf7987b009316c63a91a281600f600082825461085c91906118c3565b925050819055506001600d60008282546108769190611a22565b9091555050600d546109d557600a54600f80546000906108979084906118db565b9091555050600c805460ff1916600117905560006108b3610da9565b9050806001600160a01b031663a9059cbb6108cc610aeb565b6040516370a0823160e01b81526001600160a01b038516906370a08231906108f890309060040161158e565b60206040518083038186803b15801561091057600080fd5b505afa158015610924573d6000803e3d6000fd5b505050506040513d601f19601f8201168201806040525081019061094891906114e3565b6040518363ffffffff1660e01b81526004016109659291906115cb565b602060405180830381600087803b15801561097f57600080fd5b505af1158015610993573d6000803e3d6000fd5b505050506040513d601f19601f820116820180604052508101906109b7919061148a565b6109d35760405162461bcd60e51b815260040161022590611711565b505b7f8b08e29b6d8230eac33ee2a434b338e6589507f4f1082daa4042159a06333345308342604051610a089392919061167c565b60405180910390a1505050565b600a8181548110610a2557600080fd5b6000918252602090912001546001600160a01b0316905081565b600c5460ff1681565b600f5481565b60096020526000908152604090205481565b6007546001600160a01b03163314610a8a5760405162461bcd60e51b815260040161022590611759565b600680546001600160a01b0319808216339081179093556007805490911690556040516001600160a01b03909116919082907f8be0079c531659141344cd1fd0a4f28419497f9722a3daafe3b4186f6b6457e090600090a350565b600b5490565b6006546001600160a01b031690565b6060610b04610cac565b6000600e805480602002602001604051908101604052809291908181526020016000905b82821015610bd4578382906000526020600020018054610b4790611a39565b80601f0160208091040260200160405190810160405280929190818152602001828054610b7390611a39565b8015610bc05780601f10610b9557610100808354040283529160200191610bc0565b820191906000526020600020905b815481529060010190602001808311610ba357829003601f168201915b505050505081526020019060010190610b28565b509294505050505090565b610be7610cac565b60088290556107cb81610db8565b610bfd610cac565b600a8054600180820183557fc65a7bb8d6351c1cf70c95a316cc6a92839c986682d98bc35f958f4883f9d2a890910180546001600160a01b0319166001600160a01b038616179055600b805480830182556000919091527f0175b7a638427703f0dbe7bb9bbf987a2551717b34e79f33b5b1008d1fa01db9018390559054610c859190611a22565b6000918252600960205260409091205550565b610ca0610cac565b610ca981610dda565b50565b6006546001600160a01b03163314610cd65760405162461bcd60e51b8152600401610225906117cc565b565b610ce06113dc565b610ce86113dc565b610cf481868686610e55565b9150505b9392505050565b6080830151610d0e9083610e92565b610d1b8360800151610ea9565b60005b8151811015610d7757610d65828281518110610d4a57634e487b7160e01b600052603260045260246000fd5b60200260200101518560800151610e9290919063ffffffff16565b80610d6f81611a6e565b915050610d1e565b50610d858360800151610eb4565b505050565b6000610da184848460016320214ca360e11b610ebf565b949350505050565b6002546001600160a01b031690565b600280546001600160a01b0319166001600160a01b0392909216919091179055565b6001600160a01b038116331415610e035760405162461bcd60e51b81526004016102259061184a565b600780546001600160a01b0319166001600160a01b03838116918217909255600654604051919216907fed8889f560326eb138920d842192f0eb3dd22b4f139c87a2c57538e05bae127890600090a350565b610e5d6113dc565b610e6d856080015161010061107a565b50509183526001600160a01b031660208301526001600160e01b031916604082015290565b610e9f82600383516110d8565b610d8582826111b2565b610ca98160046111cc565b610ca98160076111cc565b600030600454604051602001610ed6929190611571565b60408051808303601f19018152918152815160209283012060045460608901526000818152600590935281832080546001600160a01b0319166001600160a01b038b16179055905190925082917fb5e6e01e79f91267dc17b4e6314d5d4d03593d2ceee0fbb452b750bd70ea5af991a2600082600080886000015189602001518a604001518b606001518a8d6080015160000151604051602401610f819897969594939291906115e4565b60408051601f198184030181529181526020820180516001600160e01b03166001600160e01b0319909416939093179092526002549151630200057560e51b81529092506001600160a01b0390911690634000aea090610fe9908a908990869060040161164c565b602060405180830381600087803b15801561100357600080fd5b505af1158015611017573d6000803e3d6000fd5b505050506040513d601f19601f8201168201806040525081019061103b919061148a565b6110575760405162461bcd60e51b815260040161022590611789565b60016004600082825461106a91906118c3565b9091555091979650505050505050565b611082611411565b61108d602083611a89565b156110b55761109d602083611a89565b6110a8906020611a22565b6110b290836118c3565b91505b506020808301829052604080518085526000815283019091019052815b92915050565b601781116110f9576110f38360e0600585901b1683176111dd565b50610d85565b60ff811161112357611116836018611fe0600586901b16176111dd565b506110f3838260016111f5565b61ffff811161114e57611141836019611fe0600586901b16176111dd565b506110f3838260026111f5565b63ffffffff811161117b5761116e83601a611fe0600586901b16176111dd565b506110f3838260046111f5565b67ffffffffffffffff8111610d855761119f83601b611fe0600586901b16176111dd565b506111ac838260086111f5565b50505050565b6111ba611411565b610cf88384600001515184855161120e565b610d8582601f611fe0600585901b16175b6111e5611411565b610cf883846000015151846112eb565b6111fd611411565b610da184856000015151858561133a565b611216611411565b825182111561122457600080fd5b602085015161123383866118c3565b111561126657611266856112568760200151878661125191906118c3565b6113ae565b611261906002611a03565b6113c5565b6000808651805187602083010193508088870111156112855787860182525b505050602084015b602084106112c557805182526112a46020836118c3565b91506112b16020826118c3565b90506112be602085611a22565b935061128d565b51815160001960208690036101000a019081169019919091161790525083949350505050565b6112f3611411565b836020015183106113135761131384856020015160026112619190611a03565b835180516020858301018481535080851415611330576001810182525b5093949350505050565b611342611411565b602085015161135185846118c3565b1115611365576113658561125686856118c3565b6000600161137584610100611935565b61137f9190611a22565b90508551838682010185831982511617815250805184870111156113a35783860181525b509495945050505050565b6000818311156113bf5750816110d2565b50919050565b81516113d1838361107a565b506111ac83826111b2565b6040805160a08101825260008082526020820181905291810182905260608101919091526080810161140c611411565b905290565b604051806040016040528060608152602001600081525090565b80356001600160a01b038116811461144257600080fd5b919050565b600060208284031215611458578081fd5b610cf88261142b565b60008060408385031215611473578081fd5b61147c8361142b565b946020939093013593505050565b60006020828403121561149b578081fd5b81518015158114610cf8578182fd5b6000602082840312156114bb578081fd5b5035919050565b600080604083850312156114d4578182fd5b50508035926020909101359150565b6000602082840312156114f4578081fd5b5051919050565b6000806040838503121561150d578182fd5b8235915061151d6020840161142b565b90509250929050565b60008151808452815b8181101561154b5760208185018101518683018201520161152f565b8181111561155c5782602083870101525b50601f01601f19169290920160200192915050565b60609290921b6001600160601b0319168252601482015260340190565b6001600160a01b0391909116815260200190565b6001600160a01b0394851681529290931660208301526040820152606081019190915260800190565b6001600160a01b03929092168252602082015260400190565b6001600160a01b0389811682526020820189905260408201889052861660608201526001600160e01b03198516608082015260a0810184905260c0810183905261010060e0820181905260009061163d83820185611526565b9b9a5050505050505050505050565b600060018060a01b0385168252836020830152606060408301526116736060830184611526565b95945050505050565b6001600160a01b039390931683526020830191909152604082015260600190565b6000602080830181845280855180835260408601915060408482028701019250838701855b828110156116f057603f198886030184526116de858351611526565b945092850192908501906001016116c2565b5092979650505050505050565b901515815260200190565b90815260200190565b60208082526028908201527f556e61626c6520746f207472616e736665722072656d61696e696e67204c494e6040820152674b20746f6b656e7360c01b606082015260800190565b60208082526016908201527526bab9ba10313290383937b837b9b2b21037bbb732b960511b604082015260600190565b60208082526023908201527f756e61626c6520746f207472616e73666572416e6443616c6c20746f206f7261604082015262636c6560e81b606082015260800190565b60208082526016908201527527b7363c9031b0b63630b1363290313c9037bbb732b960511b604082015260600190565b6020808252602e908201527f756e61626c6520746f2063616c6c20756e74696c20636f76657261676520706560408201526d1c9a5bd9081a185cc8195b99195960921b606082015260800190565b60208082526017908201527621b0b73737ba103a3930b739b332b9103a379039b2b63360491b604082015260600190565b60208082526028908201527f536f75726365206d75737420626520746865206f7261636c65206f6620746865604082015267081c995c5d595cdd60c21b606082015260800190565b600082198211156118d6576118d6611a9d565b500190565b6000826118ea576118ea611ab3565b500490565b80825b6001808611611901575061192c565b81870482111561191357611913611a9d565b8086161561192057918102915b9490941c9380026118f2565b94509492505050565b6000610cf8600019848460008261194e57506001610cf8565b8161195b57506000610cf8565b8160018114611971576002811461197b576119a8565b6001915050610cf8565b60ff84111561198c5761198c611a9d565b6001841b9150848211156119a2576119a2611a9d565b50610cf8565b5060208310610133831016604e8410600b84101617156119db575081810a838111156119d6576119d6611a9d565b610cf8565b6119e884848460016118ef565b8086048211156119fa576119fa611a9d565b02949350505050565b6000816000190483118215151615611a1d57611a1d611a9d565b500290565b600082821015611a3457611a34611a9d565b500390565b600281046001821680611a4d57607f821691505b602082108114156113bf57634e487b7160e01b600052602260045260246000fd5b6000600019821415611a8257611a82611a9d565b5060010190565b600082611a9857611a98611ab3565b500690565b634e487b7160e01b600052601160045260246000fd5b634e487b7160e01b600052601260045260246000fdfea2646970667358221220968348d4eb4fd3f4fca9516ad0632983b33674da40479988d22730bfe38b9dc664736f6c634300080000335b22323032312d31302d3036222c2022323032312d31302d3038222c2022323032312d31302d3236222c2022323032312d31302d3238222c2022323032312d31302d3331222c2022323032312d31312d3032222c2022323032312d31312d3036222c2022323032312d31312d3038222c2022323032312d31312d3135222c2022323032312d31312d3237222c2022323032312d31312d3239222c2022323032312d31322d3033222c2022323032312d31322d3034222c2022323032312d31322d3037222c2022323032312d31322d3133222c2022323032312d31322d3135222c2022323032312d31322d3231222c2022323032312d31322d3233222c2022323032322d30312d3033222c2022323032322d30312d3035222c2022323032322d30312d3039222c2022323032322d30312d3135222c2022323032322d30312d3137222c2022323032322d30312d3139222c2022323032322d30312d3230222c2022323032322d30312d3233222c2022323032322d30312d3239222c2022323032322d30322d3032222c2022323032322d30322d3034222c2022323032322d30322d3036222c2022323032322d30322d3038222c2022323032322d30322d3130222c2022323032322d30322d3132222c2022323032322d30332d3033222c2022323032322d30332d3035222c2022323032322d30332d3037222c2022323032322d30332d3039222c2022323032322d30332d3231222c2022323032322d30332d3233222c2022323032322d30332d3237222c2022323032322d30332d3239222c2022323032322d30342d3038222c2022323032322d30342d3130225d","linkReferences":{},"deployedLinkReferences":{}}