{
  "_format": "hh-sol-artifact-1",
  "contractName": "RainfallDerivativeProvider",
  "sourceName": "contracts/RainfallDerivativeFactory.sol",
  "abi": [
    {
      "inputs": [],
      "stateMutability": "nonpayable",
      "type": "constructor"
    },
    {
      "anonymous": false,
      "inputs": [
        {
          "indexed": true,
          "internalType": "address",
          "name": "from",
          "type": "address"
        },
        {
          "indexed": true,
          "internalType": "address",
          "name": "to",
          "type": "address"
        }
      ],
      "name": "OwnershipTransferRequested",
      "type": "event"
    },
    {
      "anonymous": false,
      "inputs": [
        {
          "indexed": true,
          "internalType": "address",
          "name": "from",
          "type": "address"
        },
        {
          "indexed": true,
          "internalType": "address",
          "name": "to",
          "type": "address"
        }
      ],
      "name": "OwnershipTransferred",
      "type": "event"
    },
    {
      "anonymous": false,
      "inputs": [
        {
          "indexed": false,
          "internalType": "address",
          "name": "_contract",
          "type": "address"
        },
        {
          "indexed": false,
          "internalType": "string",
          "name": "_id",
          "type": "string"
        }
      ],
      "name": "contractCreated",
      "type": "event"
    },
    {
      "inputs": [],
      "name": "LINK_ADDRESS",
      "outputs": [
        {
          "internalType": "address",
          "name": "",
          "type": "address"
        }
      ],
      "stateMutability": "view",
      "type": "function"
    },
    {
      "inputs": [],
      "name": "ORACLE_BANK",
      "outputs": [
        {
          "internalType": "address",
          "name": "",
          "type": "address"
        }
      ],
      "stateMutability": "view",
      "type": "function"
    },
    {
      "inputs": [],
      "name": "acceptOwnership",
      "outputs": [],
      "stateMutability": "nonpayable",
      "type": "function"
    },
    {
      "inputs": [
        {
          "internalType": "string",
          "name": "_id",
          "type": "string"
        },
        {
          "internalType": "address",
          "name": "_oracle",
          "type": "address"
        },
        {
          "internalType": "string",
          "name": "_job",
          "type": "string"
        }
      ],
      "name": "addContractJob",
      "outputs": [],
      "stateMutability": "nonpayable",
      "type": "function"
    },
    {
      "inputs": [
        {
          "internalType": "string",
          "name": "",
          "type": "string"
        }
      ],
      "name": "contracts",
      "outputs": [
        {
          "internalType": "contract RainfallOption",
          "name": "",
          "type": "address"
        }
      ],
      "stateMutability": "view",
      "type": "function"
    },
    {
      "inputs": [
        {
          "internalType": "string",
          "name": "_id",
          "type": "string"
        }
      ],
      "name": "endContractInstance",
      "outputs": [],
      "stateMutability": "nonpayable",
      "type": "function"
    },
    {
      "inputs": [],
      "name": "endProviderContract",
      "outputs": [],
      "stateMutability": "nonpayable",
      "type": "function"
    },
    {
      "inputs": [
        {
          "internalType": "string",
          "name": "_id",
          "type": "string"
        }
      ],
      "name": "getContractAddress",
      "outputs": [
        {
          "internalType": "address",
          "name": "",
          "type": "address"
        }
      ],
      "stateMutability": "view",
      "type": "function"
    },
    {
      "inputs": [
        {
          "internalType": "string",
          "name": "_id",
          "type": "string"
        }
      ],
      "name": "getContractEvaluated",
      "outputs": [
        {
          "internalType": "bool",
          "name": "",
          "type": "bool"
        }
      ],
      "stateMutability": "view",
      "type": "function"
    },
    {
      "inputs": [
        {
          "internalType": "string",
          "name": "_id",
          "type": "string"
        }
      ],
      "name": "getContractPayout",
      "outputs": [
        {
          "internalType": "uint256",
          "name": "",
          "type": "uint256"
        }
      ],
      "stateMutability": "view",
      "type": "function"
    },
    {
      "inputs": [],
      "name": "getETHBalance",
      "outputs": [
        {
          "internalType": "uint256",
          "name": "",
          "type": "uint256"
        }
      ],
      "stateMutability": "view",
      "type": "function"
    },
    {
      "inputs": [],
      "name": "getLINKBalance",
      "outputs": [
        {
          "internalType": "uint256",
          "name": "",
          "type": "uint256"
        }
      ],
      "stateMutability": "view",
      "type": "function"
    },
    {
      "inputs": [
        {
          "internalType": "string",
          "name": "_id",
          "type": "string"
        }
      ],
      "name": "initiateContractEvaluation",
      "outputs": [],
      "stateMutability": "nonpayable",
      "type": "function"
    },
    {
      "inputs": [
        {
          "internalType": "string[]",
          "name": "_locations",
          "type": "string[]"
        },
        {
          "internalType": "string[8]",
          "name": "_parameters",
          "type": "string[8]"
        },
        {
          "internalType": "uint256",
          "name": "_end",
          "type": "uint256"
        }
      ],
      "name": "newContract",
      "outputs": [],
      "stateMutability": "nonpayable",
      "type": "function"
    },
    {
      "inputs": [],
      "name": "owner",
      "outputs": [
        {
          "internalType": "address",
          "name": "",
          "type": "address"
        }
      ],
      "stateMutability": "view",
      "type": "function"
    },
    {
      "inputs": [
        {
          "internalType": "string",
          "name": "_id",
          "type": "string"
        },
        {
          "internalType": "string",
          "name": "_job",
          "type": "string"
        }
      ],
      "name": "removeContractJob",
      "outputs": [],
      "stateMutability": "nonpayable",
      "type": "function"
    },
    {
      "inputs": [
        {
          "internalType": "address",
          "name": "to",
          "type": "address"
        }
      ],
      "name": "transferOwnership",
      "outputs": [],
      "stateMutability": "nonpayable",
      "type": "function"
    }
  ],
  "bytecode": "0x608060405234801561001057600080fd5b50338060008161003b5760405162461bcd60e51b8152600401610032906100ed565b60405180910390fd5b600080546001600160a01b0319166001600160a01b038481169190911790915581161561006b5761006b81610073565b50505061015b565b6001600160a01b03811633141561009c5760405162461bcd60e51b815260040161003290610124565b600180546001600160a01b0319166001600160a01b0383811691821790925560008054604051929316917fed8889f560326eb138920d842192f0eb3dd22b4f139c87a2c57538e05bae12789190a350565b60208082526018908201527f43616e6e6f7420736574206f776e657220746f207a65726f0000000000000000604082015260600190565b60208082526017908201527f43616e6e6f74207472616e7366657220746f2073656c66000000000000000000604082015260600190565b61381a806200016b6000396000f3fe60806040523480156200001157600080fd5b5060043610620001005760003560e01c80638da5cb5b116200009f5780638da5cb5b14620001bf578063ac428e7a14620001c9578063c8a7603514620001d3578063ccc3579c14620001ea578063d1de1e351462000201578063e860985c1462000218578063ed08d8eb146200023e578063f046a97f1462000248578063f2fde38b14620002525762000100565b806304433bbc146200010557806320751f1e14620001345780634aff8754146200014d578063504084ac14620001645780636e947298146200017b57806379ba50971462000194578063849aead8146200019e5780638c5b838514620001a8575b600080fd5b6200011c6200011636600462000f8e565b62000269565b6040516200012b91906200115a565b60405180910390f35b6200014b6200014536600462001045565b6200029e565b005b6200014b6200015e36600462000e94565b62000339565b6200014b6200017536600462000f8e565b62000557565b6200018562000740565b6040516200012b9190620011dc565b6200014b62000751565b6200014b620007d5565b6200011c620001b936600462000f8e565b62000935565b6200011c6200095b565b620001856200096a565b62000185620001e436600462000f8e565b62000a0b565b6200014b620001fb36600462000f8e565b62000aab565b6200014b6200021236600462000fcc565b62000b33565b6200022f6200022936600462000f8e565b62000bb3565b6040516200012b9190620011d1565b6200011c62000c4d565b6200011c62000c65565b6200014b6200026336600462000e70565b62000c7d565b60006002826040516200027d91906200113c565b908152604051908190036020019020546001600160a01b031690505b919050565b620002a862000c95565b600282604051620002ba91906200113c565b908152604051908190036020019020546001600160a01b0316633612820d620002e38362000cc4565b6040518263ffffffff1660e01b8152600401620003019190620011dc565b600060405180830381600087803b1580156200031c57600080fd5b505af115801562000331573d6000803e3d6000fd5b505050505050565b6200034362000c95565b6000604051620003539062000d61565b604051809103906000f08015801562000370573d6000803e3d6000fd5b5060405163660754a160e01b81529091506001600160a01b0382169063660754a190620003c490655af3107a40009073a36085f69e2889c224210f603d836748e7dc008890899089908990600401620012d7565b600060405180830381600087803b158015620003df57600080fd5b505af1158015620003f4573d6000803e3d6000fd5b50505050806001600160a01b031663ddc972277358935f97ab874bc4181bc1a3a85fde2ca80885cd6200045c6040518060400160405280602081526020017f643038656261666432376465346535303836323430613135623266623162646581525062000cc4565b6040518363ffffffff1660e01b81526004016200047b92919062001192565b600060405180830381600087803b1580156200049657600080fd5b505af1158015620004ab573d6000803e3d6000fd5b5050505080600284600060088110620004d457634e487b7160e01b600052603260045260246000fd5b6020020151604051620004e891906200113c565b90815260405190819003602001812080546001600160a01b03939093166001600160a01b03199093169290921790915583517f1b08e1646439b7521399d47f93ab6b1ebc92803e155d0b2f2ad2d4702a0508049162000549918491620011ab565b60405180910390a150505050565b6200056162000c95565b60006002826040516200057591906200113c565b90815260408051918290036020908101832054637e0c00ed60e01b845291516001600160a01b03909216935073a36085f69e2889c224210f603d836748e7dc00889283926323b872dd927369640770407a09b166aed26b778699045b3047689287928392637e0c00ed9260048082019391829003018186803b158015620005fb57600080fd5b505afa15801562000610573d6000803e3d6000fd5b505050506040513d601f19601f82011682018060405250810190620006369190620010ac565b6200064890655af3107a40006200139b565b6040518463ffffffff1660e01b815260040162000668939291906200116e565b602060405180830381600087803b1580156200068357600080fd5b505af115801562000698573d6000803e3d6000fd5b505050506040513d601f19601f82011682018060405250810190620006be919062000f6c565b620006e65760405162461bcd60e51b8152600401620006dd9062001215565b60405180910390fd5b816001600160a01b031663186395cf6040518163ffffffff1660e01b8152600401600060405180830381600087803b1580156200072257600080fd5b505af115801562000737573d6000803e3d6000fd5b50505050505050565b60006200074c62000c95565b504790565b6001546001600160a01b031633146200077e5760405162461bcd60e51b8152600401620006dd90620011e5565b60008054336001600160a01b0319808316821784556001805490911690556040516001600160a01b0390921692909183917f8be0079c531659141344cd1fd0a4f28419497f9722a3daafe3b4186f6b6457e091a350565b620007df62000c95565b6040516370a0823160e01b815273a36085f69e2889c224210f603d836748e7dc008890819063a9059cbb907369640770407a09b166aed26b778699045b3047689083906370a0823190620008389030906004016200115a565b60206040518083038186803b1580156200085157600080fd5b505afa15801562000866573d6000803e3d6000fd5b505050506040513d601f19601f820116820180604052508101906200088c9190620010ac565b6040518363ffffffff1660e01b8152600401620008ab92919062001192565b602060405180830381600087803b158015620008c657600080fd5b505af1158015620008db573d6000803e3d6000fd5b505050506040513d601f19601f8201168201806040525081019062000901919062000f6c565b620009205760405162461bcd60e51b8152600401620006dd906200127a565b6200092a6200095b565b6001600160a01b0316ff5b80516020818301810180516002825292820191909301209152546001600160a01b031681565b6000546001600160a01b031690565b60006200097662000c95565b6040516370a0823160e01b815273a36085f69e2889c224210f603d836748e7dc00889081906370a0823190620009b19030906004016200115a565b60206040518083038186803b158015620009ca57600080fd5b505afa158015620009df573d6000803e3d6000fd5b505050506040513d601f19601f8201168201806040525081019062000a059190620010ac565b91505090565b600060028260405162000a1f91906200113c565b9081526040805160209281900383018120546331de8ea560e11b825291516001600160a01b03909216926363bd1d4a92600480840193829003018186803b15801562000a6a57600080fd5b505afa15801562000a7f573d6000803e3d6000fd5b505050506040513d601f19601f8201168201806040525081019062000aa59190620010ac565b92915050565b62000ab562000c95565b60028160405162000ac791906200113c565b908152604080519182900360200182205463461cf76f60e01b835290516001600160a01b039091169163461cf76f91600480830192600092919082900301818387803b15801562000b1757600080fd5b505af115801562000b2c573d6000803e3d6000fd5b5050505050565b62000b3d62000c95565b60028360405162000b4f91906200113c565b908152604051908190036020019020546001600160a01b031663ddc972278362000b798462000cc4565b6040518363ffffffff1660e01b815260040162000b9892919062001192565b600060405180830381600087803b1580156200072257600080fd5b600060028260405162000bc791906200113c565b90815260408051602092819003830181205463602f144b60e01b825291516001600160a01b039092169263602f144b92600480840193829003018186803b15801562000c1257600080fd5b505afa15801562000c27573d6000803e3d6000fd5b505050506040513d601f19601f8201168201806040525081019062000aa5919062000f6c565b73a36085f69e2889c224210f603d836748e7dc008881565b7369640770407a09b166aed26b778699045b30476881565b62000c8762000c95565b62000c928162000ce4565b50565b6000546001600160a01b0316331462000cc25760405162461bcd60e51b8152600401620006dd906200124a565b565b8051600090829062000cdb57506000905062000299565b50506020015190565b6001600160a01b03811633141562000d105760405162461bcd60e51b8152600401620006dd90620012a6565b600180546001600160a01b0319166001600160a01b0383811691821790925560008054604051929316917fed8889f560326eb138920d842192f0eb3dd22b4f139c87a2c57538e05bae12789190a350565b6123d4806200141183390190565b80356001600160a01b03811681146200029957600080fd5b600082601f83011262000d98578081fd5b60405161010081018181106001600160401b038211171562000dbe5762000dbe620013fa565b6040528083835b600881101562000df45762000dde878335880162000dff565b8352602092830192919091019060010162000dc5565b509195945050505050565b600082601f83011262000e10578081fd5b81356001600160401b0381111562000e2c5762000e2c620013fa565b62000e41601f8201601f19166020016200136f565b81815284602083860101111562000e56578283fd5b816020850160208301379081016020019190915292915050565b60006020828403121562000e82578081fd5b62000e8d8262000d6f565b9392505050565b60008060006060848603121562000ea9578182fd5b83356001600160401b038082111562000ec0578384fd5b818601915086601f83011262000ed4578384fd5b813560208282111562000eeb5762000eeb620013fa565b62000efa81828402016200136f565b82815281810190858301885b8581101562000f335762000f208d8684358b010162000dff565b8452928401929084019060010162000f06565b5090985050508701359250508082111562000f4c578384fd5b5062000f5b8682870162000d87565b925050604084013590509250925092565b60006020828403121562000f7e578081fd5b8151801515811462000e8d578182fd5b60006020828403121562000fa0578081fd5b81356001600160401b0381111562000fb6578182fd5b62000fc48482850162000dff565b949350505050565b60008060006060848603121562000fe1578283fd5b83356001600160401b038082111562000ff8578485fd5b620010068783880162000dff565b9450620010166020870162000d6f565b935060408601359150808211156200102c578283fd5b506200103b8682870162000dff565b9150509250925092565b6000806040838503121562001058578182fd5b82356001600160401b03808211156200106f578384fd5b6200107d8683870162000dff565b9350602085013591508082111562001093578283fd5b50620010a28582860162000dff565b9150509250929050565b600060208284031215620010be578081fd5b5051919050565b600082610100810183835b600881101562001103578383038752620010ec8383516200110e565b6020978801979093509190910190600101620010d0565b509095945050505050565b6000815180845262001128816020860160208601620013c7565b601f01601f19169290920160200192915050565b6000825162001150818460208701620013c7565b9190910192915050565b6001600160a01b0391909116815260200190565b6001600160a01b039384168152919092166020820152604081019190915260600190565b6001600160a01b03929092168252602082015260400190565b6001600160a01b038316815260406020820181905260009062000fc4908301846200110e565b901515815260200190565b90815260200190565b60208082526016908201527526bab9ba10313290383937b837b9b2b21037bbb732b960511b604082015260600190565b6020808252818101527f556e61626c6520746f2066756e64206465706c6f79656420636f6e7472616374604082015260600190565b60208082526016908201527527b7363c9031b0b63630b1363290313c9037bbb732b960511b604082015260600190565b6020808252601290820152712ab730b13632903a37903a3930b739b332b960711b604082015260600190565b60208082526017908201527621b0b73737ba103a3930b739b332b9103a379039b2b63360491b604082015260600190565b600060a08201878352602060018060a01b0388168185015260a0604085015281875180845260c08601915060c08382028701019350828901855b82811015620013435760bf19888703018452620013308683516200110e565b9550928401929084019060010162001311565b505050505082810360608401526200135c8186620010c5565b9150508260808301529695505050505050565b6040518181016001600160401b0381118282101715620013935762001393620013fa565b604052919050565b6000816000190483118215151615620013c257634e487b7160e01b81526011600452602481fd5b500290565b60005b83811015620013e4578181015183820152602001620013ca565b83811115620013f4576000848401525b50505050565b634e487b7160e01b600052604160045260246000fdfe608060405260016004553480156200001657600080fd5b503380600081620000445760405162461bcd60e51b81526004016200003b9062000112565b60405180910390fd5b600680546001600160a01b0319166001600160a01b03848116919091179091558116156200007757620000778162000094565b505060006018819055600c805460ff19169055600d555062000180565b6001600160a01b038116331415620000c05760405162461bcd60e51b81526004016200003b9062000149565b600780546001600160a01b0319166001600160a01b03838116918217909255600654604051919216907fed8889f560326eb138920d842192f0eb3dd22b4f139c87a2c57538e05bae127890600090a350565b60208082526018908201527f43616e6e6f7420736574206f776e657220746f207a65726f0000000000000000604082015260600190565b60208082526017908201527f43616e6e6f74207472616e7366657220746f2073656c66000000000000000000604082015260600190565b61224480620001906000396000f3fe608060405234801561001057600080fd5b50600436106100f65760003560e01c806364f1cb741161009257806364f1cb74146101b9578063660754a1146101cc57806379ba5097146101df5780637e0c00ed146101e75780638da5cb5b146101ef578063ac428e7a146101f7578063b9e0db35146101ff578063ddc9722714610212578063f2fde38b14610225576100f6565b8063180aedf3146100fb578063186395cf146101245780632a4a9dd11461012e5780633612820d1461014e5780633c54689f14610161578063461cf76f146101745780635b69a7d81461017c578063602f144b1461019c57806363bd1d4a146101b1575b600080fd5b61010e610109366004611b18565b610238565b60405161011b9190611dcf565b60405180910390f35b61012c610259565b005b61014161013c366004611b18565b610773565b60405161011b9190611dd8565b61012c61015c366004611b18565b610813565b61012c61016f366004611b30565b610a75565b61012c610cbb565b61018f61018a366004611b18565b610e00565b60405161011b9190611cb5565b6101a4610e2a565b60405161011b9190611dc4565b61010e610e33565b61010e6101c7366004611b18565b610e39565b61012c6101da366004611b69565b610e4b565b61012c610e8c565b61010e610f11565b61018f610f17565b61010e610f26565b61014161020d366004611b18565b610fb6565b61012c610220366004611acf565b610fe1565b61012c610233366004611ab5565b611084565b600b818154811061024857600080fd5b600091825260209091200154905081565b610261611098565b426017541061028b5760405162461bcd60e51b815260040161028290611ed6565b60405180910390fd5b7ff1c35e3933051ea28efca558462a55cac66003050f2c6f4e96833a696fa444e230426040516102bc929190611cf2565b60405180910390a1600854600a8054604080516020808402820181019092528281526000939092909183018282801561031e57602002820191906000526020600020905b81546001600160a01b03168152600190910190602001808311610300575b505050505090506000600b80548060200260200160405190810160405280929190818152602001828054801561037357602002820191906000526020600020905b81548152602001906001019080831161035f575b505050505090506000600e805480602002602001604051908101604052809291908181526020016000905b8282101561044a5783829060005260206000200180546103bd90612168565b80601f01602080910402602001604051908101604052809291908181526020018280546103e990612168565b80156104365780601f1061040b57610100808354040283529160200191610436565b820191906000526020600020905b81548152906001019060200180831161041957829003601f168201915b50505050508152602001906001019061039e565b50506040805161010081019091529293506000929150600f9050600883835b8282101561050c57838201805461047f90612168565b80601f01602080910402602001604051908101604052809291908181526020018280546104ab90612168565b80156104f85780601f106104cd576101008083540402835291602001916104f8565b820191906000526020600020905b8154815290600101906020018083116104db57829003601f168201915b505050505081526020019060010190610469565b5050505090506000805b8551811461076857600061055986838151811061054357634e487b7160e01b600052603260045260246000fd5b602002602001015130633c54689f60e01b6110c4565b6040805180820190915260098152686c6f636174696f6e7360b81b6020820152909150610588908290876110eb565b60408051808201909152600781526619185d185cd95d60ca1b60208201526105bb908560015b6020020151839190611176565b6040805180820190915260088152676f70745f7479706560c01b60208201526105e6908560026105ae565b6040805180820190915260058152641cdd185c9d60da1b602082015261060e908560036105ae565b604080518082019091526003815262195b9960ea1b6020820152610634908560046105ae565b604080518082019091526006815265737472696b6560d01b602082015261065d908560056105ae565b6040805180820190915260058152641b1a5b5a5d60da1b6020820152610685908560066105ae565b6040805180820190915260048152637469636b60e01b60208201526106ac908560076105ae565b60006106e08884815181106106d157634e487b7160e01b600052603260045260246000fd5b6020026020010151838b611194565b90506106ed600185611ff2565b93507f8a9d8e27cea77dd32eb51cfaf81bfc3fded7c7eeec5de203c4a8ad17c930fda73089858151811061073157634e487b7160e01b600052603260045260246000fd5b6020026020010151834260405161074b9493929190611cc9565b60405180910390a1506107619050600182611ff2565b9050610516565b50600d555050505050565b600f816008811061078357600080fd5b01805490915061079290612168565b80601f01602080910402602001604051908101604052809291908181526020018280546107be90612168565b801561080b5780601f106107e05761010080835404028352916020019161080b565b820191906000526020600020905b8154815290600101906020018083116107ee57829003601f168201915b505050505081565b61081b611098565b600081815260096020526040902054600b5461083990600190612151565b8114156108bb57600a80548061085f57634e487b7160e01b600052603160045260246000fd5b600082815260209020810160001990810180546001600160a01b0319169055019055600b8054806108a057634e487b7160e01b600052603160045260246000fd5b60019003818190600052602060002001600090559055610a71565b600a80546108cb90600190612151565b815481106108e957634e487b7160e01b600052603260045260246000fd5b600091825260209091200154600a80546001600160a01b03909216918390811061092357634e487b7160e01b600052603260045260246000fd5b9060005260206000200160006101000a8154816001600160a01b0302191690836001600160a01b03160217905550600a80548061097057634e487b7160e01b600052603160045260246000fd5b600082815260209020810160001990810180546001600160a01b0319169055019055600b80546109a290600190612151565b815481106109c057634e487b7160e01b600052603260045260246000fd5b9060005260206000200154600b82815481106109ec57634e487b7160e01b600052603260045260246000fd5b600091825260209091200155600b805480610a1757634e487b7160e01b600052603160045260246000fd5b600190038181906000526020600020016000905590558060096000600b8481548110610a5357634e487b7160e01b600052603260045260246000fd5b90600052602060002001548152602001908152602001600020819055505b5050565b60008281526005602052604090205482906001600160a01b03163314610aad5760405162461bcd60e51b815260040161028290611f81565b60008181526005602052604080822080546001600160a01b03191690555182917f7cc135e0cebb02c3480ae5d74d377283180a2601f8f644edf7987b009316c63a91a28160186000828254610b029190611ff2565b925050819055506001600d6000828254610b1c9190612151565b9091555050600d54610c7b57600a5460188054600090610b3d90849061200a565b9091555050600c805460ff191660011790556000610b596111b3565b9050806001600160a01b031663a9059cbb610b72610f17565b6040516370a0823160e01b81526001600160a01b038516906370a0823190610b9e903090600401611cb5565b60206040518083038186803b158015610bb657600080fd5b505afa158015610bca573d6000803e3d6000fd5b505050506040513d601f19601f82011682018060405250810190610bee9190611b51565b6040518363ffffffff1660e01b8152600401610c0b929190611cf2565b602060405180830381600087803b158015610c2557600080fd5b505af1158015610c39573d6000803e3d6000fd5b505050506040513d601f19601f82011682018060405250810190610c5d9190611af8565b610c795760405162461bcd60e51b815260040161028290611deb565b505b7f8b08e29b6d8230eac33ee2a434b338e6589507f4f1082daa4042159a06333345308342604051610cae93929190611da3565b60405180910390a1505050565b610cc3611098565b6000610ccd6111b3565b9050806001600160a01b031663a9059cbb610ce6610f17565b6040516370a0823160e01b81526001600160a01b038516906370a0823190610d12903090600401611cb5565b60206040518083038186803b158015610d2a57600080fd5b505afa158015610d3e573d6000803e3d6000fd5b505050506040513d601f19601f82011682018060405250810190610d629190611b51565b6040518363ffffffff1660e01b8152600401610d7f929190611cf2565b602060405180830381600087803b158015610d9957600080fd5b505af1158015610dad573d6000803e3d6000fd5b505050506040513d601f19601f82011682018060405250810190610dd19190611af8565b610ded5760405162461bcd60e51b815260040161028290611f24565b610df5610f17565b6001600160a01b0316ff5b600a8181548110610e1057600080fd5b6000918252602090912001546001600160a01b0316905081565b600c5460ff1681565b60185481565b60096020526000908152604090205481565b610e53611098565b6008859055610e61846111c2565b8251610e7490600e9060208601906117e5565b50610e82600f836008611842565b5060175550505050565b6007546001600160a01b03163314610eb65760405162461bcd60e51b815260040161028290611e33565b600680546001600160a01b0319808216339081179093556007805490911690556040516001600160a01b03909116919082907f8be0079c531659141344cd1fd0a4f28419497f9722a3daafe3b4186f6b6457e090600090a350565b600b5490565b6006546001600160a01b031690565b600080610f316111b3565b6040516370a0823160e01b81529091506001600160a01b038216906370a0823190610f60903090600401611cb5565b60206040518083038186803b158015610f7857600080fd5b505afa158015610f8c573d6000803e3d6000fd5b505050506040513d601f19601f82011682018060405250810190610fb09190611b51565b91505090565b600e8181548110610fc657600080fd5b90600052602060002001600091509050805461079290612168565b610fe9611098565b600a8054600180820183557fc65a7bb8d6351c1cf70c95a316cc6a92839c986682d98bc35f958f4883f9d2a890910180546001600160a01b0319166001600160a01b038616179055600b805480830182556000919091527f0175b7a638427703f0dbe7bb9bbf987a2551717b34e79f33b5b1008d1fa01db90183905590546110719190612151565b6000918252600960205260409091205550565b61108c611098565b611095816111e4565b50565b6006546001600160a01b031633146110c25760405162461bcd60e51b815260040161028290611ea6565b565b6110cc611882565b6110d4611882565b6110e08186868661125f565b9150505b9392505050565b60808301516110fa908361129c565b61110783608001516112b3565b60005b81518110156111635761115182828151811061113657634e487b7160e01b600052603260045260246000fd5b6020026020010151856080015161129c90919063ffffffff16565b8061115b8161219d565b91505061110a565b5061117183608001516112be565b505050565b6080830151611185908361129c565b6080830151611171908261129c565b60006111ab84848460016320214ca360e11b6112c9565b949350505050565b6002546001600160a01b031690565b600280546001600160a01b0319166001600160a01b0392909216919091179055565b6001600160a01b03811633141561120d5760405162461bcd60e51b815260040161028290611f50565b600780546001600160a01b0319166001600160a01b03838116918217909255600654604051919216907fed8889f560326eb138920d842192f0eb3dd22b4f139c87a2c57538e05bae127890600090a350565b611267611882565b6112778560800151610100611484565b50509183526001600160a01b031660208301526001600160e01b031916604082015290565b6112a982600383516114e2565b61117182826115bb565b6110958160046115d5565b6110958160076115d5565b6000306004546040516020016112e0929190611c98565b60408051808303601f19018152918152815160209283012060045460608901526000818152600590935281832080546001600160a01b0319166001600160a01b038b16179055905190925082917fb5e6e01e79f91267dc17b4e6314d5d4d03593d2ceee0fbb452b750bd70ea5af991a2600082600080886000015189602001518a604001518b606001518a8d608001516000015160405160240161138b989796959493929190611d0b565b60408051601f198184030181529181526020820180516001600160e01b03166001600160e01b0319909416939093179092526002549151630200057560e51b81529092506001600160a01b0390911690634000aea0906113f3908a9089908690600401611d73565b602060405180830381600087803b15801561140d57600080fd5b505af1158015611421573d6000803e3d6000fd5b505050506040513d601f19601f820116820180604052508101906114459190611af8565b6114615760405162461bcd60e51b815260040161028290611e63565b6001600460008282546114749190611ff2565b9091555091979650505050505050565b61148c6118b7565b6114976020836121b8565b156114bf576114a76020836121b8565b6114b2906020612151565b6114bc9083611ff2565b91505b506020808301829052604080518085526000815283019091019052815b92915050565b60178111611503576114fd8360e0600585901b1683176115e6565b50611171565b60ff811161152d57611520836018611fe0600586901b16176115e6565b506114fd838260016115fe565b61ffff81116115585761154b836019611fe0600586901b16176115e6565b506114fd838260026115fe565b63ffffffff81116115855761157883601a611fe0600586901b16176115e6565b506114fd838260046115fe565b6001600160401b038111611171576115a883601b611fe0600586901b16176115e6565b506115b5838260086115fe565b50505050565b6115c36118b7565b6110e483846000015151848551611617565b61117182601f611fe0600585901b16175b6115ee6118b7565b6110e483846000015151846116f4565b6116066118b7565b6111ab848560000151518585611743565b61161f6118b7565b825182111561162d57600080fd5b602085015161163c8386611ff2565b111561166f5761166f8561165f8760200151878661165a9190611ff2565b6117b7565b61166a906002612132565b6117ce565b60008086518051876020830101935080888701111561168e5787860182525b505050602084015b602084106116ce57805182526116ad602083611ff2565b91506116ba602082611ff2565b90506116c7602085612151565b9350611696565b51815160001960208690036101000a019081169019919091161790525083949350505050565b6116fc6118b7565b8360200151831061171c5761171c848560200151600261166a9190612132565b835180516020858301018481535080851415611739576001810182525b5093949350505050565b61174b6118b7565b602085015161175a8584611ff2565b111561176e5761176e8561165f8685611ff2565b6000600161177e84610100612064565b6117889190612151565b90508551838682010185831982511617815250805184870111156117ac5783860181525b509495945050505050565b6000818311156117c85750816114dc565b50919050565b81516117da8383611484565b506115b583826115bb565b828054828255906000526020600020908101928215611832579160200282015b8281111561183257825180516118229184916020909101906118d1565b5091602001919060010190611805565b5061183e929150611951565b5090565b8260088101928215611832579160200282015b8281111561183257825180516118729184916020909101906118d1565b5091602001919060010190611855565b6040805160a0810182526000808252602082018190529181018290526060810191909152608081016118b26118b7565b905290565b604051806040016040528060608152602001600081525090565b8280546118dd90612168565b90600052602060002090601f0160209004810192826118ff5760008555611945565b82601f1061191857805160ff1916838001178555611945565b82800160010185558215611945579182015b8281111561194557825182559160200191906001019061192a565b5061183e92915061196e565b8082111561183e5760006119658282611983565b50600101611951565b5b8082111561183e576000815560010161196f565b50805461198f90612168565b6000825580601f106119a15750611095565b601f016020900490600052602060002090810190611095919061196e565b80356001600160a01b03811681146119d657600080fd5b919050565b600082601f8301126119eb578081fd5b60405161010081018181106001600160401b0382111715611a0e57611a0e6121f8565b6040528083835b6008811015611a4057611a2b8783358801611a4b565b83526020928301929190910190600101611a15565b509195945050505050565b600082601f830112611a5b578081fd5b81356001600160401b03811115611a7457611a746121f8565b611a87601f8201601f1916602001611fc9565b818152846020838601011115611a9b578283fd5b816020850160208301379081016020019190915292915050565b600060208284031215611ac6578081fd5b6110e4826119bf565b60008060408385031215611ae1578081fd5b611aea836119bf565b946020939093013593505050565b600060208284031215611b09578081fd5b815180151581146110e4578182fd5b600060208284031215611b29578081fd5b5035919050565b60008060408385031215611b42578182fd5b50508035926020909101359150565b600060208284031215611b62578081fd5b5051919050565b600080600080600060a08688031215611b80578081fd5b853594506020611b918188016119bf565b945060408701356001600160401b0380821115611bac578384fd5b818901915089601f830112611bbf578384fd5b813581811115611bd157611bd16121f8565b611bde8485830201611fc9565b81815284810190848601875b84811015611c1357611c018f8984358a0101611a4b565b84529287019290870190600101611bea565b509098505050506060890135925080831115611c2d578384fd5b5050611c3b888289016119db565b95989497509295608001359392505050565b60008151808452815b81811015611c7257602081850181015186830182015201611c56565b81811115611c835782602083870101525b50601f01601f19169290920160200192915050565b60609290921b6001600160601b0319168252601482015260340190565b6001600160a01b0391909116815260200190565b6001600160a01b0394851681529290931660208301526040820152606081019190915260800190565b6001600160a01b03929092168252602082015260400190565b6001600160a01b0389811682526020820189905260408201889052861660608201526001600160e01b03198516608082015260a0810184905260c0810183905261010060e08201819052600090611d6483820185611c4d565b9b9a5050505050505050505050565b600060018060a01b038516825283602083015260606040830152611d9a6060830184611c4d565b95945050505050565b6001600160a01b039390931683526020830191909152604082015260600190565b901515815260200190565b90815260200190565b6000602082526110e46020830184611c4d565b60208082526028908201527f556e61626c6520746f207472616e736665722072656d61696e696e67204c494e6040820152674b20746f6b656e7360c01b606082015260800190565b60208082526016908201527526bab9ba10313290383937b837b9b2b21037bbb732b960511b604082015260600190565b60208082526023908201527f756e61626c6520746f207472616e73666572416e6443616c6c20746f206f7261604082015262636c6560e81b606082015260800190565b60208082526016908201527527b7363c9031b0b63630b1363290313c9037bbb732b960511b604082015260600190565b6020808252602e908201527f756e61626c6520746f2063616c6c20756e74696c20636f76657261676520706560408201526d1c9a5bd9081a185cc8195b99195960921b606082015260800190565b6020808252601290820152712ab730b13632903a37903a3930b739b332b960711b604082015260600190565b60208082526017908201527621b0b73737ba103a3930b739b332b9103a379039b2b63360491b604082015260600190565b60208082526028908201527f536f75726365206d75737420626520746865206f7261636c65206f6620746865604082015267081c995c5d595cdd60c21b606082015260800190565b6040518181016001600160401b0381118282101715611fea57611fea6121f8565b604052919050565b60008219821115612005576120056121cc565b500190565b600082612019576120196121e2565b500490565b80825b6001808611612030575061205b565b818704821115612042576120426121cc565b8086161561204f57918102915b9490941c938002612021565b94509492505050565b60006110e4600019848460008261207d575060016110e4565b8161208a575060006110e4565b81600181146120a057600281146120aa576120d7565b60019150506110e4565b60ff8411156120bb576120bb6121cc565b6001841b9150848211156120d1576120d16121cc565b506110e4565b5060208310610133831016604e8410600b841016171561210a575081810a83811115612105576121056121cc565b6110e4565b612117848484600161201e565b808604821115612129576121296121cc565b02949350505050565b600081600019048311821515161561214c5761214c6121cc565b500290565b600082821015612163576121636121cc565b500390565b60028104600182168061217c57607f821691505b602082108114156117c857634e487b7160e01b600052602260045260246000fd5b60006000198214156121b1576121b16121cc565b5060010190565b6000826121c7576121c76121e2565b500690565b634e487b7160e01b600052601160045260246000fd5b634e487b7160e01b600052601260045260246000fd5b634e487b7160e01b600052604160045260246000fdfea264697066735822122050c330d3399759966b092d8185644a85b8efdc6a96683bb3f7fd5532fbde35cf64736f6c63430008000033a2646970667358221220766fa75d55e75159671e15e360d5bb0589d73a8b7148a87e07822599973bd46664736f6c63430008000033",
  "linkReferences": {},
  "deployedLinkReferences": {}
}