{"_format":"hh-sol-artifact-1","contractName":"RainfallOption","sourceName":"contracts/RainfallDerivativeFactory.sol","abi":[{"inputs":[],"stateMutability":"nonpayable","type":"constructor"},{"anonymous":false,"inputs":[{"indexed":true,"internalType":"bytes32","name":"id","type":"bytes32"}],"name":"ChainlinkCancelled","type":"event"},{"anonymous":false,"inputs":[{"indexed":true,"internalType":"bytes32","name":"id","type":"bytes32"}],"name":"ChainlinkFulfilled","type":"event"},{"anonymous":false,"inputs":[{"indexed":true,"internalType":"bytes32","name":"id","type":"bytes32"}],"name":"ChainlinkRequested","type":"event"},{"anonymous":false,"inputs":[{"indexed":true,"internalType":"address","name":"from","type":"address"},{"indexed":true,"internalType":"address","name":"to","type":"address"}],"name":"OwnershipTransferRequested","type":"event"},{"anonymous":false,"inputs":[{"indexed":true,"internalType":"address","name":"from","type":"address"},{"indexed":true,"internalType":"address","name":"to","type":"address"}],"name":"OwnershipTransferred","type":"event"},{"anonymous":false,"inputs":[{"indexed":false,"internalType":"address","name":"_contract","type":"address"},{"indexed":false,"internalType":"uint256","name":"_time","type":"uint256"}],"name":"contractEnded","type":"event"},{"anonymous":false,"inputs":[{"indexed":false,"internalType":"address","name":"_contract","type":"address"},{"indexed":false,"internalType":"uint256","name":"_payout","type":"uint256"},{"indexed":false,"internalType":"uint256","name":"_time","type":"uint256"}],"name":"evaluationRequestFulfilled","type":"event"},{"anonymous":false,"inputs":[{"indexed":false,"internalType":"address","name":"_contract","type":"address"},{"indexed":false,"internalType":"address","name":"_oracle","type":"address"},{"indexed":false,"internalType":"bytes32","name":"_request","type":"bytes32"},{"indexed":false,"internalType":"uint256","name":"_time","type":"uint256"}],"name":"evaluationRequestSent","type":"event"},{"inputs":[],"name":"acceptOwnership","outputs":[],"stateMutability":"nonpayable","type":"function"},{"inputs":[{"internalType":"address","name":"_oracle","type":"address"},{"internalType":"bytes32","name":"_job","type":"bytes32"}],"name":"addOracleJob","outputs":[],"stateMutability":"nonpayable","type":"function"},{"inputs":[],"name":"contractEvaluated","outputs":[{"internalType":"bool","name":"","type":"bool"}],"stateMutability":"view","type":"function"},{"inputs":[{"internalType":"bytes32","name":"_requestId","type":"bytes32"},{"internalType":"uint256","name":"_result","type":"uint256"}],"name":"fulfillPayoutEvaluation","outputs":[],"stateMutability":"nonpayable","type":"function"},{"inputs":[],"name":"getNumJobs","outputs":[{"internalType":"uint256","name":"","type":"uint256"}],"stateMutability":"view","type":"function"},{"inputs":[],"name":"getParameters","outputs":[{"internalType":"string[]","name":"","type":"string[]"}],"stateMutability":"view","type":"function"},{"inputs":[{"internalType":"uint256","name":"_oraclePayment","type":"uint256"},{"internalType":"address","name":"_link","type":"address"},{"internalType":"string[]","name":"_parameters","type":"string[]"},{"internalType":"uint256","name":"_end","type":"uint256"}],"name":"initialize","outputs":[],"stateMutability":"nonpayable","type":"function"},{"inputs":[{"internalType":"uint256","name":"","type":"uint256"}],"name":"jobs","outputs":[{"internalType":"bytes32","name":"","type":"bytes32"}],"stateMutability":"view","type":"function"},{"inputs":[{"internalType":"bytes32","name":"","type":"bytes32"}],"name":"oracleMap","outputs":[{"internalType":"uint256","name":"","type":"uint256"}],"stateMutability":"view","type":"function"},{"inputs":[{"internalType":"uint256","name":"","type":"uint256"}],"name":"oracles","outputs":[{"internalType":"address","name":"","type":"address"}],"stateMutability":"view","type":"function"},{"inputs":[],"name":"owner","outputs":[{"internalType":"address","name":"","type":"address"}],"stateMutability":"view","type":"function"},{"inputs":[],"name":"payout","outputs":[{"internalType":"uint256","name":"","type":"uint256"}],"stateMutability":"view","type":"function"},{"inputs":[{"internalType":"bytes32","name":"_job","type":"bytes32"}],"name":"removeOracleJob","outputs":[],"stateMutability":"nonpayable","type":"function"},{"inputs":[],"name":"requestPayoutEvaluation","outputs":[],"stateMutability":"nonpayable","type":"function"},{"inputs":[{"internalType":"address","name":"to","type":"address"}],"name":"transferOwnership","outputs":[],"stateMutability":"nonpayable","type":"function"}],"bytecode":"0x608060405260016004553480156200001657600080fd5b503380600081620000445760405162461bcd60e51b81526004016200003b9062000112565b60405180910390fd5b600680546001600160a01b0319166001600160a01b03848116919091179091558116156200007757620000778162000094565b505060006010819055600c805460ff19169055600d555062000180565b6001600160a01b038116331415620000c05760405162461bcd60e51b81526004016200003b9062000149565b600780546001600160a01b0319166001600160a01b03838116918217909255600654604051919216907fed8889f560326eb138920d842192f0eb3dd22b4f139c87a2c57538e05bae127890600090a350565b60208082526018908201527f43616e6e6f7420736574206f776e657220746f207a65726f0000000000000000604082015260600190565b60208082526017908201527f43616e6e6f74207472616e7366657220746f2073656c66000000000000000000604082015260600190565b611d8e80620001906000396000f3fe608060405234801561001057600080fd5b50600436106100c55760003560e01c8063180aedf3146100ca578063186395cf146100f35780633612820d146100fd5780633c54689f146101105780634e8bd286146101235780635b69a7d814610136578063602f144b1461015657806363bd1d4a1461016b57806364f1cb741461017357806379ba5097146101865780637e0c00ed1461018e5780638da5cb5b14610196578063a5ea11da1461019e578063ddc97227146101b3578063f2fde38b146101c6575b600080fd5b6100dd6100d836600461160f565b6101d9565b6040516100ea9190611957565b60405180910390f35b6100fb6101fa565b005b6100fb61010b36600461160f565b61052e565b6100fb61011e366004611627565b6107cd565b6100fb610131366004611660565b610a13565b61014961014436600461160f565b610a45565b6040516100ea91906117dd565b61015e610a6f565b6040516100ea919061194c565b6100dd610a78565b6100dd61018136600461160f565b610a7e565b6100fb610a90565b6100dd610b15565b610149610b1b565b6101a6610b2a565b6040516100ea91906118ec565b6100fb6101c13660046115c6565b610c0f565b6100fb6101d43660046115ac565b610cb2565b600b81815481106101e957600080fd5b600091825260209091200154905081565b610202610cc6565b42600f541061022c5760405162461bcd60e51b815260040161022390611a4b565b60405180910390fd5b7ff1c35e3933051ea28efca558462a55cac66003050f2c6f4e96833a696fa444e2304260405161025d92919061181a565b60405180910390a1600854600a805460408051602080840282018101909252828152600093909290918301828280156102bf57602002820191906000526020600020905b81546001600160a01b031681526001909101906020018083116102a1575b505050505090506000600b80548060200260200160405190810160405280929190818152602001828054801561031457602002820191906000526020600020905b815481526020019060010190808311610300575b505050505090506000600e805480602002602001604051908101604052809291908181526020016000905b828210156103eb57838290600052602060002001805461035e90611cb2565b80601f016020809104026020016040519081016040528092919081815260200182805461038a90611cb2565b80156103d75780601f106103ac576101008083540402835291602001916103d7565b820191906000526020600020905b8154815290600101906020018083116103ba57829003601f168201915b50505050508152602001906001019061033f565b5050505090506000805b8451811461052457600061043885838151811061042257634e487b7160e01b600052603260045260246000fd5b602002602001015130633c54689f60e01b610cf2565b60408051808201909152600a815269706172616d657465727360b01b602082015290915061046890829086610d19565b600061049c87848151811061048d57634e487b7160e01b600052603260045260246000fd5b6020026020010151838a610da4565b90506104a9600185611b3c565b93507f8a9d8e27cea77dd32eb51cfaf81bfc3fded7c7eeec5de203c4a8ad17c930fda7308885815181106104ed57634e487b7160e01b600052603260045260246000fd5b6020026020010151834260405161050794939291906117f1565b60405180910390a15061051d9050600182611b3c565b90506103f5565b50600d5550505050565b610536610cc6565b6000818152600960205260409020548015801561057e575081600b828154811061057057634e487b7160e01b600052603260045260246000fd5b906000526020600020015414155b6107c957600b5461059190600190611c9b565b81141561061357600a8054806105b757634e487b7160e01b600052603160045260246000fd5b600082815260209020810160001990810180546001600160a01b0319169055019055600b8054806105f857634e487b7160e01b600052603160045260246000fd5b600190038181906000526020600020016000905590556107c9565b600a805461062390600190611c9b565b8154811061064157634e487b7160e01b600052603260045260246000fd5b600091825260209091200154600a80546001600160a01b03909216918390811061067b57634e487b7160e01b600052603260045260246000fd5b9060005260206000200160006101000a8154816001600160a01b0302191690836001600160a01b03160217905550600a8054806106c857634e487b7160e01b600052603160045260246000fd5b600082815260209020810160001990810180546001600160a01b0319169055019055600b80546106fa90600190611c9b565b8154811061071857634e487b7160e01b600052603260045260246000fd5b9060005260206000200154600b828154811061074457634e487b7160e01b600052603260045260246000fd5b600091825260209091200155600b80548061076f57634e487b7160e01b600052603160045260246000fd5b600190038181906000526020600020016000905590558060096000600b84815481106107ab57634e487b7160e01b600052603260045260246000fd5b90600052602060002001548152602001908152602001600020819055505b5050565b60008281526005602052604090205482906001600160a01b031633146108055760405162461bcd60e51b815260040161022390611aca565b60008181526005602052604080822080546001600160a01b03191690555182917f7cc135e0cebb02c3480ae5d74d377283180a2601f8f644edf7987b009316c63a91a2816010600082825461085a9190611b3c565b925050819055506001600d60008282546108749190611c9b565b9091555050600d546109d357600a5460108054600090610895908490611b54565b9091555050600c805460ff1916600117905560006108b1610dc3565b9050806001600160a01b031663a9059cbb6108ca610b1b565b6040516370a0823160e01b81526001600160a01b038516906370a08231906108f69030906004016117dd565b60206040518083038186803b15801561090e57600080fd5b505afa158015610922573d6000803e3d6000fd5b505050506040513d601f19601f820116820180604052508101906109469190611648565b6040518363ffffffff1660e01b815260040161096392919061181a565b602060405180830381600087803b15801561097d57600080fd5b505af1158015610991573d6000803e3d6000fd5b505050506040513d601f19601f820116820180604052508101906109b591906115ef565b6109d15760405162461bcd60e51b815260040161022390611960565b505b7f8b08e29b6d8230eac33ee2a434b338e6589507f4f1082daa4042159a06333345308342604051610a06939291906118cb565b60405180910390a1505050565b610a1b610cc6565b6008849055610a2983610dd2565b8151610a3c90600e9060208501906113f6565b50600f55505050565b600a8181548110610a5557600080fd5b6000918252602090912001546001600160a01b0316905081565b600c5460ff1681565b60105481565b60096020526000908152604090205481565b6007546001600160a01b03163314610aba5760405162461bcd60e51b8152600401610223906119a8565b600680546001600160a01b0319808216339081179093556007805490911690556040516001600160a01b03909116919082907f8be0079c531659141344cd1fd0a4f28419497f9722a3daafe3b4186f6b6457e090600090a350565b600b5490565b6006546001600160a01b031690565b6060610b34610cc6565b6000600e805480602002602001604051908101604052809291908181526020016000905b82821015610c04578382906000526020600020018054610b7790611cb2565b80601f0160208091040260200160405190810160405280929190818152602001828054610ba390611cb2565b8015610bf05780601f10610bc557610100808354040283529160200191610bf0565b820191906000526020600020905b815481529060010190602001808311610bd357829003601f168201915b505050505081526020019060010190610b58565b509294505050505090565b610c17610cc6565b600a8054600180820183557fc65a7bb8d6351c1cf70c95a316cc6a92839c986682d98bc35f958f4883f9d2a890910180546001600160a01b0319166001600160a01b038616179055600b805480830182556000919091527f0175b7a638427703f0dbe7bb9bbf987a2551717b34e79f33b5b1008d1fa01db9018390559054610c9f9190611c9b565b6000918252600960205260409091205550565b610cba610cc6565b610cc381610df4565b50565b6006546001600160a01b03163314610cf05760405162461bcd60e51b815260040161022390611a1b565b565b610cfa611453565b610d02611453565b610d0e81868686610e6f565b9150505b9392505050565b6080830151610d289083610eac565b610d358360800151610ec3565b60005b8151811015610d9157610d7f828281518110610d6457634e487b7160e01b600052603260045260246000fd5b60200260200101518560800151610eac90919063ffffffff16565b80610d8981611ce7565b915050610d38565b50610d9f8360800151610ece565b505050565b6000610dbb84848460016320214ca360e11b610ed9565b949350505050565b6002546001600160a01b031690565b600280546001600160a01b0319166001600160a01b0392909216919091179055565b6001600160a01b038116331415610e1d5760405162461bcd60e51b815260040161022390611a99565b600780546001600160a01b0319166001600160a01b03838116918217909255600654604051919216907fed8889f560326eb138920d842192f0eb3dd22b4f139c87a2c57538e05bae127890600090a350565b610e77611453565b610e878560800151610100611094565b50509183526001600160a01b031660208301526001600160e01b031916604082015290565b610eb982600383516110f2565b610d9f82826111cc565b610cc38160046111e6565b610cc38160076111e6565b600030600454604051602001610ef09291906117c0565b60408051808303601f19018152918152815160209283012060045460608901526000818152600590935281832080546001600160a01b0319166001600160a01b038b16179055905190925082917fb5e6e01e79f91267dc17b4e6314d5d4d03593d2ceee0fbb452b750bd70ea5af991a2600082600080886000015189602001518a604001518b606001518a8d6080015160000151604051602401610f9b989796959493929190611833565b60408051601f198184030181529181526020820180516001600160e01b03166001600160e01b0319909416939093179092526002549151630200057560e51b81529092506001600160a01b0390911690634000aea090611003908a908990869060040161189b565b602060405180830381600087803b15801561101d57600080fd5b505af1158015611031573d6000803e3d6000fd5b505050506040513d601f19601f8201168201806040525081019061105591906115ef565b6110715760405162461bcd60e51b8152600401610223906119d8565b6001600460008282546110849190611b3c565b9091555091979650505050505050565b61109c611488565b6110a7602083611d02565b156110cf576110b7602083611d02565b6110c2906020611c9b565b6110cc9083611b3c565b91505b506020808301829052604080518085526000815283019091019052815b92915050565b601781116111135761110d8360e0600585901b1683176111f7565b50610d9f565b60ff811161113d57611130836018611fe0600586901b16176111f7565b5061110d8382600161120f565b61ffff81116111685761115b836019611fe0600586901b16176111f7565b5061110d8382600261120f565b63ffffffff81116111955761118883601a611fe0600586901b16176111f7565b5061110d8382600461120f565b67ffffffffffffffff8111610d9f576111b983601b611fe0600586901b16176111f7565b506111c68382600861120f565b50505050565b6111d4611488565b610d1283846000015151848551611228565b610d9f82601f611fe0600585901b16175b6111ff611488565b610d128384600001515184611305565b611217611488565b610dbb848560000151518585611354565b611230611488565b825182111561123e57600080fd5b602085015161124d8386611b3c565b111561128057611280856112708760200151878661126b9190611b3c565b6113c8565b61127b906002611c7c565b6113df565b60008086518051876020830101935080888701111561129f5787860182525b505050602084015b602084106112df57805182526112be602083611b3c565b91506112cb602082611b3c565b90506112d8602085611c9b565b93506112a7565b51815160001960208690036101000a019081169019919091161790525083949350505050565b61130d611488565b8360200151831061132d5761132d848560200151600261127b9190611c7c565b83518051602085830101848153508085141561134a576001810182525b5093949350505050565b61135c611488565b602085015161136b8584611b3c565b111561137f5761137f856112708685611b3c565b6000600161138f84610100611bae565b6113999190611c9b565b90508551838682010185831982511617815250805184870111156113bd5783860181525b509495945050505050565b6000818311156113d95750816110ec565b50919050565b81516113eb8383611094565b506111c683826111cc565b828054828255906000526020600020908101928215611443579160200282015b8281111561144357825180516114339184916020909101906114a2565b5091602001919060010190611416565b5061144f929150611522565b5090565b6040805160a081018252600080825260208201819052918101829052606081019190915260808101611483611488565b905290565b604051806040016040528060608152602001600081525090565b8280546114ae90611cb2565b90600052602060002090601f0160209004810192826114d05760008555611516565b82601f106114e957805160ff1916838001178555611516565b82800160010185558215611516579182015b828111156115165782518255916020019190600101906114fb565b5061144f92915061153f565b8082111561144f5760006115368282611554565b50600101611522565b5b8082111561144f5760008155600101611540565b50805461156090611cb2565b6000825580601f106115725750610cc3565b601f016020900490600052602060002090810190610cc3919061153f565b80356001600160a01b03811681146115a757600080fd5b919050565b6000602082840312156115bd578081fd5b610d1282611590565b600080604083850312156115d8578081fd5b6115e183611590565b946020939093013593505050565b600060208284031215611600578081fd5b81518015158114610d12578182fd5b600060208284031215611620578081fd5b5035919050565b60008060408385031215611639578182fd5b50508035926020909101359150565b600060208284031215611659578081fd5b5051919050565b60008060008060808587031215611675578182fd5b8435935061168560208601611590565b9250604085013567ffffffffffffffff808211156116a1578384fd5b818701915087601f8301126116b4578384fd5b8135818111156116c6576116c6611d42565b6116d4602080830201611b12565b818152602080820191908501875b8481101561176057813587018d603f8201126116fc57898afd5b60208101358781111561171157611711611d42565b611724601f8201601f1916602001611b12565b8181528f6040838501011115611738578b8cfd5b81604084016020830137602091810182018c90528652948501949290920191506001016116e2565b50989b979a5098606001359750505050505050565b60008151808452815b8181101561179a5760208185018101518683018201520161177e565b818111156117ab5782602083870101525b50601f01601f19169290920160200192915050565b60609290921b6001600160601b0319168252601482015260340190565b6001600160a01b0391909116815260200190565b6001600160a01b0394851681529290931660208301526040820152606081019190915260800190565b6001600160a01b03929092168252602082015260400190565b6001600160a01b0389811682526020820189905260408201889052861660608201526001600160e01b03198516608082015260a0810184905260c0810183905261010060e0820181905260009061188c83820185611775565b9b9a5050505050505050505050565b600060018060a01b0385168252836020830152606060408301526118c26060830184611775565b95945050505050565b6001600160a01b039390931683526020830191909152604082015260600190565b6000602080830181845280855180835260408601915060408482028701019250838701855b8281101561193f57603f1988860301845261192d858351611775565b94509285019290850190600101611911565b5092979650505050505050565b901515815260200190565b90815260200190565b60208082526028908201527f556e61626c6520746f207472616e736665722072656d61696e696e67204c494e6040820152674b20746f6b656e7360c01b606082015260800190565b60208082526016908201527526bab9ba10313290383937b837b9b2b21037bbb732b960511b604082015260600190565b60208082526023908201527f756e61626c6520746f207472616e73666572416e6443616c6c20746f206f7261604082015262636c6560e81b606082015260800190565b60208082526016908201527527b7363c9031b0b63630b1363290313c9037bbb732b960511b604082015260600190565b6020808252602e908201527f756e61626c6520746f2063616c6c20756e74696c20636f76657261676520706560408201526d1c9a5bd9081a185cc8195b99195960921b606082015260800190565b60208082526017908201527621b0b73737ba103a3930b739b332b9103a379039b2b63360491b604082015260600190565b60208082526028908201527f536f75726365206d75737420626520746865206f7261636c65206f6620746865604082015267081c995c5d595cdd60c21b606082015260800190565b60405181810167ffffffffffffffff81118282101715611b3457611b34611d42565b604052919050565b60008219821115611b4f57611b4f611d16565b500190565b600082611b6357611b63611d2c565b500490565b80825b6001808611611b7a5750611ba5565b818704821115611b8c57611b8c611d16565b80861615611b9957918102915b9490941c938002611b6b565b94509492505050565b6000610d126000198484600082611bc757506001610d12565b81611bd457506000610d12565b8160018114611bea5760028114611bf457611c21565b6001915050610d12565b60ff841115611c0557611c05611d16565b6001841b915084821115611c1b57611c1b611d16565b50610d12565b5060208310610133831016604e8410600b8410161715611c54575081810a83811115611c4f57611c4f611d16565b610d12565b611c618484846001611b68565b808604821115611c7357611c73611d16565b02949350505050565b6000816000190483118215151615611c9657611c96611d16565b500290565b600082821015611cad57611cad611d16565b500390565b600281046001821680611cc657607f821691505b602082108114156113d957634e487b7160e01b600052602260045260246000fd5b6000600019821415611cfb57611cfb611d16565b5060010190565b600082611d1157611d11611d2c565b500690565b634e487b7160e01b600052601160045260246000fd5b634e487b7160e01b600052601260045260246000fd5b634e487b7160e01b600052604160045260246000fdfea26469706673582212203dfe547711c35446857dda4ee57977179946047c88997730addf36c2005677b964736f6c63430008000033","linkReferences":{},"deployedLinkReferences":{}}